:100000000C94CE020C9470280C94EB020C94EB022E
:100010000C94EB020C94EB020C94EB020C94EB02AC
:100020000C94EB020C94EB020C942C2E0C94FF2EEF
:100030000C94D6260C94EB020C94EB020C94EB027D
:100040000C94EB020C94EB020C94EB020C94EB027C
:100050000C94EB020C948E270C94EB020C94EB02A4
:100060000C94EB020C94EB020C94EB020C94EB025C
:100070000C94EB020C94EB020C94EB020C94EB024C
:100080000C94EB020C94EB020C94EB020C94EB023C
:100090000C94EB020C94EB020C94EB020C94EB022C
:1000A0000C94EB020C94EB020C94EB0229001E0062
:1000B0001F002000210022002B0014001A0008005D
:1000C00015001700390004001600070009000A0097
:1000D000E1001D001B00060019000500E000E30020
:1000E000E200245222522C00230024002500260086
:1000F00027002A001C0018000C0012001300310019
:100100000B000D000E000F00330034001100100032
:1001100036003700520028002C00215238005000D1
:1001200051004F0001000100010001000100010029
:1001300001000100010001000100A900010001000F
:10014000010001000100AA000100010001000100FE
:100150000100010001000100010001002352010023
:10016000010001000100010001004C00010001003C
:100170000100010001000100010001000100010077
:100180000100010001000100010001000100010067
:10019000010001000100010001000100007C0100DC
:1001A0000100010001000100010001000100010047
:1001B0000100010001000100010001000100010037
:1001C0000100010001000100010001000100010027
:1001D00001000100010001000100010001002602F0
:1001E00027024C000100010001002F023002010033
:1001F00001002E022D002F003000010001002E0012
:100200002D023602370201000100235201000100D5
:1002100001000100000102030405060708090A0B9A
:1002200000010101010101010101020202020202B9
:10023000020202030303030303030304040404048C
:100240000404050505050506060606060707070753
:100250000708080808090909090A0A0A0B0B0B0C08
:100260000C0C0D0D0D0E0E0E0F0F0F1010111111A5
:100270001212131314141515161617171818191926
:100280001A1A1B1B1C1D1D1E1E1F2020212222238B
:100290002424252626272829292A2B2C2D2D2E2FCC
:1002A00030313232333435363738393A3B3C3D3EE3
:1002B0003F404142434445464748494A4C4D4E4FD2
:1002C00050515354555658595A5B5D5E5F61626494
:1002D000656668696B6C6D6F7072737577787A7B21
:1002E0007D7E8082838587888A8C8E8F9193959678
:1002F000989A9C9EA0A2A3A5A7A9ABADAFB1B3B598
:10030000B7BABCBEC0C2C4C6C9CBCDCFD1D4D6D873
:10031000DBDDDFE2E4E7E9EBEEF0F3F5F8FAFDFF11
:1003200000000000000000002A2B28000000000050
:100330000000000000000000000000290000000094
:100340002C1E3420212224342627252E362D373802
:10035000271E1F202122232425263333362E37380B
:100360001F0405060708090A0B0C0D0E0F101112C9
:10037000131415161718191A1B1C1D2F3130232D95
:10038000350405060708090A0B0C0D0E0F10111293
:10039000131415161718191A1B1C1D2F3130354C44
:1003A000000000000000000000000000000000004D
:1003B000000000000000000000000000000000003D
:1003C000000000007E0F00D4FFFFFFC70000007890
:1003D0002203680061006E0064007700690072000B
:1003E000650064002F006200690062006100360051
:1003F000300000001803440061006E0069006500D1
:100400006C002000420069006200610000000403EB
:10041000090409025B00030100A0FA0904000001BD
:100420000301010009211101000122440007058197
:100430000308000109040100020300000009211162
:1004400001000122220007058203200001070503A5
:10045000032000010904020001030000000921112A
:1004600001000122B60007058403200001120100EB
:1004700002000000084244000000010102000106E1
:1004800060FF0961A1010962150026FF0095207532
:100490000881020963150026FF0095207508910266
:1004A000C005010902A10185020901A10005091980
:1004B000012908150025019508750181020501092A
:1004C0003009311581257F95027508810609381597
:1004D00081257F950175088106050C0A3802158172
:1004E000257F950175088106C0C005010980A1011D
:1004F000850319012AB700150126B700950175106B
:100500008100C0050C0901A101850419012AA0027E
:10051000150126A002950175108100C0050109068C
:10052000A1018506050719E029E7150025019508B1
:10053000750181020507190029EF1500250195F0C5
:1005400075018102050819012905950575019102BA
:10055000950175039101C005010906A1010507195F
:10056000E029E715002501950875018102950175BF
:100570000881010507190029FF150026FF009506CF
:100580007508810005081901290515002501950543
:1005900075019102950175039101C00011241FBEE0
:1005A000CFEFDAE0DEBFCDBF11E0A0E0B1E0EAEBD3
:1005B000F4E602C005900D92A03DB107D9F723E003
:1005C000A0EDB1E001C01D92AF35B207E1F70E9486
:1005D0007F150C94E2310C94000008950E94A2193A
:1005E00081E00E949E1908958330B8F46A30A8F41F
:1005F000463098F4E42FF0E096E0699FE00DF11D9D
:1006000011249CE3899FE00DF11D1124EE0FFF1FC3
:10061000E455FF4F85919491089581E090E008950D
:1006200081E008950E941003089581E008950E94DA
:10063000100308950E941703089508950E941D0352
:100640000895A6E0B0E0E7E2F3E00C9400314983BE
:100650005A839E833091D70189819A8131111AC0C2
:100660003E81332399F0222389F00E94B308182F8A
:10067000682F89819A810E948F0869817A81812FF0
:100680000E94D30F2696E3E00C941C310E94A1082F
:10069000182FF3CF0E94B30869817A81F1CFFC0152
:1006A000262F4081518162817381848195810E94CE
:1006B00021030895CF93DF93D82FC92F61E00E94C3
:1006C0004F036D2F7C2F0E941203DF91CF9108956D
:1006D000CF93DF93D82FC92F60E00E944F036D2F77
:1006E0007C2F0E941E03DF91CF91089581E0089531
:1006F0000E9476030895CF93C82F0E9483078C2F02
:100700000E9478032FEF84E39CE0215080409040CA
:10071000E1F700C00000CF91089581E00E947B03C3
:100720000E94B227089580E00E947B030E94C327A5
:1007300008950F931F93CF93DF938C0161E00E9484
:100740004F03EC01F801858181110E94AC1AB801B8
:10075000CE010E941A23882309F449C0B801CE01B2
:100760000E941A03882309F442C0B801CE010E94F6
:1007700026228823E1F1B801CE010E94361D88238C
:10078000B1F1B801CE010E940B1D882381F1B8019F
:10079000CE010E94B71A882351F1B801CE010E9400
:1007A0006722882321F1F8018581882381F0CA35E9
:1007B000FCE7DF0739F178F4C130ECE7DE07F9F048
:1007C000C330FCE7DF07C9F0C115DC4771F0C80191
:1007D0000E9415030DC0CB35ECE7DE07B1F0CC3538
:1007E000DC47A9F70E94050DF2CF0E948D0380E03F
:1007F000DF91CF911F910F9108950E94170D0E94D4
:100800009303F5CF0E940F0DE2CF0E94130DDFCFAF
:100810000E94B3260E942F0408950E9433040E9470
:10082000B8260895089581E008950895CF93DF9341
:10083000D82F0E941304C82F882319F08D2F0E94EF
:1008400015048C2FDF91CF9108950895CF93C82F71
:100850000E9412048C2F0E941604CF91089580E00C
:100860000E94260408950E94E8240E942604089508
:10087000CF930E94E824C82F8091D2018C1779F081
:10088000C093D2010E9442276093D3017093D40198
:100890008093D5019093D6018C2F0E942604CF918E
:1008A0000895ADE0B0E0E7E5F4E00C94013148874D
:1008B00059876A877B878C879D8791110E94100CCE
:1008C0001F8286E0FE013896DE01119601900D929E
:1008D0008A95E1F78D8181110DC029813A814B8183
:1008E0005C816D817E818F810E94560B2D96E2E0A6
:1008F0000C941D31CE0101960E945A038111EDCF57
:10090000F5CFFC018481813021F4808191810E94A6
:10091000DC080895662329F00E94A41E0E947A1F15
:1009200008950E94021FFACFCF93C82F882399F011
:100930008CEF8C0F813A88F48C2F0E9492258823AB
:1009400029F08C2F0E9437260E94A80C8C2F0E9421
:1009500020260E94A80CCF91089580E28C0F883049
:1009600048F4C77081E001C0880FCA95EAF70E9479
:10097000F10BEFCF8BE58C0F833038F42C2F245202
:10098000330BC9010E942525E6CFE8E5EC0FEB31DA
:1009900050F4F0E0EE0FFF1FEF5BFE4F808191817E
:1009A0000E944B25D8CF83E38C0F8331A0F661E002
:1009B0008C2F0E948A04CFCF882381F19CEF980F5F
:1009C000913A28F40E9437260E94A80C089590E2DC
:1009D000980F983050F4877091E001C0990F8A9574
:1009E000EAF7892F0E94F70BEFCF9BE5980F933022
:1009F00028F480E090E00E942525089598E5980F5E
:100A00009B3128F480E090E00E944B25089593E309
:100A1000980F933118F460E00E948A0408951F93A0
:100A2000CF93DF93182FEB010E949404209739F4A1
:100A3000812F0E94DC04DF91CF911F9108958FE9EF
:100A40009FE00197F1F700C000002197EFCF60E031
:100A500070E0893311F460E570E00E940F0508959D
:100A6000882321F00E94F10B0E94A80C089588238E
:100A700021F00E94F70B0E94A80C0895A0E0B0E0BE
:100A8000E4E4F5E00C94FB306C01D62FC72FFC0199
:100A90001581068102950F700E94E60BE82E8823CF
:100AA000F9F0E12E1123E1F08C2F807F803461F08A
:100AB00080E28D0F8830F0F08C2F807E803221F420
:100AC000D230C0F00023B1F08091070382FF12C042
:100AD00082E00E94D80C0E94E60B91E0E82EE92605
:100AE000EC2FE295EF70C03CB0F5F0E0EC51FE4C1D
:100AF0000C94E430E12CF4CF0C2F0F70C03110F0C7
:100B00000295007F112399F0002359F080E28D0FA8
:100B1000883010F0D11107C0802F0E94F10B0E9485
:100B2000A80C8D2F51C0802F0E94020CF8CF8D2F62
:100B30000E94DC04002379F080E28D0F883010F0F1
:100B4000D11104C0802F0E94F70B03C0802F0E9498
:100B5000080C0E94A80CEE2089F00E94E20B80FD98
:100B60000DC0F60115820E94DC0B0E94FD07C60134
:100B70000E944A070E94DC0B0E940908CDB7DEB72D
:100B8000E8E00C941731FC2FFF70FF2EC07FC032BD
:100B900019F0F29480EFF822DD2341F0D130D1F149
:100BA000112309F444C00023F1F0BBCF8091070367
:100BB00082FD15C0112359F0FF2029F08F2D0E94CE
:100BC000F10B0E94A80C80E00E949404C4CF80E046
:100BD0000E94DC04FF2009F4BECF8F2DB4CF112377
:100BE00069F0011104C08F2D0E943005B4CF01308F
:100BF00009F0B1CF8F2D0E94280CADCF0111ABCFE2
:100C00008F2D0E9437058F2D0E94340C8F2D0E944E
:100C1000170CA1CF112321F0063008F09CCFE3CFB1
:100C2000053008F098CF8F2D0E94370594CF002310
:100C3000D1F3D93349F42FEF87EE93E02150804070
:100C40009040E1F700C000008D2F0E94DC0483CFAC
:100C50008C2F869586958370882369F0813009F002
:100C60007ACF8D2F9C2F9370111102C080E090E0FD
:100C70000E944B2570CF8D2F9C2F9370111102C0B5
:100C800080E090E00E94252566CF612F8D2F0E9485
:100C90008A0461CF8C2F8370811134C0111124C05C
:100CA0004D2F429546954770440F440F8D2F8F70FE
:100CB000042E01C0880F0A94EAF7D071DD2341F0B9
:100CC0002FE030E001C0220F4A95EAF7D22FD095ED
:100CD000C695C695C3708D2BC23071F0C33079F0C4
:100CE000C13039F00E94D9070E94E8240E942604EE
:100CF00032CF0E94D307F8CF0E94DF07F5CF0E94C2
:100D0000D007F2CF112339F1C0FFEECF4D2F42951E
:100D100046954770440F440F8D2F8F70042E01C0ED
:100D2000880F0A94EAF7D071DD2341F02FE030E01C
:100D300001C0220F4A95EAF7D22FD095C695C695E5
:100D4000C3708D2BC23069F0C33071F0C13031F007
:100D50000E942B08C9CF823038F2D8CF0E942508D4
:100D6000C3CF0E943108C0CF0E94EB07BDCFCF7028
:100D7000112339F08C2F0E94FD078D2F0E94300522
:100D8000B3CF8D2F0E9437058C2F0E940908ACCF5E
:100D9000D23F31F170F4D03FB9F0D13FB1F111231E
:100DA00009F44EC0002309F448C08D2F0E9494041A
:100DB0009BCFD33FE1F0D43F21F11111F3CF0111CB
:100DC0004DC08C2F8F71E1CF112341F0053008F019
:100DD0008BCF8C2F8F710E94190886CF0530F7CFEB
:100DE0008C2F8F711111D1CF0E94FD077DCF112360
:100DF00029F08C2F8F710E94F40776CF0E94F007A4
:100E000073CF8091070382FD06C08C2F8F71112351
:100E100009F4BBCFE9CF112331F063E08C2F8F7140
:100E20000E94BA0C61CF81E00E94D80C023008F415
:100E30005BCF82E00E94D80C57CF8C2F8F71D4CF1C
:100E4000002309F4BECFD93349F4EFEFF7EE23E0E6
:100E5000E150F0402040E1F700C000008D2F0E94DB
:100E6000DC0442CF0F931F93CF93DF93EC01688193
:100E700079818D810E94E9088C010E9437080E94C7
:100E8000CF07B801CE010E943E05DF91CF911F919F
:100E90000F910895CF93DF93EC018C81882399F013
:100EA000CE010E949903811111C00E94E60B882394
:100EB00051F08D81882339F08091070382FF03C0B0
:100EC00082E00E94D80CDF91CF910895CE010E945C
:100ED0003207CE010E946803F6CF80E090E00E94C6
:100EE000252580E090E00E944B250E94100C0E9476
:100EF000A80C0E94971F0E947A1F08950E944E26F8
:100F00000E946D0708950E94FF0B0E947E070895BE
:100F1000282F92959F70963091F060F4925F9F70A9
:100F2000923030F481E0203F79F030F4283E30F008
:100F300080E008959A5FF3CF243FD1F7089581E0D0
:100F4000283EE0F3213FF9CF0895FC0184818823F6
:100F500039F0808191810E94DC080E948807089501
:100F600080E00895A6E0B0E0E8EBF7E00C940131F2
:100F70002696E2E00C941D31A7E0B0E0E2ECF7E049
:100F80000C9401312796E2E00C941D3108950E94E3
:100F9000C60708950E94C7078093F1010895089538
:100FA0000E94CA0708959091F101892B0E94CA07F7
:100FB00008959091F10189230E94CA0708959091A4
:100FC000F10189270E94CA0708950E94C607089563
:100FD0000E94E50708950E94E8078093F0010895B4
:100FE00080E00E94EB07089591E001C0990F8A9577
:100FF000EAF7892F0E94EB07089521E030E001C055
:10100000220F8A95EAF78091F001822B0E94EB076C
:10101000089521E030E0A90102C0440F551F8A95D0
:10102000E2F7CA0180959091F00189230E94EB07B5
:10103000089521E030E001C0220F8A95EAF78091FF
:10104000F00182270E94EB0708959091F001892B0F
:101050000E94EB0708959091F00189230E94EB070D
:1010600008959091F00189270E94EB070895089553
:101070009B01677091E001C0990F6A95EAF763E000
:10108000369527956A95E1F7B901660F771F260F08
:10109000371FFA01E20FF31F40E050E0682F70E0C5
:1010A0008191DF0111979B01042E02C0369527958F
:1010B0000A94E2F7217021952827292328272C93C9
:1010C0004F5F5F4F4330510559F708959C01A82F9A
:1010D000A77083E0369527958A95E1F7C901880FB7
:1010E000991F820F931FFB01E80FF91F40E050E0AA
:1010F00080E0219130E00A2E02C0369527950A94AF
:10110000E2F721703327042E01C0220F0A94EAF778
:10111000822B4F5F5F4F4330510559F70895282FB9
:10112000862F9A3068F4263058F4622F70E026E05B
:10113000929F600D711D112448ED51E00E94380806
:101140000895292F9A3068F4863058F490E068EDBD
:1011500071E036E0239F800D911D11240E946608E6
:10116000089580E00895A0E0B0E0E9EBF8E00C9489
:10117000FC307C010091F0018091F101082BC5E069
:10118000D0E010E0C8010C2E02C0959587950A9416
:10119000E2F780FD09C02197A8F7D12C8D2DCDB79E
:1011A000DEB7E7E00C941831DC2EB7018C2F0E94DB
:1011B000DF0F019781F3F2CFCF93DF93D82FC92FA1
:1011C0000E94B3086D2F7C2F0E94DF0FDF91CF911B
:1011D00008951F93CF93DF93162FD72F9091D701A8
:1011E000992341F0862F972F0E94DC08DF91CF9141
:1011F0001F910895882381F0862F972F0E94B308AE
:10120000C82F682F812F9D2F0E948F08612F7D2F5F
:101210008C2F0E94DF0FEACF862F972F0E94A10804
:10122000C82FF4CFE1E0F0E0DF0102C0AA0FBB1F3E
:101230006A95E2F7BD01DF0102C0AA0FBB1F4A9504
:10124000E2F76A2B01C0EE0F2A95EAF7962F982352
:10125000961302C08E2B0895E0958E230895242FB7
:10126000462F682F8091F0010E9412090E94EB071F
:1012700008950F931F93CF93E091F201C7E08091FF
:10128000F3018E1304C0CF911F910F9108950E2F7B
:1012900010E0CE9FF0011124EC50FE4F20813181EF
:1012A000428153816481758186810E94BC07F80167
:1012B0003196E770E4CF20912C0230912D024091BD
:1012C0002E0250912F026091300270913102809174
:1012D00032020E94BC07089580913202803178F476
:1012E00080913102882359F0E091F2012091F301BD
:1012F00030912D0240912C0257E02E1301C0089529
:101300006E2F70E05E9FF0011124DF01AC50BE4FE4
:1013100014968C911497882361F111968C911197F2
:10132000831327C08C91841324C015968C91159734
:1013300081111FC012968D919C91A0912E02B091A7
:101340002F028A1B9B0B883C910598F480913202F6
:101350008F70806180933202E650FE4F80818F70E3
:10136000806180838CE292E00E944A070E943909E2
:101370000895FB013196E770C0CFE091F2019091A2
:10138000F30127E0E91302C080E00895AE2FB0E03A
:101390002E9FF0011124EC50FE4F3181361306C010
:1013A0003081381303C03581341304C0FD013196F8
:1013B000E770E8CF81E008958F929F92AF92BF923D
:1013C000DF92EF92FF920F931F93CF93DF93CDB7EE
:1013D000DEB72D970FB6F894DEBF0FBECDBF8C01E0
:1013E00086E0F801DE01189601900D928A95E1F7EA
:1013F000F801E080F580A280B38084819CE2892E90
:1014000092E0992E9091300291111BC0882309F42B
:10141000FCC0FF2009F43DC1C8010E94A507882334
:1014200009F437C187E0F801D40101900D928A9543
:10143000E1F7C4010E9481040E946C090E945B09CB
:10144000E4C0D090310220912E0230912F02A501EC
:10145000421B530BDD2009F4DBC0483C510508F06A
:10146000A6C0882309F4D1C090912D02918080916B
:101470003202803108F06BC0991228C090912C0282
:101480009E1124C0F1105DC08F7080618093320284
:101490000E945B098CE292E00E944A07809132022E
:1014A000F8018683F12C8F2D2D960FB6F894DEBFB0
:1014B0000FBECDBFDF91CF911F910F91FF90EF90A5
:1014C000DF90BF90AF909F908F900895F11039C03A
:1014D00040E0692D8E2D0E94BD0940E0692D8E2DC2
:1014E0000E94BD09F82E8111DDCF888599850E9463
:1014F000DC08292F22952F70903450F49F702230F1
:1015000080F0992399F0F8019681903178F4CBCF4F
:101510002A5F2F70223078F0C8010E944A07FD2C04
:10152000C2CF992319F0882309F4BDCF805E88309B
:1015300008F4B9CFF1CF803F08F4B5CF815F823096
:10154000F7CF80913202816080933202ABCF991243
:1015500007C090912C029E1103C0FF2009F479C0AE
:10156000C8010E94A507882309F493C0FF2009F44D
:1015700090C080913202803288F020912C0230910C
:101580002D023A832983BC82AB82909130029D83E5
:101590001E828F83CE0101960E944A0787E0F801E0
:1015A000ACE2B2E001900D928A95E1F745CF9091BF
:1015B00032029031A0F4488559856A857B858C85F7
:1015C0009D850E94B2078CE292E00E944A0787E064
:1015D000F40111928A95E9F70E945B0963CF882391
:1015E000A1F020912D0281812813BACF80912C0285
:1015F0008E11B6CFF110B4CF9683C8010E944A076E
:1016000087E0F40111928A95E9F7FF24F3944BCF18
:10161000483C510508F041C08823B9F3FF20C9F1C7
:1016200090912D02818198132AC080912C028E11F5
:1016300026C08091320280FD19C08031B8F08683C7
:10164000807F803F39F08681982F907F905F8F70E8
:10165000892B8683C8010E944A0787E0F801ACE223
:10166000B2E001900D928A95E1F7E8CE87E0F801AB
:10167000ACE2B2E001900D928A95E1F7C6CFC801C5
:101680000E94A50781118ACF8091320281608093E8
:101690003202C8010E944A07B8CF488559856A8539
:1016A0007B858C859D850E94B20791CFAEE0B0E02E
:1016B000ECE5FBE00C940031288739874A875B878B
:1016C0006C877D878E87CE0108960E94DC0988236F
:1016D000B1F06C85662341F0288539854A855B85A4
:1016E0007D858E850E94BC0717E08091F201909164
:1016F000F30189133EC02E96E3E00C941C3187E081
:10170000FE013896DE01119601900D928A95E1F75F
:101710002091F3014091F2018C85882329F330E078
:10172000C90101968770992750E08417950799F0B1
:1017300097E0929FD001939FB00D1124AC50BE4F03
:10174000FE01319601900D929A95E1F78093F30195
:101750000E943909C9CF0E9483071092F3011092A9
:10176000F20187E0ECE2F2E0DF011D928A95E9F7F1
:10177000BBCF189FC00111248C509E4F0E94DC09E2
:10178000882309F4B8CFE091F2011E9FF0011124E3
:10179000EC50FE4F208131814281538164817581FB
:1017A00086810E94BC078091F20190E001968770CB
:1017B00099278093F20199CF80915B028695869557
:1017C0008695089580915B028770089590915B02E1
:1017D000977081E0911101C080E0089580918702A7
:1017E000089590918702982B909387020895982FDF
:1017F00090958091870289238093870208951092A3
:101800008702089590918602982B909386020895FE
:10181000982F90958091860289238093860208955F
:1018200010928602089508950E94130C08959091D5
:101830005C02292F2823222331F08095892380936D
:101840005C020E94140C089508950E94240C0895CF
:1018500090915D02292F2823281729F0982B909327
:101860005D020E94250C089590915D02292F282386
:10187000222331F08095892380935D020E94250CFC
:10188000089580915D02882329F010925D0280E026
:101890000E94250C0895CF93DF93C0918702809119
:1018A0008602C82BD0915D02DD2331F00E947125A4
:1018B00081110E94410CCD2B8C2FDF91CF91089587
:1018C000CF93DF93C0910201D09103010E944B0C92
:1018D0008883C0910201D091030148E050E063E5A4
:1018E00072E0CE010E947431892B59F088E0FE012C
:1018F000A3E5B2E001900D928A95E1F7CE010E9436
:10190000FC24DF91CF910895CF93DF93C091000124
:10191000D09101010E944B0C8983C0910001D091AC
:10192000010140E250E063E372E0CE010E947431B5
:10193000892B59F080E2FE01A3E3B2E001900D9201
:101940008A95E1F7CE010E940725DF91CF91089596
:1019500080914001882339F08091060387FF03C0FE
:101960000E94840C08950E94600C089508950E94BE
:10197000B60C08959091070392FF11C098E0899FDB
:1019800090011124622B60935B020E94FD078091FD
:101990005B028695869586950E94B70C08950E94F5
:1019A000FD07089510925B0280E00E94B70C089535
:1019B00090915B028095892380935B02282F27708A
:1019C00021110DC0891759F09091070392FF07C0AC
:1019D0008695869586950E9409080E94D20C0895E6
:1019E0009091070392FB222720F9281769F080FBCA
:1019F00092F99093070380910603909107030E9448
:101A0000390D82E00E94D80C08958091070382FB73
:101A1000882780F991E089270E94F00C089581E0E1
:101A20000E94F00C089580E00E94F00C08956FEF82
:101A30007FEF80E090E00E94CC31089580E090E05C
:101A40000E949831853E9E4F19F40E94A22208956B
:101A500080E0089582E090E00E948A31089583E05A
:101A600090E00E948A31089584E090E00E949831CD
:101A70000895BC0184E090E00E94CC310895AB0150
:101A8000BC018FE090E00E94C0310895AB01BC0121
:101A900083E190E00E94C031089560E070E0CB01E6
:101AA0000E94460D089560E070E0CB010E943F0D5A
:101AB0000E944D0D0895A8E0B0E0E1E6FDE00C9431
:101AC000013165EE7EEF80E090E00E94CC3160E075
:101AD00082E090E00E94AE3181E08093F10161E00C
:101AE00083E090E00E94AE3160E074E184E090E039
:101AF0000E94CC3160E086E090E00E94AE3160E070
:101B000087E090E00E94AE3140E050E0BA0188E00A
:101B100090E00E94C03160E083E290E00E94AE312C
:101B200060E08CE090E00E94AE3160E08DE090E0FB
:101B30000E94AE3119821A821B821C821D821E8273
:101B40001F82188648E050E067E170E0CE01019600
:101B50000E949E3140E050E0BA018FE190E00E9487
:101B6000C03180E00E94BB220E94FA220E94530DE5
:101B70002896E2E00C941D310E945B0D0895682FB9
:101B80008EE090E00E94AE310895A6E0B0E0EBEC6C
:101B9000FDE00C94FF300E9436278C018091880272
:101BA000909189028017910779F019821A820E9418
:101BB0003627BC0149815A8180E090E00E9451049F
:101BC00010938902009388022696E4E00C941B315E
:101BD0000E940D11609398027093990280939A026B
:101BE00090939B0260939402709395028093960267
:101BF000909397020895089508950E94FB0D08950B
:101C00000E94EE02089581E008958BE491E10E9424
:101C100096150E94FC0D0E94FD0D08950E9411135F
:101C20000895089508950E94110E0E94120E0895BD
:101C30000E941E0D811102C00E94BC0D0E942A0D3F
:101C400080939C020E94340D9093070380930603B7
:101C50000E945B1B0E942F0D0E94D0078091F00113
:101C60000E94E80708950E942D270E94D7100E9425
:101C70000A230E9417130E945E120E94180E0E94EF
:101C800025040E945E1B0E94BA190E9433130E9411
:101C9000000E0895A6E0B0E0E0E5FEE00C94F83018
:101CA0000E94030E81110EC00E94C50D0E941113E7
:101CB0000E94AD1A0E94B81F0E9438042696EBE0DD
:101CC0000C9414310E9482128AE8A82E82E0B82E69
:101CD000750110E0F70101917F01812F0E945411DD
:101CE0001F5F1A3009F443C00817A1F380919C02CA
:101CF00081FD0E945A110E940E0EC82E00E0992408
:101D00009394802F0E945411182FF50191915F0137
:101D1000891739F1D82ED926F12CEE24E3948E2D93
:101D20008D218823B1F0CC20A1F0F9820A830E9492
:101D300036279C838B839D8291E08E2D8123811198
:101D400001C090E049815A816B817C818D810E9424
:101D50005104F394EE0CF6E0FF12E1CFF501319758
:101D600010830F5F0A3069F60E94E80D9FCF0813B9
:101D7000BDCF9ACF1F93CF93DF930E94E40FEC0166
:101D8000811522E5920708F053C0811540E59407BC
:101D900008F0DDC0803E9105F8F48D3C910508F017
:101DA000AEC0883A910580F4853A910508F099C053
:101DB0008130910521F00497813A910550F4CE01CC
:101DC000DF91CF911F910895885A91094B9708F49C
:101DD0008BC0C0E0D0E0F3CF811550E49507F8F454
:101DE000C11580E2D80708F0CBC0C83ED10538F352
:101DF000CE019A9581159F4160F78D2F0E94881022
:101E0000182FCE0199270E94E40F212F30E0322FA6
:101E10002227E901CC27DF71C82BD92BD0CF9927F6
:101E20000E94E40FCC27DF70C82BD92BD06AC7CF14
:101E3000803842E59407C8F5803652E5950708F0EA
:101E400067C0C03482E5D807B0F08C2F86958695A0
:101E5000877020E2829FC0011124C37021E030E02E
:101E6000A90102C0440F551FCA95E2F7EA01C82B29
:101E7000D92BDC68A4CFC03252E5D50708F041C0A9
:101E80008C2F8695869520E2829FC0011124C37015
:101E900021E030E0A90102C0440F551FCA95E2F7C6
:101EA000EA01C82BD92BDD688ACF803C52E5950723
:101EB00060F48F71C03AD24508F03FC090E0982F8F
:101EC0008827EC01C46FD06A7ACF805C92458097F6
:101ED00008F07FCFDC2FCC27CC27DF71C06FD06A12
:101EE0006ECFA497D0646BCFC85AD0E0CC0FDD1F63
:101EF000C958DE4F0990D881C02DD46460CFD06519
:101F00005ECFCF71D0E0DC2FCC27C16FD06A57CF26
:101F100086958695877020E2829FC0011124C37048
:101F200021E030E0A90102C0440F551FCA95E2F735
:101F3000EA01C82BD92BDA6842CF0E948810C82F3B
:101F4000D0E0DC2FCC27CC27DF71D06238CF8F7167
:101F50000E94881065E0D695C7956A95E1F7CF7025
:101F6000D0E0DC2FCC27282F30E084FF05C054E0E0
:101F7000220F331F5A95E1F7C22BD32BD0691FCF05
:101F80008D2F8F710E948810182FCE0199270E94E3
:101F9000E40F212F30E0322F222722273F71282BF8
:101FA000392BE901D2CF462F672F7A3028F44630FB
:101FB00018F40E94291C089580E090E008950E9482
:101FC000D30F0E94BA0E0895803E9105D1F1C8F456
:101FD0008133910509F47FC048F48932910509F4F1
:101FE0006FC08A32910509F47DC008958933910547
:101FF000E1F082389105C9F08533910509F45BC0A1
:102000000895843E9105D1F148F4823E910531F165
:10201000833E910541F181EE90E00895863E910561
:10202000C1F1873E9105E1F10895209106032370E7
:10203000211165C02091070323FF14C089E290E0BD
:1020400008952091060320FD43C03091070330FF1F
:1020500009C024FF4EC080E090E00895209106035F
:1020600022FDF7CF08952091060322FD45C030914F
:10207000070330FD44C024FFF5CFEDCF20910703C7
:1020800021FFF0CF8091060384FDE5CF87EE90E03D
:1020900008952091060323FFE5CF24FDDCCFF6CF82
:1020A0002091060323FD2EC03091070331FFE3CFBB
:1020B00084EE90E008952091060325FFD3CFBECF94
:1020C0002091060325FD21C02091070323FFCACFDD
:1020D00089E390E008952091060326FFC3CF8AE2AA
:1020E00090E008952091060326FFBCCF81E390E0A5
:1020F000089583EE90E0089582EE90E0089580EEDA
:1021000090E0089586EE90E0089585E390E0AACFF0
:102110009091060392FF10C041E0282F24712430D3
:1021200009F040E031E0282F2871283009F030E034
:10213000431711F02CE0822793FF10C041E0282FB5
:102140002471243109F040E031E0282F2871283132
:1021500009F030E0431711F02CE08227309107039B
:1021600030FF10C051E0282F2171213009F050E0DC
:1021700041E0282F2871283009F040E0541711F071
:1021800029E0822731FF10C041E0282F2171213141
:1021900009F040E031E0282F2871283109F030E0C3
:1021A000431711F029E0822794FD877E089510924D
:1021B00008031092090310920A0310920B0308956A
:1021C000CF92DF92EF92FF92CF93DF9300D000D0B7
:1021D000CDB7DEB76B017C010E941113811112C0D3
:1021E0000E94422769837A838B839C83C61AD70A0D
:1021F000E80AF90AC0920803D0920903E0920A03A0
:10220000F0920B030F900F900F900F90DF91CF91F2
:10221000FF90EF90DF90CF900895A4E0B0E0E3E16D
:10222000F1E10C9401310E941113882371F00E9496
:10223000422769837A838B839C8369817A818B812E
:102240009C812496E2E00C941D310E944227698310
:102250007A838B839C838091080390910903A091DA
:102260000A03B0910B0329813A814B815C81280FCD
:10227000391F4A1F5B1F29833A834B835C83DDCF61
:102280000E941113882319F00E94362708950E9496
:102290000D11CB01089580E0089508950E944D111D
:1022A00008950E94ED020895E82FF0E0E95EFC4FEA
:1022B00080810895089580EA8A95F1F7089500C015
:1022C00008950E945B11089508950E946411089575
:1022D000A5E0B0E0EEE6F1E10C94FC300E941113B1
:1022E000182F60912103882309F445C01A821982AE
:1022F000FE01339683E0DF011D928A95E9F7862F70
:1023000090E032977F01BF01895E9C4F0E9441138C
:10231000DE2C0F2D8823B9F080910C0390E045E06E
:1023200050E0B701895E9C4F0E94743121E02093F8
:102330009D02892B99F410E00E945111812F25965E
:10234000E7E00C94183180919D028823A1F385E089
:10235000D7011D928A95E9F710929D02A0910C0376
:10236000B0E0A95EBC4F85E0ED2DF02F01900D92FD
:102370008A95E1F7E1CF70E0695E7C4F80910C03B4
:1023800090E0895E9C4F0E94CA130E946511D6CFCF
:10239000F894E82FE295EF70F0E041A18F7021E012
:1023A00030E0B90102C0660F771F8A95E2F7CB01D2
:1023B000962F9095942391A392A1892B82A3789430
:1023C00008950F931F93CF93DF93C3EBD1E08991CF
:1023D0008F3F11F00E94C81181E0C83BD807B9F7C0
:1023E000CDEAD1E003EB11E089918F3F11F00E941B
:1023F000C8110C171D07C1F7DF91CF911F910F91E5
:102400000895A0E0B0E0E7E0F2E10C94FB30EC01CD
:10241000D62E062F10E0C8018D549E4F7C01FC0182
:1024200080818F3F09F445C0F894E82FE295EF7062
:10243000F0E091A18F7021E030E001C0220F8A9579
:10244000EAF7892F822B81A382A12095282322A33A
:1024500078940E945F11EDEAF1E091E0C12C819146
:102460008F3F81F0A82FA295AF70A05EB0E02C91B5
:1024700030E08F7002C0359527958A95E2F721707C
:10248000892F211180E0C82A990F81E0E33BF807EA
:1024900031F7F70180818F3F11F00E94C81161E090
:1024A000C11001C060E08D2D0E946111C00FD11FCD
:1024B000C882CDB7DEB7E8E00C94173180910401F3
:1024C0008091040190E0811101C095E09093210377
:1024D00085E0891B80930C030E94E1118AE0E7E10B
:1024E000F3E0DF01982F1D929A95E9F7EDE0F3E014
:1024F000DF011D928A95E9F785E00E94C3120E94D0
:102500004E110895AAE0B0E0E8E8F2E10C94FE3044
:102510001A821982FE01339688E0DF011D928A95A6
:10252000E9F7F12C8E010F5F1F4F6F2DC8010E943C
:102530000112F394B5E0FB12F8CF4AE050E0B80185
:102540008DE093E00E94743121E0892B99F420E022
:102550006091210370E0695E7C4F45E08DE093E07F
:102560000E94C412182F0E946811812B2A96E5E060
:102570000C941A318AE0F801ADE0B3E001900D92BD
:102580008A95E1F7E5CF0895A0E0B0E0EAECF2E14A
:102590000C94FB30D82EE92EF62ED72F042FC22F05
:1025A000222379F081E08093A0020E943627909345
:1025B0009F0280939E0280E0CDB7DEB7E8E00C94E6
:1025C0001731C090A002CC20B1F380919E0290916F
:1025D0009F020E945F27059770F310E0A8016D2D00
:1025E0007E2D8F2D9D2F0E947431892B41F0A801E3
:1025F0006D2D7E2D8F2D9D2F0E948131CC2D10921F
:10260000A0028C2FD9CFCF930E94AF30C82F811159
:1026100002C00E94AA308C2FCF9108958091A4020D
:1026200008958091A30208950E94111308950E94B5
:1026300003138093A3020E9414138093A4020E94A8
:102640000E13809304010E940E1366E0882349F064
:1026500080E00E9434160E94111381110E947713AA
:10266000089586E0F6CF0E941113811102C00E94E6
:102670007A13089581E09091A5029A3008F080E0E5
:1026800008950F931F93CF93DF93EC01162F072F1D
:102690008091A5028A3090F4612F702FCE010E94A4
:1026A000C713811121C08091A5028F3FB1F40E9410
:1026B00036279093A2028093A10209C08091A102C3
:1026C0009091A2020E945F27843F914028F780E00A
:1026D000DF91CF911F910F9108958F5F8093A50295
:1026E0008A3028F781E0F4CF1092A502FBCF0E9438
:1026F000282808950E942B280895A0E0B0E0E3E880
:10270000F3E10C94FB30FA0169017801C82F880FBE
:10271000DD0B3097B1F0DE0193E0AA0FBB1F9A9555
:10272000E1F7AB5FBE4F11968D919C9112978A5540
:102730009D4F4C9150E0E417F50708F4AF010E945B
:102740008131CE010E941629182F8823D1F0E1147F
:10275000F104B9F083E0CC0FDD1F8A95E1F7FE01AB
:10276000EB5FFE4F438150E0E416F50608F4A70145
:10277000CB5FDE4F6C817D816A557D4FC6010E9423
:102780008131812FCDB7DEB7E8E00C9417310E947C
:102790000D1508950E9431150895A8E0B0E0E3ED0D
:1027A000F3E10C94FF308091C9029091CA02A0918C
:1027B000CB02B091CC02BC01CD010E946E2711E08A
:1027C000643671058105910520F10E940D11DC012F
:1027D000CB010296A11DB11D89839A83AB83BC8373
:1027E00000E010E020E030E044E050E0BE016F5F28
:1027F0007F4F82E00E947D13182F882351F00E94A2
:1028000042276093C9027093CA028093CB029093CF
:10281000CC02812F2896E4E00C941B31A0E1B0E0BB
:10282000E4E1F4E10C94FE308E010F5F1F4FC8010C
:102830000E94E318FB848091CD029091CE02A0917A
:10284000CF02B091D002BC01CD010E946E276D87EE
:102850007E878F87988BB8018D859E85AF85B889D7
:1028600084369105A105B10510F4FF20A9F000E020
:1028700010E020E030E04CE050E083E00E947D1367
:10288000882369F00E9442276093CD027093CE02A4
:102890008093CF029093D0020E94E01881E060966E
:1028A000E5E00C941A31AAE0B0E0E9E5F4E10C941B
:1028B000F9307B01A090B801B090B90101E010E0BF
:1028C0009E012A5F3F4F40E050E060E070E080E012
:1028D0000E947D13182F882309F44DC065018FEFE6
:1028E000C81AD80A8091C5029091C602A091C70269
:1028F000B091C802BC01CD010E946E276F8378871A
:1029000089879A87643671058105910560F105E034
:1029100010E09E012F5F3F4F40E050E060E070E02C
:1029200081E00E947D13182F65E070E0C6010E94CF
:102930005F1B9E8198132AC0112341F10E944227F8
:102940006093C5027093C6028093C7029093C80239
:1029500085E0FE013196A0ECB2E001900D928A95DF
:10296000E1F781E014C065E070E0C6010E945F1BE2
:102970009E818913CCCF85E0F5013196DE01119659
:1029800001900D928A95E1F71111E2CF80E095E078
:10299000E0ECF2E0D70101900D929A95E1F72A96CA
:1029A000EAE00C941531A0E0B0E0E9EDF4E10C941C
:1029B000F930F82EE92EB62EA72E8A010E943A137E
:1029C000CC24C394D12C882319F08AE0C82ED12CB2
:1029D000C1E0D0E06B2D7A2D8F2D9E2DF801099549
:1029E000811116C02196CC16DD0694F0CC9FC00153
:1029F000CD9F900D900D112420E030E045E34A95E5
:102A0000F1F700002F5F3F4F28173907B9F7E2CFE2
:102A1000CDB7DEB7EAE00C9415310F931F93CF9337
:102A2000DF93D82FC92F8B0143E554E10E94D314C3
:102A3000811106C080E0DF91CF911F910F91089521
:102A40004DEC53E1B8018D2F9C2F0E94D3148823A5
:102A500089F34EE054E1B8018D2F9C2F0E94D314CE
:102A6000EACFACE0B0E0E7E3F5E10C94FB30FB012A
:102A70000091B8011091B901C801019625E0DC016F
:102A800001900D922A95E1F765E070E00E945F1BCE
:102A9000F80180836681778180859185C090BC0232
:102AA000D090BD02E090BE02F090BF026C157D0593
:102AB0008E059F0551F06093BC027093BD02809318
:102AC000BE029093BF020E94E0108CE0F8013A969B
:102AD000DE01119601900D928A95E1F7F801148AB2
:102AE0008B85882329F060E0CE0101960E94141A9C
:102AF0002C96E8E00C9417310E944A0E08950E942B
:102B0000CF260E941A2B0E94050E0E94342B0E9491
:102B1000330E0E94412B0E94462B0E947C150E947E
:102B2000602B0E94E8290E94130EF5CF9093D101EB
:102B30008093D0010895A0E0B0E0E1EAF5E10C94C3
:102B4000F930E82F71110DC0442321F0F0E0E05E70
:102B5000FD4F8491682F782FCDB7DEB7EAE00C9453
:102B60001531262F30E0C72FD0E0F0E0442321F0CC
:102B7000E05EFD4FE491F0E086E0829F7001839F6C
:102B8000F00C11240FEF10E0C701B8010E94BC3017
:102B9000AB01220F331F65E5649FC001659F900D57
:102BA0001124281B390BC22ECC0CC20EC8018C1B61
:102BB0009D0B8E9F90018F9F300D9E9F300D112495
:102BC000832FCC9EB001CD9E700D1124672F7727E7
:102BD0005801A61AB70AAE9ED001AF9EB00DBE9E98
:102BE000B00D11247B2F5801AC18B1086501CC9EA3
:102BF0005001CD9EB00CDC9EB00C1124AB2CBB243C
:102C00000A191B090E9FE0010F9FD00D1E9FD00DCA
:102C100011246E2F43305105C9F09CEFE91693E063
:102C2000F90650F44130510509F496CF4230510570
:102C300089F07E2F6D2F90CF4430510571F04630D2
:102C40005105B9F3632F8B2F7E2F86CF6B2F732FF8
:102C50008E2F82CF732F8D2F7FCF7D2F632FF8CFB5
:102C600041E00E949B150895E5E2F1E080836183D5
:102C700008950E9430160895CF93DF93982F762FF2
:102C8000842FE901692F0E943916798368838A832A
:102C9000DF91CF91089580912203843038F48091A0
:102CA0002203837084608093220308958830B8F7EC
:102CB00008954F925F926F927F928F929F92AF9200
:102CC000BF92CF92DF92EF92FF920F9388E090E055
:102CD0000E9492312B013C0183E290E00E948A31F4
:102CE000282F30E040E050E060E070E080E090E0CD
:102CF00000E20E94283153014201C12CD12C7601FF
:102D0000242939294A295B296C297D298E299F2963
:102D10000F91FF90EF90DF90CF90BF90AF909F907A
:102D20008F907F906F905F904F900895A0E0B0E0FB
:102D3000ECE9F6E10C94FB308901D42FC52F6B012F
:102D40007C010E944B16A8016D2F7C2F88E090E03B
:102D50000E94C03198014D2F5C2FB601C70100E2DF
:102D60000E944331622F83E290E00E94AE31CDB7E2
:102D7000DEB7E8E00C941731E2E2F3E02081318124
:102D80004281538164817581868197810E94961664
:102D90000895E2E2F3E085E0808311828FEF828381
:102DA00083831482AEEDB2E012968C911297836009
:102DB00012968C93758125E030E04FEF5FEF60E075
:102DC000868197810E94961608958091220380FF44
:102DD00003C086958695089580E00895809122032A
:102DE0008170089590912603933018F49F5F90931B
:102DF0002603882391F020912203309123034091F0
:102E0000240350912503609126037091270380913C
:102E10002803909129030E949616089581E00E944C
:102E2000F216089590912603992319F091509093EA
:102E30002603882391F020912203309123034091AF
:102E400024035091250360912603709127038091FC
:102E50002803909129030E949616089581E00E940C
:102E60001217089580912603089580932603662300
:102E700089F0209122033091230340912403509143
:102E8000250370912703682F8091280390912903CF
:102E90000E949616089560E00E943517089580916B
:102EA00023030895809124030895809125030895B4
:102EB00021E030E001C0220F8A95EAF79091E1020B
:102EC000922381E0911101C080E00895A4E2B0E076
:102ED000ECE6F7E10C94F730B090260190912203D4
:102EE00090FF3AC08090D5029090D6028114910450
:102EF00009F048C0E4E1F2E0CE010196BE016B5D4D
:102F00007F4FAC01249130E0D901AA0FBB1FA20F63
:102F1000B31FA65DBC4FCD90DD90EC90DC01CD924F
:102F2000DD92ED92CD0131966A177B0759F76B2D33
:102F300070E02091250130E0C901880F991F820FB0
:102F4000931FE091BE01F091BF01840F951F099579
:102F5000A496ECE00C941331809127014091280154
:102F6000282F30E0F901EE0FFF1FE20FF31FE65D9F
:102F7000FC4F841708F0B6CF1182108212828F5F47
:102F80003396F7CF90FFB6CFA12C8A2D0E94581709
:102F9000882309F43BC0F401E590F490E114F104B6
:102FA00009F4A8CF45E050E0B701CE0101960E9498
:102FB0005E3189818F3F51F12A8190E0280F392FAE
:102FC000311D2D30310514F02CE030E06901CC0CBE
:102FD000DD1CC20ED31E9601265D3C4F69018C019B
:102FE000000F111F080F191F065D1C4F0C151D0542
:102FF00020F035E0E30EF11CD5CF98014D816C81B6
:103000008B810E943C160D5F1F4FF0CF82E0880E2F
:10301000911CA394A8E0AA12B8CF6CCF9091220380
:1030200090FF11C09091270150912801292F30E085
:10303000F901EE0FFF1FE20FF31FE65DFC4F95173E
:1030400018F00E94661708958183608342839F5F12
:103050003396F5CFA3E0B0E0E0E3F8E10C94FD3067
:10306000F82E062F142FE22E8091220380FF40C0FD
:10307000909123039F1108C090912403961304C0DC
:1030800090912503941729F09091E002926090931B
:10309000E002E82FE695E695F0E0E654FE4F9081D9
:1030A0009093DE028C7F843069F49E012F5F3F4F46
:1030B000412F602F8F2D0E943C164B8169818A81A0
:1030C0000E940E18F092230300932403109325030B
:1030D000EE2071F020912203609126037091270366
:1030E0003F2DA80180912803909129030E949616F4
:1030F0002396E6E00C941931282FE2E2F3E0818177
:1031000043816281865F0E942A18089581E00E94AF
:103110007C180895282FE2E2F3E0818143816281E7
:103120008A500E942A18089581E00E948A18089502
:10313000282FE2E2F3E0628131E1630F08F46FEFE0
:10314000438181810E942A18089581E00E94981885
:103150000895282FE2E2F3E0628131E1631B08F475
:1031600060E0438181810E942A18089581E00E94D5
:10317000A9180895282FE2E2F3E0438131E1430FDB
:1031800008F44FEF628181810E942A18089581E03E
:103190000E94BA180895282FE2E2F3E0438131E15A
:1031A000431B08F440E0628181810E942A1808953F
:1031B00081E00E94CB18089520E00E942A1808950B
:1031C0001092E0020895CF93DF93EC0188E0E2E2F1
:1031D000F3E0DE0101900D928A95E1F78091DE0225
:1031E0009091DF02A091E002B091E1028887998777
:1031F000AA87BB87DF91CF910895EEEDF2E01182AF
:103200008281846082830895E2E2F3E080818E7F90
:1032100080830E94FD18EEEDF2E08281816082835E
:103220000E9466170895E2E2F3E020812E7F20835A
:1032300031814281538164817581868197810E94A9
:1032400096160E94FD18EEEDF2E082818160828385
:103250000E9466170895609122036695669570E056
:1032600041E050E08AE291E00E946731892B19F435
:1032700081E08093DF020E9440119093D8028093F6
:10328000D7028091E00284608093E002089520914B
:10329000220320FF35C023702460209322038091F5
:1032A000E00281608093E002662381F03091230385
:1032B00040912403509125036091260370912703C8
:1032C00080912803909129030E9496166091220311
:1032D0006695669570E041E050E08AE291E00E94D8
:1032E0006731892B71F00E94FD1881E08093DA022A
:1032F0004091250360912403809123030E94DC18F0
:1033000008950E942B19F1CF682F81E00E94471980
:10331000089581E00E9484190895682F90912203F6
:10332000969596958FEF890F913009F481E00E9470
:103330004719089581E00E948D19089561E00E9467
:1033400047190895E2E2F3E08081816080838695E9
:1033500086950E949E1908958091220380FF03C0E4
:103360000E94131908950E94A219089560E00E9416
:10337000471908958091DD02811141C00E945916BC
:103380002093220330932303409324035093250377
:103390006093260370932703809328039093290357
:1033A0008091E00283608093E0022430A0F40E94C8
:1033B000C9160E9459162093220330932303409389
:1033C000240350932503609326037093270380936F
:1033D0002803909329030E944B160E94FD18E09148
:1033E000BC01F091BD0109958091220380FF04C0CA
:1033F000869586950E94B61981E08093DD02089536
:10340000E2E2F3E0808181608083869586950E9468
:10341000B61908958091220380FF03C00E94041909
:1034200008950E94001A08951F93CF93DF93EC0133
:10343000162F8A8584FF03C09B859093E10280FF4D
:103440000EC0888180FF26C0809122038160809316
:1034500022038881612F869586950E9447198A8567
:1034600081FF06C0212F4B816A8189810E942A1821
:103470008A8582FF05C08985882379F00E942B19EF
:103480008A8583FF03C081E08093DA02DF91CF91C8
:103490001F9108950E940419E2CF0E94FD18F0CFF9
:1034A0008091DF02882309F446C08091220386952B
:1034B00086959091DE02891B8093D9028091DA0271
:1034C000882361F01092DA020E9440119093D80292
:1034D0008093D7021092DC021092DB020E9440110E
:1034E0009C018091D7029091D802A901481B590BE9
:1034F0004F3F5F4700F54091D3024423B1F0109253
:10350000D3024091D1025091D202241B350B2F3FA0
:103510003F4758F4405D5A485093D2024093D1023D
:103520002091E00228602093E0028053984F90930E
:10353000D8028093D7028091D402882361F0109240
:10354000D4028091DF02811106C08091220386950A
:1035500086950E94B619089508950E94501A0895FC
:10356000FA01882311F009950895FB01FCCF1F9300
:10357000CF93DF93EC01FB01158111114DC00E9427
:10358000EE0B8272FE01E052F847E531F10508F0DA
:1035900043C0E051FE4C0C94E4300E94AC19812FE2
:1035A000DF91CF911F9108954AE959E169E879E1E6
:1035B0000E94B01AF4CF49E859E16AE979E1F8CFFD
:1035C00044E958E166E878E1F3CF46E858E164E978
:1035D00078E1EECF46EB58E165EA78E1E9CF45EADC
:1035E00058E166EB78E1E4CF48ED58E167EC78E12B
:1035F000DFCF47EC58E168ED78E1DACF4EE257E1F2
:103600006EE077E1D5CF4EE057E16EE277E1D0CFC3
:1036100081E00E949E19C3CF11E0C1CF519A089555
:103620009C01AB016BB16D7F7BB17260EFB7F89419
:10363000CA01880F991F840F951F820F931F82174D
:10364000930741F4EFBF8FE594E00197F1F700C0D5
:1036500000000895D9014D919D0158E07BB900000B
:1036600000C047FF6BB9440F000000C000C000C09D
:103670006BB900C05A9591F7E2CF0E94170D0895DB
:1036800080E00E945411817008950E9482122FEFF1
:1036900086E791E0215080409040E1F700C00000B3
:1036A0000E9482120E94401B882321F00E943D1B31
:1036B0000E94B22708950E94451B08950895FC01B9
:1036C000680F791F8FEF91E3E617F70709F4089564
:1036D0002191822728E030E087FF08C0880F8927E2
:1036E0002150310921153105B9F7EECF880FF8CFF8
:1036F00086E0089550E0440F551F9CE0699F400DFF
:10370000511D112498E7899F400D511D1124CA01B4
:10371000889608950F931F93CF93DF938630C8F454
:103720006A30B8F44630A8F40E947A1B8C010E94DB
:103730008A31C82FD0E0DC2FCC27C80101960E9427
:103740008A319E01282BC901DF91CF911F910F91E2
:10375000089580E090E0F8CF0F931F93CF93DF930D
:10376000122F032F863078F46A3068F4463058F40C
:103770000E947A1BEC01602F0E94AE31612FCE01B6
:1037800001960E94AE31DF91CF911F910F91089564
:103790001F93CF93DF93D0E0C0E011C0412F6C2F77
:1037A0008D2F0E94F4029C01412F6C2F8D2F0E94BF
:1037B000AC1B1F5F163091F7CF5FCA3011F010E0DD
:1037C000EDCFDF5FD63041F7DF91CF911F910895A4
:1037D000EF92FF920F931F93CF93DF938C01EA0137
:1037E0007A01E60EF71ECE15DF0529F4CDB7DEB758
:1037F000E6E00C941931003D82E0180740F4C8015E
:1038000088960E948A3189930F5F1F4FECCF80E02A
:10381000FACFEF92FF920F931F93CF93DF938C0118
:10382000EA017A01E60EF71ECE15DF0529F4CDB7C1
:10383000DEB7E6E00C941931003D82E0180728F469
:103840006881C80188960E94AE3121960F5F1F4F94
:10385000EBCF863038F46A3028F4463018F40E94F2
:103860008A1B089580E090E0089580E1089588E043
:1038700091E00895EF92FF920F931F93CF93DF9300
:103880008C01EA017A01E60EF71ECE15DF0529F458
:10389000CDB7DEB7E6E00C941931083081E01807A7
:1038A00048F4C80188509D4F0E948A3189930F5F68
:1038B0001F4FEBCF80E0FACFEF92FF920F931F9351
:1038C000CF93DF938C01EA017A01E60EF71ECE1545
:1038D000DF0529F4CDB7DEB7E6E00C9419310830E6
:1038E00081E0180730F46881C80188509D4F0E941C
:1038F000AE3121960F5F1F4FEACFCF93DF93C8EF12
:10390000D2E060E0CE010E94AE312196C11584E084
:10391000D807B9F7DF91CF910895A8E0B0E0E3E9C7
:10392000FCE10C94FB30F82E2FE0281708F46FC050
:103930008FEF93E00E948A31811169C008EF12E095
:10394000F11038C01A821982FE01339686E0DF0139
:103950001D928A95E9F76801BFEFCB1ADB0AC8010F
:103960000E948A3189831A82882309F450C08130E9
:10397000D1F4780122E0E20EF11CC6010E948A31E6
:103980008A83882309F443C09FEF980F9330F8F49B
:10399000680183E0C80ED11CC7010E948A318B8365
:1039A0008823A9F11C8260E0CE0101960E944C217F
:1039B0008601D1CF011584E0180749F1C8010E94A2
:1039C0008A310F5F1F4F8111F5CFFA94B9CF843040
:1039D000B9F402E010E0C701AFEFEA1AFA0A0E9458
:1039E0008A31E1E0F0E0EC0FFD1FE00FF11F808372
:1039F000882369F08C3731F4FE01E00FF11F128249
:103A00006701D1CF0F5F1F4F0730110521F72896AF
:103A1000E8E00C941731CF93DF93EB0186319C479C
:103A200019F50E94EE0B9D819923A1F08A7A91E00D
:103A3000811101C090E09093E202882349F085E370
:103A40000E9420260E94A80C80E0DF91CF9108956B
:103A500089E2F6CF8091E202882321F085E30E947B
:103A60003726F0CF89E2FBCF81E0EFCFCF93DF9312
:103A7000EC01FB018581882309F4D2C09E013057F7
:103A80002332310508F0B2C00E94340D9093070331
:103A900080930603FE01E150F047E232F10520F485
:103AA000EB5FFD4C0C94E4308091060381608093C1
:103AB000060393C0809107038860809307038DC03D
:103AC000809106038260F3CF809106038460EFCF7C
:103AD000809106038860EBCF809107038160EDCF72
:103AE000809107038260E9CF809106038061DFCF78
:103AF000809106038062DBCF809106038064D7CF7C
:103B00000E948307809106038068D1CF80910603CD
:103B10008C60CDCF809107038360CFCF8091060367
:103B20008E7FC5CF80910703877FC7CF8091060323
:103B30008D7FBDCF809106038B7FB9CF8091060327
:103B4000877FB5CF809107038E7FB7CF8091070322
:103B50008D7FB3CF809106038F7EA9CF809106031E
:103B60008F7DA5CF809106038F7BA1CF0E94830715
:103B7000809106038F779BCF80910603837F97CF39
:103B8000809107038C7F99CF8091060382FB992750
:103B900090F921E0922790FB82F990FB83F987CF7F
:103BA00080910703982F909591708E7F892B90FBC1
:103BB00081F983CF90910603892F8F7B96FF8064D4
:103BC00076CF0E94830790910603892F97FB87F990
:103BD00080586DCF81E00E94BF0D809106039091C7
:103BE00007030E94390D0E94830780E0DF91CF9187
:103BF000089580E0F0CF90910603892F8F7E94FF87
:103C0000806155CF90910603892F8E7F90FF816050
:103C10004ECF90910703892F877F93FF88604DCF08
:103C200081E0E4CF282F35EB2303C001112497FF57
:103C300004C080589109892F089580589F4FFBCF69
:103C40008091E90280FF0DC06091300170E0660F45
:103C5000771F60387105C0F561157105B9F1862FC0
:103C6000089581FF07C06091300184E0689FB00132
:103C70001124EFCF82FF04C06091300188E0F6CFBD
:103C80008091E8028823E9F090912F016091300142
:103C900070E0891730F093E0660F771F9A95E1F78F
:103CA000D8CF869F9001879F300D112483E0220F8B
:103CB000331F8A95E1F7692F70E0C9010E94D03067
:103CC000C8CF68E070E0CBCF8FE7089581E008951A
:103CD0008091E90280FF0CC060912C0170E0759525
:103CE0006795759567956115710561F1862F089542
:103CF00081FF06C060912C0170E075956795F3CF48
:103D000060912C0170E082FD15C02091E702222312
:103D1000B1F090912B0160912C0170E0291750F4C3
:103D2000269FA001279F500D1124692F70E0CA0122
:103D30000E94D03060387105B0F28FE7089561E0DD
:103D400070E0D4CF81E008959091EC022091ED02D3
:103D5000922B2091EF02922B2091EE02922B99232D
:103D600031F098E09093E80291E09093E7028D3C67
:103D700031F40E94201E81958093ED020895E2E3C4
:103D8000E80FE231B0F5F0E0E95DFD4C0C94E43071
:103D90000E94201EF1CF0E94201E81958093EC028C
:103DA00008950E94201EFACF0E94681E8093EE02A2
:103DB00008950E94681E8195F9CF0E94681E819522
:103DC0008093EF0208950E94681EFACF815D990BDF
:103DD00021E030E001C0220F8A95EAF78091EB02E2
:103DE000822B8093EB0208958091E9028160809399
:103DF000E90208958091E9028260F9CF8091E90299
:103E00008460F5CF4091EC028D3C59F48091ED0235
:103E100087FF0DC01092ED02442359F41092E8027E
:103E200008C08E3C81F48091ED0218169CF3442367
:103E300081F08091EE029091EF02892B811159C09F
:103E40001092E70208958F3C41F447FFF0CF1092A3
:103E5000EC028091ED028823E0CF803D19F4141626
:103E6000B4F3E5CF9091EE02893D29F41916FCF6E2
:103E70001092EE02DCCF8A3D19F497FFD8CFF8CF2D
:103E80009091EF028B3D29F497FFD1CF1092EF0272
:103E9000CECF8C3D19F41916CCF3C9CF9FE2980F01
:103EA000983090F4815D990B21E030E0B90102C0B7
:103EB000660F771F8A95E2F7CB0180959091EB0210
:103EC00089238093EB02B3CF8D3D31F48091E902D9
:103ED0008E7F8093E902ABCF8E3D21F48091E90281
:103EE0008D7FF7CF8F3D09F0A2CF8091E9028B7FC4
:103EF000F0CF08950E9436272091EC023091ED0218
:103F0000232B222321F08093E5029093E602209157
:103F1000EE023091EF02232B222321F08093E30263
:103F20009093E4028AEE92E00E941625089586E0BE
:103F3000EAEEF2E0DF011D928A95E9F71092E802BD
:103F40001092E7021092E9020895FC01828181112A
:103F50000DC0838181110AC08481811107C081E075
:103F60009581911101C080E08170089581E0FCCFBE
:103F7000A6E0B0E0EEEBFFE10C94FE3086E0EAEE66
:103F8000F2E09E012F5F3F4FD90101900D928A957B
:103F9000E1F71092EC021092ED021092EE021092F4
:103FA000EF028B819C81892B8901882391F080917C
:103FB000E5029091E6020E945F279C018091E80251
:103FC0008823C9F14091310150E04217530708F4AA
:103FD0003FC08D819E81892B882399F08091E302D7
:103FE0009091E4020E945F279C018091E702882360
:103FF00009F467C040912D0150E04217530708F4BF
:104000006EC0B8018AEE92E00E946826811105C058
:104010008AEE92E00E94A51F81110E947A1F86E01D
:10402000F801AAEEB2E001900D928A95E1F726968A
:10403000E5E00C941A31409132019AE0499FA001C9
:1040400011244217530728F68F5F8093E80202C0BD
:104050008F3FD1F7FB80FF2059F00E94201E91E096
:104060001F140CF09FEF899F802D11248093EC0288
:10407000FC80FF2059F00E94201E91E01F140CF0DC
:104080009FEF899F802D11248093ED028091EC0297
:10409000882309F49ECFF090ED02FF2009F499CF18
:1040A0000E94121E811101C081E08093EC028F2DCD
:1040B0000E94121E882319F08093ED028ACF81E0BE
:1040C000FBCF40912E019AE0499FA0011124421795
:1040D000530708F096CF8F5F8093E70202C08F3FAF
:1040E000D1F7FD80FF2059F00E94681E91E01F1457
:1040F0000CF09FEF899F802D11248093EE02FE80AB
:10410000FF2059F00E94681E91E01F140CF09FEFF1
:10411000899F802D11248093EF028091EE028823E5
:1041200009F46FCFF090EF02FF2009F46ACF0E94EC
:10413000121E811101C081E08093EE028F2D0E943A
:10414000121E882319F08093EF025BCF81E0FBCF32
:10415000A0E0B0E0EEEAF0E20C94FA30E82FF0E0F4
:10416000E05EFC4FB490282F26952695269530E0EA
:10417000F901E054FC4F0491877010E0082E02C052
:10418000159507950A94E2F701701127F901E0559A
:10419000FC4FE490F12C082E02C0F594E7940A94A9
:1041A000E2F791E0E922FF24F901E056FC4FC491C7
:1041B000D0E002C0D595C7958A95E2F7C170DD279A
:1041C000C62ED12C0115110549F5E114F10431F089
:1041D00086EE0E949404C601009771F5B6018B2DFE
:1041E0000E940F05C601009779F5E114F104A1F5CD
:1041F0000115110531F081EE0E94DC04C601009723
:10420000C9F5CD2B31F08CE20E942705C114D104F1
:10421000C9F5CDB7DEB7E9E00C94163181EE0E9406
:104220009404C601009789F2EFE9FFE03197F1F7B6
:1042300000C000000197F6CFEFE9FFE03197F1F7FA
:1042400000C000000197C8CFEFE9FFE03197F1F718
:1042500000C000000197C7CF86EE0E94DC04C601B3
:10426000009731F2EFE9FFE03197F1F700C000006D
:104270000197F6CFEFE9FFE03197F1F700C00000BA
:104280000197BDCF8FE99FE00197F1F700C00000D3
:1042900091E0C91AD108BACFEF92FF921F93CF9342
:1042A000DF93EC01162F8881882309F45AC08130EE
:1042B00009F053C08981813071F47E0182E0E80EFB
:1042C000F11C8A810E942705E701812F90E0009769
:1042D000E1F52196E8CF823041F47E01E2E0EE0E76
:1042E000F11C8A810E949404EFCF833041F47E0157
:1042F000F2E0EF0EF11C8A810E94DC04E5CF8430ED
:1043000011F02196E2CF2A81229680E090E06AE0C7
:10431000AE014F5F5F4F2053330B2A30310550F011
:10432000009799F2EFE9FFE03197F1F700C0000044
:104330000197F6CF689FF001699FF00D1124C90124
:104340008E0F9F1F2981EA01E3CFEFE9FFE031974C
:10435000F1F700C000000197BACF612F0E94A8209A
:10436000B8CFDF91CF911F91FF90EF9008950F93F9
:104370001F93CF93DF93C42FD22FFC018581882315
:10438000C9F04093F2020E9436279093F102809385
:10439000F00280E28C0F883040F4C77081E001C0E9
:1043A000880FCA95EAF70E943005DF91CF911F91DF
:1043B0000F9108951091F20214133CC08091F00205
:1043C0009091F1020E945F27883C910598F5C0E228
:1043D000CD0F1D1741F180E2810F883040F4177036
:1043E00081E001C0880F1A95EAF70E943705C830AE
:1043F00020F0802F0E942705D8CF91E08D2F877065
:1044000001C0990F8A95EAF7892F0E943005802F05
:104410000E942705D77081E001C0880FDA95EAF77E
:104420000E943705C2CF802F0E942705C83008F0B0
:10443000BCCFF0CF80E28C0F883008F0B6CFC770C9
:1044400081E001C0880FCA95EAF7EACF0F93FC011B
:10445000CB01E851FC47E730F10590F5E75CFD4CF6
:104460000C94E43006E221EE41EE6AE17CE70E9422
:10447000B72180E00F91089507E225EE45EE6BE14C
:104480007CE7F5CF06E221EE40EE68E17CE7EFCF76
:1044900007E225EE44EE69E17CE7E9CF06E221EE92
:1044A00042EE6CE17CE7E3CF07E225EE46EE6DE1FC
:1044B0007CE7DDCF08E221E045EE6EE17CE7D7CF77
:1044C000FB01858181111092F20281E0D3CFCF935D
:1044D000DF939C01FB0127378CE7380739F0283739
:1044E0003C47F1F081E0DF91CF91089585818823E9
:1044F00091F00E9499220E94FD070E949F22D82FCE
:104500000E949C22C82F0E9499224D2F6C2F0E943E
:104510002F0980E0E8CF0E9499220E940908EDCF80
:104520008581882319F00E949C22E5CF0E949C225D
:10453000F4CF8091350108958091340108958091E0
:104540003301089584E290E00E948A31843289F434
:1045500085E290E00E948A31883059F486E290E04A
:104560000E948A3191E0853009F090E0892F8170B6
:10457000089580E0FCCF882381F064E284E290E03B
:104580000E94AE3168E085E290E00E94AE3165E0C5
:1045900086E290E00E94AE3108956FEF84E290E0F1
:1045A0000E94AE316FEF85E290E00E94AE316FEF76
:1045B000EFCF0895A4E0B0E0E0EEF2E20C94013118
:1045C00087E290E00E948A31282F30E040E050E0FE
:1045D000CA01B9012496E2E00C941D310895CF93ED
:1045E000C62F0E94EE226C2F87E290E00E94AE312F
:1045F000CF91089580E00E94BB2260E070E0CB0183
:104600000E94EF220E94C81B0E947D1C81E00E9434
:10461000BB2208950E94D9220E94DA220E94EE2233
:104620000E94A222811102C00E94FA2208950E94D3
:104630000A1A08959C01FB018581882351F0A90184
:1046400057574038510530F4822F0E948D1C80E06E
:10465000089581E008952FEFFC012083089580E004
:104660000895CF93DF93EC0188818330F1F038F423
:10467000813071F0823081F0DF91CF9108958430E4
:10468000D9F70E944F1789830E9452178A83F4CF6B
:104690000E9455178983F0CF0E94EE16882319F0E7
:1046A0000E94E516F7CF80E0F5CF0E943217F2CFD7
:1046B000CF93DF93EC018881833039F138F4813076
:1046C00069F08230B1F0DF91CF9108958430D9F74D
:1046D0000E945517482F6A81898108C0D9810E949C
:1046E0005217C82F0E944F174D2F6C2F0E94DC18B5
:1046F000EACF8981811103C00E940419E4CF0E948E
:10470000001A89810E94B619DECF89810E944B1759
:10471000DACFFC019C012E5F3F4F9081983041F031
:10472000993051F0973059F4C9010E9458230895E7
:10473000C9010E94312308950E94BC1608958FEF8D
:1047400080830895FC012181223019F40E9489237D
:1047500008950E942B230895CF92DF92FF920F932A
:104760001F93CF93DF93CDB7DEB72E970FB6F89494
:10477000DEBF0FBECDBF8D839E83F62E8D819E81C1
:104780000E942F23811115C0AD81BE81EC91E150B3
:10479000E33140F5F0E0E05CFD4C0C94E430ED8159
:1047A000FE8111828CE082836F2D8D819E810E941B
:1047B000DE292E960FB6F894DEBF0FBECDBFDF9177
:1047C000CF911F910F91FF90DF90CF900895AD8111
:1047D000BE8111968C91833099F148F4813081F03B
:1047E0008230E9F08FEFAD81BE818C93DDCF8430D4
:1047F000C9F7ED81FE811282138214821582D4CF13
:104800000E9442270E94EA306F83788789879A87BF
:10481000ED81FE816283738384839583C5CF0E947B
:10482000DA220E94EA306B877C878D879E87AD8174
:10483000BE8112966D937D938D939C931597B4CF03
:10484000ED81FE81028110E06F01F3E0CF0ED11CFB
:104850000A3011050CF0A8CF802F0E945411D60108
:104860008D936D010F5F1F4FF3CFED81FE8181812D
:10487000823049F0853009F0B5CFED81FE8182812B
:104880000E94172391CFAD81BE8112968D919D918B
:104890000D90BC91A02D89839A83AB83BC83BC010E
:1048A000CD010E94EA300E94EF227ECFAD81BE8111
:1048B00013964C91139712966C91129711968C91B6
:1048C0000E948A1B982789279827ED81FE8195836E
:1048D00084836ACFAD81BE8114962D913C9115974A
:1048E00032272327322713964C91139712966C91F7
:1048F000129711968C910E94AC1B56CF0E94C81B38
:1049000053CF6F2D8D819E810E94A2234DCF0E9497
:10491000351CED81FE81818347CF0E94371C98278B
:1049200089279827AD81BE8112969C938E9311970B
:104930003BCFED81FE81638170E081819281AF0187
:104940004C5F5F4F9827892798270E943A1C2CCFED
:10495000AD81BE8113966C91139770E011968D9185
:104960009C911297AD014C5F5F4F9827892798273C
:104970000E945C1C19CF0E947D1C16CF0E94781BE0
:10498000C8CFAD81BE8113966C91139770E01196DC
:104990008D919C911297AD014C5F5F4F98278927AD
:1049A00098270E94E81B00CFED81FE81638170E0B3
:1049B00081819281AF014C5F5F4F982789279827AB
:1049C0000E94091CF1CE9093F9028093F802089599
:1049D0000E941113811103C08091F3020895E091A8
:1049E000F802F091F902309729F00190F081E02D62
:1049F0000995089580E00895E091F802F091F90298
:104A0000309721F00280F381E02D09950895DC01B3
:104A1000E091F802F091F902309739F086E08C933A
:104A20000480F581E02DCD0109950895DC01E09128
:104A3000F802F091F902309739F082E08C93068009
:104A4000F781E02DCD0109950895A3E0B0E0EBE2F8
:104A5000F5E20C9401319C018091F6029091F702ED
:104A600082179307A1F03093F7022093F602E091AA
:104A7000F802F091F902309751F083E089833B838B
:104A80002A830084F185E02DCE01019609952396B5
:104A9000E2E00C941D31A3E0B0E0E1E5F5E20C9416
:104AA00001319C018091F4029091F50282179307E5
:104AB000A1F03093F5022093F402E091F802F09116
:104AC000F902309751F084E089833B832A83008484
:104AD000F185E02DCE01019609952396E2E00C9434
:104AE0001D3120910201309103012E5F3F4F8091D3
:104AF00040018823A9F08091060387FF11C020910F
:104B00000001309101012E5F3F4F9DE180E0F901EE
:104B100040812F5F3F4F41118F5F9150C0F7089543
:104B200095E0F4CF882321F190914001992311F170
:104B30009091060397FF1EC0982F9695969596958F
:104B4000803FB0F4E0910001F0910101E90FF11D07
:104B5000228130E0877041E050E0BA0102C0660F68
:104B6000771F8A95E2F72623372381E0232B91F4E0
:104B700080E008952091020130910301F9013296FD
:104B8000285F3F4F9191981721F0E217F307D1F773
:104B9000EFCF81E008959C01FC0132968FEF90E009
:104BA0004191461751F08F3F19F4411101C0892FEF
:104BB0009F5F9630A9F78F3F09F40895280F311DA4
:104BC00087FD3A95F901628308959C01FC013296B4
:104BD000285F3F4F8191861303C0DF0111971C921C
:104BE000E217F307B9F70895FC01862F869586959D
:104BF0008695603F60F4E80FF11D677021E030E0BA
:104C000001C0220F6A95EAF78281822B8283089580
:104C1000FC01862F869586958695603F80F4E80F87
:104C2000F11D677081E090E09C0102C0220F331FEC
:104C30006A95E2F7B90160958281682362830895DD
:104C4000682F80914001882359F08091060387FFE7
:104C500007C080910001909101010E94F425089500
:104C600080910201909103010E94CB250895682F45
:104C700080914001882359F08091060387FF07C087
:104C800080910001909101010E9408260895809171
:104C90000201909103010E94E52508958091400151
:104CA000882379F08091060387FF0BC0E091000113
:104CB000F091010132968EE1DF011D928A95E9F7AC
:104CC0000895E0910201F0910301329686E0F4CF5D
:104CD000DC01FB0111969C9111978181981322C0F0
:104CE00012968C911297882319F0928189131AC019
:104CF00013968C911397882319F09381891312C00E
:104D000015968C911597882319F0958189130AC0FF
:104D100014969C91992321F081E02481291303C0EA
:104D200080E001C081E08170089508950E94952679
:104D300008958F5F8093FA020E949626089583E07B
:104D40008093FA020E94962608950E94992608955B
:104D500081E08093FA020E94962608950E94A82678
:104D60000895089508950E94B2260895089508951B
:104D70000E94B1260895CF930E94B6260E94821207
:104D80000E94B726C0E08C2F0E945411811105C0EB
:104D9000CF5FCA30C1F7CF91089581E0FCCF85B7CE
:104DA000806885BF85B7806885BF08951F921FB64C
:104DB0001F9211248F939F93AF93BF938091FB0217
:104DC000811113C080914E0390914F03A091500325
:104DD000B09151034196A11DB11D80934E03909354
:104DE0004F03A0935003B0935103BF91AF919F9194
:104DF0008F911F901FBE1F9018958091560384308D
:104E000031F10E9408041092FB0288E190E020E456
:104E10000FB6F894A895809360000FBE20936000B1
:104E200083B7817F846083BF83B7816083BF7894B9
:104E3000889583B78E7F83BF0FB6F894A89580912D
:104E40006000886180936000109260000FBE08953A
:104E50000E9483070E940D04089582E084BD93E0C0
:104E600095BD9AEF97BD80936E0008952FB7F89483
:104E700080914E0390914F03A0915003B091510344
:104E80002FBF0895A4E0B0E0E8E4F7E20C9401310C
:104E90008FB7F89420914E0330914F034091500307
:104EA0005091510329833A834B835C838FBF69817F
:104EB0007A818B819C812496E2E00C941D319C01C7
:104EC0004FB7F89480914E0390914F03A0915003F7
:104ED000B09151034FBF821B930B0895A4E0B0E043
:104EE000E4E7F7E20C94FF30462F572FBC012FB7B1
:104EF000F89480914E0390914F03A0915003B0918C
:104F000051032FBF8C019D01041B150B260B370B82
:104F1000C901B8012496E4E00C941B3178941F92E7
:104F20001FB61F9211248F939F93AF93BF938091CD
:104F30004E0390914F03A0915003B09151030196FD
:104F4000A11DB11D80934E0390934F03A093500376
:104F5000B0935103BF91AF919F918F911F901FBE4E
:104F60001F90189587E797E79093010880930008B2
:104F700088E19AE00FB6F894A895809360000FBE80
:104F800090936000FFCF88E19AE00FB6F894A8955F
:104F9000809360000FBE90936000FFCF8EE1489B2E
:104FA00003C081508111FBCF489BFECF08955898D4
:104FB00080E28A95F1F7589A0895FC012BE02A9532
:104FC000F1F728E090E080E031E040E14A95F1F728
:104FD000880F489B02C08160932742E04A95F1F711
:104FE000000040E14A95F1F721502111EECF20E178
:104FF0002A95F1F729B132E03A95F1F7000040E146
:105000004A95F1F7217092272081920F908308959D
:10501000A1E0B0E0EEE0F8E20C94FD3019828C01E2
:105020007C01E60EF11C0E151F0541F481E099810B
:10503000911180E02196E6E00C9419310E94CE2770
:10504000CE0101960E94DD27F80181938F01EBCFFD
:10505000509A589A08955098589AE89AE9E6F0E0DC
:1050600080818C7F808308956150770B91E001C02F
:10507000990F6A95EAF7692F90E021E0611108C065
:10508000992399F0589A80E28A95F1F758980895F3
:10509000362F3823332339F0589A922730E23A9545
:1050A000F1F76695EBCF5898F9CF5898ECCFFF926F
:1050B0000F931F93CF93DF93EC018C01060F111D0B
:1050C000C017D10729F4CDB7DEB7E5E00C941A314B
:1050D000F9900E94D72768E08F2D0E943428F0CFE6
:1050E0001F920F920FB60F9211240F931F932F93BD
:1050F0003F934F935F936F937F938F939F93AF9360
:10510000BF93EF93FF93CF93DF930F92CDB7DEB7AB
:1051100019820E94CE27CE0101960E94DD27082F1A
:10512000069506950695982F92959570202F2570D7
:10513000920F292F237096959695920F9827977026
:105140008981892B81115CC0053008F059C080E14C
:105150008A95F1F7589A509A82E08A95F1F700C043
:10516000589888E0089F80011124D801AB5FBE4F9A
:105170001696ED91FC9117973097A9F06091B801C0
:105180007091B90114962D913C911597260F371FF8
:1051900011968D919C911297680F791F13964C91DF
:1051A00013978C910995F801EB5FFE4F638166239D
:1051B00051F02091B8013091B90184819581820F1D
:1051C000931F0E9457280E94D72780E18A95F1F704
:1051D00058985098589A80E18A95F1F7F801EB5F5A
:1051E000FE4F6081662351F02091B8013091B901E2
:1051F00081819281820F931F0E9408280E94CE27EE
:105200000F90DF91CF91FF91EF91BF91AF919F915F
:105210008F917F916F915F914F913F912F911F914E
:105220000F910F900FBE0F901F9018950F931F9323
:10523000CF93DF938C0105970CF065C0F894509ADA
:10524000589885E08A95F1F70000C02FC695C57083
:10525000802F8570C80F8C2F8370C695C69593E0FC
:10526000000F111F9A95E1F7C80FC8018C2BEC01B4
:105270000E94D72700C068E08C2F0E94342890E15C
:105280009A95F1F75098589A489B35C087E090E07E
:10529000489933C0F801EB5FFE4F6381662361F0EC
:1052A0002091B8013091B90184819581820F931FBB
:1052B0000E940828882321F10E94CE2780E28A9547
:1052C000F1F75898509A90E19A95F1F7F801EB5F51
:1052D000FE4F6081662351F02091B8013091B901F1
:1052E00081819281820F931F0E9457280E94D727A5
:1052F000789481E009C000C0C7CF0197009749F4B6
:10530000509A589A789480E0DF91CF911F910F9135
:10531000089500C0BDCF809104030895282FCB01CC
:10532000BA01309156033430E1F42F702093E90034
:105330002FEF3091E80035FD07C035ED3A95F1F7D4
:10534000000021502111F5CF2091E80025FF09C070
:1053500040E050E00E94D92B8091E8008E77809346
:10536000E8000895BC0143E050E084E00E948E29EB
:105370000895BC0146E050E084E00E948E29089523
:10538000BC0140E250E084E00E948E290895CF9352
:10539000DF93D82FC92F48E050E0682F792F81E0A4
:1053A0000E948E2988E0ED2FFC2FACEFB2E0019037
:1053B0000D928A95E1F7DF91CF910895792F6032B0
:1053C00031F440E250E0682F82E00E948E29089577
:1053D000A0E2B0E0EEEEF9E20C94013180915603C8
:1053E000843081F483E08093E9008091E80082FFBB
:1053F00009C08091E80085FD09C08091E8008B77A5
:105400008093E800A096E2E00C941D3140E050E06B
:1054100060E270E0CE0101960E94282C8091E800A5
:105420008B778093E80060E2CE0101960E94AC2366
:10543000E9CF80915503811109C00E94B02D0E94CF
:105440000D2E8091E20084608093E2000895109216
:10545000550308950E94A82608956091520381E0A3
:10546000611101C080E00E949F260895909156032B
:1054700081E0943009F080E0609152030E94A526FB
:10548000089542E061EC81E00E942C2D42E261EC43
:1054900084E00E942C2D42E261EC82E00E942C2DDF
:1054A00042E260EC83E00E942C2D9091560381E053
:1054B000943009F080E0609152030E94992608958B
:1054C00080915803893089F148F4823009F4A1C0F1
:1054D000833009F45BC0813041F008958A3009F4CB
:1054E00088C08B3009F46DC0089580915703813ACC
:1054F00009F04BC08091E800877F8093E80080919D
:105500005B0390915C03892B61F060E080E090E0A8
:1055100070E00E94772C8091E8008B778093E80000
:10552000089568E08CEF92E0F3CF809157038132C9
:1055300061F580915B0390915C038D7F892B29F548
:105540008091E800877F8093E8008091E80082FFE7
:1055500018C09091F3008091F200029731F480918D
:10556000F100813011F0863021F48091F1008093B8
:1055700004038091E8008B778093E8000E94602DFF
:1055800004C0809156038111E0CF089580915703A4
:10559000813AD9F780915B0390915C03892BA9F73D
:1055A0008091E800877F8093E8008091E80080FF89
:1055B000FCCF809140018093F1008091E8008E77CC
:1055C000DBCF80915703813201F780915B0390918B
:1055D0005C03892BD1F68091E800877F8093E800F7
:1055E0000E94602D80915903809340010E9483079F
:1055F000089580915703813241F68091E800877FBA
:105600008093E8000E94602D80915A0380930503E7
:10561000089580915703813A09F0B7CF8091E8004F
:10562000877F8093E8008091E80080FFFCCF809125
:105630000503C1CF84B7877F84BF0FB6F894A895C0
:1056400080916000886180936000109260000FBEBE
:1056500080E890E00FB6F894809361009093610029
:105660000FBE0E94AE2608950E94B02D0E940D2EFE
:10567000E2EEF0E080818460808378940E94903034
:10568000089586E391E00E94E324089580915603F3
:10569000853031F480915603853019F00E94282717
:1056A00008950E94FD2680915403882399F30E9457
:1056B000BB26882379F30E94C32B0E948307EACF7D
:1056C00008959A0140915D0350915E030E94692BF9
:1056D0000895AC01CB01D901252F332723303105A3
:1056E00021F168F42130310509F443C0223031053D
:1056F00009F444C080E090E020E030E024C0213292
:10570000310551F122323105A9F78330910590F727
:10571000FC01EE0FFF1FED53FE4F208131818054BD
:105720009E4FFC01808190E00EC0CA019927413054
:1057300069F08230910569F0EEE0F4E0892BD1F652
:10574000849190E09F012D933C930895E4EFF3E062
:10575000F7CFE0EDF3E0F4CF8330910558F6FC018C
:10576000EE0FFF1FE753FE4F2081318189E090E06B
:10577000EACF82E190E02DE634E0E5CF8BE590E0E2
:1057800022E134E0E0CF80E189BD82E189BD09B446
:1057900000FEFDCF8091D8008F7D8093D80080914E
:1057A000E00082608093E0008091E00081FDFCCF0A
:1057B0000895AF92BF92CF92DF92FF920F931F9303
:1057C000CF93DF936C01EB018A010E947F2DF82EAD
:1057D000811123C00115110539F0F80180819181F3
:1057E000C81BD90BC80ED91EA12CB12C2097A9F02B
:1057F0008091E80085FD22C08091E8008E7780933B
:10580000E80001151105A1F0F801808191818A0D50
:105810009B1D9183808385E0F82E8F2DDF91CF91A2
:105820001F910F91FF90DF90CF90BF90AF900895A0
:105830000E947F2D8823E1F2F82EEFCFF6018191AF
:105840006F018093F1002197FFEFAF1ABF0ACECF0F
:10585000AF92BF92CF92DF92FF920F931F93CF939D
:10586000DF936C01EB018A010E947F2DF82E8111DC
:1058700023C00115110539F0F80180819181C81B01
:10588000D90BC80ED91EA12CB12C2097A9F080915C
:10589000E80085FD22C08091E8008B778093E800C6
:1058A00001151105A1F0F801808191818A0D9B1DE0
:1058B0009183808385E0F82E8F2DDF91CF911F910A
:1058C0000F91FF90DF90CF90BF90AF9008950E940E
:1058D0007F2D8823E1F2F82EEFCF8091F100F601C1
:1058E00081936F012197FFEFAF1ABF0ACECFFC0162
:1058F0009B0180915D0390915E038617970718F0D6
:10590000672B61F0C90140E0009771F441110CC0B0
:105910008091E80082FF35C080E008958091E80022
:105920008E778093E800EECF209156032223A9F1D1
:105930002530A9F12091E80023FD2DC02091E80039
:1059400022FDE6CF2091E80020FFDECF3091F3006A
:105950002091F200009719F02830310558F041E00D
:105960002830310509F040E02091E8002E7720939F
:10597000E800CACF41914093F10001972F5F3F4F5C
:10598000E9CF80915603882341F0853041F0809122
:10599000E80083FFBDCF81E0089582E0089583E0B1
:1059A0000895FC019B0180915D0390915E03861731
:1059B000970718F0672B61F0C90140E0009771F478
:1059C00041110CC08091E80082FF36C080E008954C
:1059D0008091E8008E778093E800EECF2091560307
:1059E0002223B1F12530B1F12091E80023FD2EC032
:1059F0002091E80022FDE6CF2091E80020FFDECFD5
:105A00003091F3002091F200009719F02830310511
:105A100058F041E02830310509F040E02091E800DD
:105A20002E772093E800CACF44914093F10031963D
:105A300001972F5F3F4FE8CF80915603882341F0B5
:105A4000853041F08091E80083FFBCCF81E008956C
:105A500082E0089583E00895982F973028F08F70A2
:105A60008093E90081E008959093E900242F762F38
:105A700050E0981731F07091EC002091ED005091BA
:105A8000F00021FD02C09F5FE8CF3091EB003E7F28
:105A90003093EB003091ED003D7F3093ED0030917D
:105AA000EB0031603093EB007093EC002093ED003D
:105AB0005093F0002091EE0027FDE5CF80E008959F
:105AC0008091570387FF13C08091E80082FF06C0D2
:105AD0008091E8008B778093E80004C080915603A2
