:100000000C9492030C9471280C94AF030C94AF03DE
:100010000C94AF030C94AF030C94AF030C94AF0398
:100020000C94AF030C94AF030C94972D0C946A2E90
:100030000C94D7260C94AF030C94AF030C94AF032D
:100040000C94AF030C94AF030C94AF030C94AF0368
:100050000C94AF030C948F270C94AF030C94AF0354
:100060000C94AF030C94AF030C94AF030C94AF0348
:100070000C94AF030C94AF030C94AF030C94AF0338
:100080000C94AF030C94AF030C94AF030C94AF0328
:100090000C94AF030C94AF030C94AF030C94AF0318
:1000A0000C94AF030C94AF030C94AF0329001E0013
:1000B0001F002000210022002B0014001A0008005D
:1000C00015001700390004001600070009000A0097
:1000D000E1001D001B00060019000500E000E30020
:1000E000E200245222522C00230024002500260086
:1000F00027002A001C0018000C0012001300310019
:100100000B000D000E000F00330034001100100032
:1001100036003700520028002C00215238005000D1
:1001200051004F0001000100010001000100010029
:1001300001000100010001000100A900010001000F
:10014000010001000100AA000100010001000100FE
:100150000100010001000100010001002352010023
:10016000010001000100010001004C00010001003C
:100170000100010001000100010001000100010077
:100180000100010001000100010001000100010067
:10019000010001000100010001000100007C0100DC
:1001A0000100010001000100010001000100010047
:1001B0000100010001000100010001000100010037
:1001C0000100010001000100010001000100010027
:1001D00001000100010001000100010001002602F0
:1001E00027024C000100010001002F023002010033
:1001F00001002E022D002F003000010001002E0012
:100200002D023602370201000100235201000100D5
:1002100001000100007C297825782778217823784F
:1002200001002A78267828782278247801000100B5
:10023000010001002178010001000100010001001E
:1002400001000100010001000100010001000100A6
:100250000100010001000100010001000100010096
:100260000100010001000100010001000100010086
:100270000100010001000100010001000100010076
:100280000100010001000100010005523A003B009D
:100290003C003D003E003F00010001000100010064
:1002A0000100010001000100010001000100010046
:1002B0000100010001000100010001000100010036
:1002C0000100010001000100400041004200430024
:1002D000440045000100010001000100010001008F
:1002E0000100010001000100010001000100010006
:1002F00001000100010001000100010001000100F6
:100300000100010029004A004B00407E417E00525E
:1003100022024D004E00447E457E01004C0001004B
:100320001600070028000100E1001D011C01060164
:1003300019010100E000427E437E467E477E0100B7
:1003400001000100010001000100010001000100A5
:100350000100010001000100010001000100010095
:100360000100010001000100010001000100010085
:100370000100010001000100010001001E0F057FC6
:100380003F1F643214643214783C1E1E140A052286
:1003900023252628292A2C2D2F3032333536383A7A
:1003A0003B3D3E4042434547494A4C4E50515355D0
:1003B00057595A5C5E6062646668696B6D6F7173F1
:1003C0007577797B7D7F81838587898A8C8E9092F2
:1003D0009496989A9C9E9FA1A3A5A7A8AAACAEAFFD
:1003E000B1B3B4B6B8B9BBBCBEBFC1C2C3C5C6C742
:1003F000C9CACBCCCDCED0D1D2D2D3D4D5D6D7D7F3
:10040000D8D9D9DADADBDBDBDCDCDCDCDCDDDDDD3A
:10041000DDDCDCDCDCDCDBDBDBDADAD9D9D8D7D736
:10042000D6D5D4D3D2D2D1D0CECDCCCBCAC9C7C6E3
:10043000C5C3C2C1BFBEBCBBB9B8B6B4B3B1AFAE21
:10044000ACAAA8A7A5A3A19F9E9C9A9896949290C7
:100450008E8C8A89878583817F7D7B79777573719F
:100460006F6D6B6968666462605E5C5A595755537C
:1004700051504E4C4A4947454342403E3D3B3A3835
:1004800036353332302F2D2C2A29282625232200D9
:100490000102030405060708090A0B000101010116
:1004A000010101010102020202020202020203032F
:1004B00003030303030304040404040404050505FF
:1004C00005050606060606070707070708080808C1
:1004D000090909090A0A0A0B0B0B0C0C0C0D0D0D6E
:1004E0000E0E0E0F0F0F1010111111121213131404
:1004F00014151516161717181819191A1A1B1B1C7C
:100500001D1D1E1E1F2020212222232424252626D5
:10051000272829292A2B2C2D2D2E2F30313232330A
:100520003435363738393A3B3C3D3E3F4041424313
:100530004445464748494A4C4D4E4F5051535455F7
:100540005658595A5B5D5E5F616264656668696BA7
:100550006C6D6F7072737577787A7B7D7E80828325
:100560008587888A8C8E8F91939596989A9C9EA069
:10057000A2A3A5A7A9ABADAFB1B3B5B7BABCBEC076
:10058000C2C4C6C9CBCDCFD1D4D6D8DBDDDFE2E43F
:10059000E7E9EBEEF0F3F5F8FAFDFF2203680061FE
:1005A000006E006400770069007200650064002F2F
:1005B000006200690062006100360030000000182F
:1005C00003440061006E00690065006C0020004279
:1005D0000069006200610000000403090409023B95
:1005E00000020100A0FA0904000001030101000952
:1005F00021110100012244000705810308000109BF
:10060000040100010300000009211101000122B6CC
:10061000000705820320000112010002000000080B
:10062000EDFE000000010102000105010902A10127
:1006300085020901A10005091901290815002501F4
:100640009508750181020501093009311581257F61
:1006500095027508810609381581257F9501750871
:100660008106050C0A38021581257F9501750881E0
:1006700006C0C005010980A101850319012AB70040
:10068000150126B700950175108100C0050C090100
:10069000A101850419012AA002150126A0029501D5
:1006A00075108100C005010906A10185060507191D
:1006B000E029E71500250195087501810205071954
:1006C0000029EF1500250195F07501810205081933
:1006D000012905950575019102950175039101C0E8
:1006E00005010906A101050719E029E71500250103
:1006F00095087501810295017508810105071900AA
:1007000029FF150026FF00950675088100050819C8
:1007100001290515002501950575019102950175C1
:10072000039101C011241FBECFEFDAE0DEBFCDBFC1
:1007300011E0A0E0B1E0E6E6F5E602C005900D921A
:10074000A23EB107D9F723E0A2EEB1E001C01D92AD
:10075000A93BB207E1F70E9407170C942E320C94C4
:1007600000000895DB01FC01E054FE47E830F1058C
:1007700008F067C0E05DFD4C15969C910C948B30A1
:10078000992351F080EE0E94130686EE0E94130614
:100790008FE50E94130609C08FE50E945B0686EE76
:1007A0000E945B0680EE0E945B0680E0089599231C
:1007B00041F080EE0E94130686EE0E94130689E542
:1007C000E8CF89E5EACF992329F080EE0E9413064D
:1007D00087E5DFCF87E5E4CF992329F080EE0E94FB
:1007E000130686E5D6CF86E5DBCF992341F080EE70
:1007F0000E94130686EE0E94130681E6CACF81E6A8
:10080000CCCF992341F080EE0E94130686EE0E9421
:1008100013068BE5BECF8BE5C0CF80EE911108C0EB
:100820008AE0BECF992341F080EE0E94130681EE4C
:100830000E9413068AE0ADCF8AE00E945B0681EE3B
:10084000AFCF81E008950E94301E81E00E942C1EEF
:100850000895CF93DF93D82FC92F0E946D05833061
:1008600031F188F48130D1F08230D1F04FEF6FEF69
:100870008AE60E94741A85E10E942C1E8D2F9C2FFF
:10088000DF91CF9108958430A1F08530A1F040E050
:1008900060E080E00E94741A81E0EECF86E0ECCF49
:1008A0004FEF6FEF8BE20E94741A8FE0E5CF89E083
:1008B000E3CF83E2E1CF89E1DFCF8630B8F46A305D
:1008C000A8F4463098F4E42FF0E096E0699FE00D3C
:1008D000F11D11249CE3899FE00DF11D1124EE0F01
:1008E000FF1FE455FF4F85919491089581E090E0BA
:1008F00008950E945D04089581E008950E947C049B
:10090000089581E008950E94B203089508950E9419
:1009100086040895A6E0B0E0E0E9F4E00C94D1305C
:1009200049835A839E833091E90189819A813111EB
:100930001AC03E81332399F0222389F00E945B0A7A
:10094000182F682F89819A810E94370A69817A81DC
:10095000812F0E945B112696E3E00C94ED300E94FB
:10096000490A182FF3CF0E945B0A69817A81F1CF7F
:10097000FC01262F408151816281738184819581A0
:100980000E948A040895CF93DF93D82FC92F61E086
:100990000E94B8046D2F7C2F0E947E04DF91CF91BE
:1009A0000895CF93DF93D82FC92F60E00E94B80439
:1009B0006D2F7C2F0E948704DF91CF91089581E0F5
:1009C00008950E94DF040895CF93C82F0E940C0958
:1009D0008C2F0E94E1042FEF84E39CE021508040A3
:1009E0009040E1F700C00000CF91089581E00E949F
:1009F000E4040E94B327089580E00E94E4040E946A
:100A0000C42708950F931F93CF93DF938C0161E068
:100A10000E94B804EC01F801858181110E94A01F99
:100A2000B801CE010E9483048823E1F1B801CE0110
:100A30000E94A3248823B1F1B801CE010E94C220F4
:100A4000882381F1B801CE010E949720882351F1BB
:100A5000B801CE010E94C01F882321F1F8018581D1
:100A6000882381F0CA35FCE7DF0739F178F4C1301B
:100A7000ECE7DE07F9F0C330FCE7DF07C9F0C1158A
:100A8000DC4771F0C8010E9481040DC0CB35ECE752
:100A9000DE07B1F0CC35DC47A9F70E948F0EF2CF0C
:100AA0000E94F60480E0DF91CF911F910F9108958D
:100AB0000E94A10E0E94FC04F5CF0E94990EE2CF85
:100AC0000E949D0EDFCF0E94B4260E94AE050895BD
:100AD0000E94B2050E94B92608959C01892F99278A
:100AE0000097E9F09C0188E0A90174E056954795CC
:100AF0007A95E1F74115510511F08C5F9A01A90132
:100B000056954795569547954115510511F08E5FBD
:100B10009A0136952795232B09F08F5F089580E081
:100B2000E3CF089581E008950895CF93DF93D82F00
:100B30000E949205C82F882319F08D2F0E949405DA
:100B40008C2FDF91CF9108950895CF93C82F0E94E5
:100B500091058C2F0E949505CF91089580E00E9409
:100B6000A50508950E94E9240E94A5050895CF9344
:100B70000E94E924C82F8091E4018C1779F0C0937A
:100B8000E4010E9443276093E5017093E60180939E
:100B9000E7019093E8018C2F0E94A505CF9108955D
:100BA000ADE0B0E0E6EDF5E00C94D230488759872F
:100BB0006A877B878C879D8791110E949A0D1F827F
:100BC00086E0FE013896DE01119601900D928A951D
:100BD000E1F78D8181110DC029813A814B815C81C2
:100BE0006D817E818F810E94E00C2D96E2E00C9455
:100BF000EE30CE0101960E94C3048111EDCFF5CFF6
:100C0000FC018481813021F4808191810E948D0AD0
:100C10000895662329F00E9430220E940623089539
:100C20000E948E22FACFCF93C82F882399F08CEFA1
:100C30008C0F813A88F48C2F0E949325882329F009
:100C40008C2F0E9438260E94320E8C2F0E94212663
:100C50000E94320ECF91089580E28C0F883048F4C4
:100C6000C77081E001C0880FCA95EAF70E947B0D2A
:100C7000EFCF8BE58C0F833038F42C2F2452330BBD
:100C8000C9010E942625E6CFE8E5EC0FEB3150F4D0
:100C9000F0E0EE0FFF1FEB5BFE4F808191810E9421
:100CA0004C25D8CF83E38C0F8331A0F661E08C2FE5
:100CB0000E940906CFCF882381F19CEF980F913ACB
:100CC00028F40E9438260E94320E089590E2980F70
:100CD000983050F4877091E001C0990F8A95EAF737
:100CE000892F0E94810DEFCF9BE5980F933028F458
:100CF00080E090E00E942625089598E5980F9B31AA
:100D000028F480E090E00E944C25089593E3980F2A
:100D1000933118F460E00E94090608951F93CF9361
:100D2000DF93182FEB010E941306209739F4812FCF
:100D30000E945B06DF91CF911F9108958FE99FE09C
:100D40000197F1F700C000002197EFCF60E070E05D
:100D5000893311F460E570E00E948E0608958823BF
:100D600021F00E947B0D0E94320E0895882321F00D
:100D70000E94810D0E94320E0895A0E0B0E0E3ECE5
:100D8000F6E00C94CC306C01D62FC72FFC011581F6
:100D9000068102950F700E94700DE82E8823F9F0ED
:100DA000E12E1123E1F08C2F807F803461F080E20E
:100DB0008D0F8830F0F08C2F807E803221F4D2307D
:100DC000C0F00023B1F08091610382FF12C082E085
:100DD0000E94620E0E94700D91E0E82EE926EC2F31
:100DE000E295EF70C03CB0F5F0E0E85CFD4C0C948F
:100DF0008B30E12CF4CF0C2F0F70C03110F0029526
:100E0000007F112399F0002359F080E28D0F883084
:100E100010F0D11107C0802F0E947B0D0E94320E6E
:100E20008D2F51C0802F0E948C0DF8CF8D2F0E94E6
:100E30005B06002379F080E28D0F883010F0D1112D
:100E400004C0802F0E94810D03C0802F0E94920D4C
:100E50000E94320EEE2089F00E946C0D80FD0DC0C4
:100E6000F60115820E94660D0E949409C6010E9437
:100E7000D3080E94660D0E94A409CDB7DEB7E8E052
:100E80000C94E830FC2FFF70FF2EC07FC03219F0A9
:100E9000F29480EFF822DD2341F0D130D1F111231B
:100EA00009F444C00023F1F0BBCF8091610382FDBF
:100EB00015C0112359F0FF2029F08F2D0E947B0DC2
:100EC0000E94320E80E00E941306C4CF80E00E9490
:100ED0005B06FF2009F4BECF8F2DB4CF112369F03C
:100EE000011104C08F2D0E94AF06B4CF013009F06C
:100EF000B1CF8F2D0E94B20DADCF0111ABCF8F2D91
:100F00000E94B6068F2D0E94BE0D8F2D0E94A10D4E
:100F1000A1CF112321F0063008F09CCFE3CF05309C
:100F200008F098CF8F2D0E94B60694CF0023D1F3FE
:100F3000D93349F42FEF87EE93E021508040904061
:100F4000E1F700C000008D2F0E945B0683CF8C2F3D
:100F5000869586958370882369F0813009F07ACF71
:100F60008D2F9C2F9370111102C080E090E00E94A1
:100F70004C2570CF8D2F9C2F9370111102C080E0F3
:100F800090E00E94262566CF612F8D2F0E940906D2
:100F900061CF8C2F8370811139C0111129C04D2F61
:100FA000429546954770440F440F2D2F2F7030E027
:100FB000042E02C0220F331F0A94E2F780E090E073
:100FC000D4FF09C08FE090E002C0880F991F4A95B6
:100FD000E2F780959095C695C695C370822B932BAA
:100FE000C23071F0C33079F0C13039F00E94670926
:100FF0000E94E9240E94A5052DCF0E945E09F8CF2A
:101000000E947009F5CF0E945B09F2CF112361F1B4
:10101000C0FFEECF4D2F429546954770440F440FC9
:101020002D2F2F7030E0042E02C0220F331F0A94A0
:10103000E2F780E090E0D4FF09C08FE090E002C0CA
:10104000880F991F4A95E2F780959095C695C695A9
:10105000C370822B932BC23069F0C33071F0C13062
:1010600031F00E94CF09C4CF823010F2D3CF0E945A
:10107000C609BECF0E94D809BBCF0E947C09B8CF59
:10108000CF70112339F08C2F0E9494098D2F0E946C
:10109000AF06AECF8D2F0E94B6068C2F0E94A409FA
:1010A000A7CFD23F31F170F4D03FB9F0D13FB1F1C9
:1010B000112309F44EC0002309F448C08D2F0E946B
:1010C000130696CFD33FE1F0D43F21F11111F3CFB6
:1010D00001114DC08C2F8F71E1CF112341F00530EC
:1010E00008F086CF8C2F8F710E94B60981CF053012
:1010F000F7CF8C2F8F711111D1CF0E94940978CF27
:10110000112329F08C2F8F710E94880971CF0E94C2
:1011100083096ECF8091610382FD06C08C2F8F7191
:10112000112309F4BBCFE9CF112331F063E08C2FF9
:101130008F710E94440E5CCF81E00E94620E0230EB
:1011400008F456CF82E00E94620E52CF8C2F8F712E
:10115000D4CF002309F4BECFD93349F4EFEFF7EE33
:1011600023E0E150F0402040E1F700C000008D2F67
:101170000E945B063DCF0F931F93CF93DF93EC014B
:10118000688179818D810E949A0A8C010E94E1090F
:101190000E945A09B801CE010E94BD06DF91CF918D
:1011A0001F910F910895CF93DF93EC018C818823D9
:1011B00099F0CE010E940205811111C00E94700DAC
:1011C000882351F08D81882339F08091610382FF5B
:1011D00003C082E00E94620EDF91CF910895CE019C
:1011E0000E94BB08CE010E94D104F6CF80E090E0BF
:1011F0000E94262580E090E00E944C250E949A0DD6
:101200000E94320E0E9423230E94062308950E940A
:101210004F260E94F60808950E94890D0E94070932
:101220000895282F92959F70963091F060F4925F08
:101230009F70923030F481E0203F79F030F4283E06
:1012400030F080E008959A5FF3CF243FD1F70895FE
:1012500081E0283EE0F3213FF9CF0895FC0184812D
:10126000882339F0808191810E948D0A0E941109A2
:10127000089580E00895A6E0B0E0E1E4F9E00C9480
:10128000D2302696E2E00C94EE30A7E0B0E0EBE43A
:10129000F9E00C94D2302796E2E00C94EE300895F9
:1012A0000E944F0908950E94500990930D02809367
:1012B0000C02089508950E945309089520910C028C
:1012C00030910D02822B932B0E9453090895209197
:1012D0000C0230910D02822393230E94530908953A
:1012E00020910C0230910D02822793270E9453090E
:1012F00008950E94290408950E94790990930B0291
:1013000080930A02089580E090E00E947C0908958D
:1013100021E030E0A90102C0440F551F8A95E2F791
:10132000CA010E947C09089521E030E002C0220F2A
:10133000331F8A95E2F780910A0290910B02822B6B
:10134000932B0E947C09089521E030E002C0220F17
:10135000331F8A95E2F72095309580910A0290918B
:101360000B02822393230E947C09089521E030E040
:1013700002C0220F331F8A95E2F780910A029091F2
:101380000B02822793270E947C09089520910A026C
:1013900030910B02822B932B0E947C09089520919F
:1013A0000A0230910B02822393230E947C09089544
:1013B00020910A0230910B02822793270E947C0918
:1013C000089508959B01677091E001C0990F6A9597
:1013D000EAF763E0369527956A95E1F7220F331F08
:1013E000220F331FFA01E20FF31F40E050E0682F95
:1013F00070E08191DF0111979B01042E02C03695A8
:1014000027950A94E2F72170219528272923282778
:101410002C934F5F5F4F4430510559F708959C015D
:10142000982F977083E0369527958A95E1F7220FDC
:10143000331F220F331FFB01E20FF31F40E050E088
:1014400080E0219130E0092E02C0369527950A945C
:10145000E2F721703327042E01C0220F0A94EAF725
:10146000822B4F5F5F4F4430510559F70895282F65
:10147000862F9A3068F4263058F4622F70E026E008
:10148000929F600D711D11244AEE51E00E94E20905
:101490000895292F9A3068F4863058F490E06AEE67
:1014A00071E036E0239F800D911D11240E940F0AE8
:1014B000089580E00895A0E0B0E0E1E6FAE00C9441
:1014C000CB308C01E0900A02F0900B0280910C026C
:1014D00090910D02E82AF92ACFE0D0E0CC24C39401
:1014E000D12CC6010C2E02C0880F991F0A94E2F776
:1014F0008E219F21892B49F4219798F7B12C8B2DB0
:10150000CDB7DEB7E9E00C94E730BC2EB8018C2FE4
:101510000E946711019781F3F2CFCF93DF93D82F09
:10152000C92F0E945B0A6D2F7C2F0E946711DF91EB
:10153000CF9108951F93CF93DF93162FD72F9091BC
:10154000E901992341F0862F972F0E948D0ADF91A0
:10155000CF911F910895882381F0862F972F0E94A5
:101560005B0AC82F682F812F9D2F0E94370A612F99
:101570007D2F8C2F0E946711EACF862F972F0E9414
:10158000490AC82FF4CF0F931F93CF93E0910E0217
:10159000C7E080910F028E1304C0CF911F910F916D
:1015A00008950E2F10E0CE9FF0011124E05FFD4F53
:1015B00020813181428153816481758186810E94BD
:1015C0004509F8013196E770E4CF20914802309147
:1015D000490240914A0250914B0260914C02709135
:1015E0004D0280914E020E944509089580914E025D
:1015F000803178F480914D02882359F0E0910E02F9
:1016000020910F02309149024091480257E02E1379
:1016100001C008956E2F70E05E9FF0011124DF017C
:10162000A05FBD4F14968C911497882361F1119699
:101630008C911197831327C08C91841324C0159625
:101640008C91159781111FC012968D919C91A0913C
:101650004A02B0914B028A1B9B0B883C910598F47F
:1016600080914E028F70806180934E02EA5EFD4F42
:1016700080818F708061808388E492E00E94D3082B
:101680000E94C30A0895FB013196E770C0CFE09134
:101690000E0290910F0227E0E91302C080E0089546
:1016A000AE2FB0E02E9FF0011124E05FFD4F31819D
:1016B000361306C03081381303C03581341304C09B
:1016C000FD013196E770E8CF81E008958F929F92F7
:1016D000AF92BF92DF92EF92FF920F931F93CF933F
:1016E000DF93CDB7DEB72D970FB6F894DEBF0FBEF0
:1016F000CDBF8C0186E0F801DE01189601900D92B5
:101700008A95E1F7F801E080F580A280B3808481BA
:1017100098E4892E92E0992E90914C0291111BC071
:10172000882309F4FCC0FF2009F43DC1C8010E94D0
:101730002E09882309F437C187E0F801D40101900C
:101740000D928A95E1F7C4010E9400060E94F60AF4
:101750000E94E50AE4C0D0904D0220914A023091E7
:101760004B02A501421B530BDD2009F4DBC0483CB2
:10177000510508F0A6C0882309F4D1C09091490210
:10178000918080914E02803108F06BC0991228C080
:10179000909148029E1124C0F1105DC08F7080614D
:1017A00080934E020E94E50A88E492E00E94D308EA
:1017B00080914E02F8018683F12C8F2D2D960FB665
:1017C000F894DEBF0FBECDBFDF91CF911F910F9177
:1017D000FF90EF90DF90BF90AF909F908F90089513
:1017E000F11039C040E0692D8E2D0E94470B40E07A
:1017F000692D8E2D0E94470BF82E8111DDCF888533
:1018000099850E948D0A292F22952F70903450F4CB
:101810009F70223080F0992399F0F80196819031E1
:1018200078F4CBCF2A5F2F70223078F0C8010E9465
:10183000D308FD2CC2CF992319F0882309F4BDCF1A
:10184000805E883008F4B9CFF1CF803F08F4B5CF7F
:10185000815F8230F7CF80914E02816080934E028B
:10186000ABCF991207C0909148029E1103C0FF2090
:1018700009F479C0C8010E942E09882309F493C095
:10188000FF2009F490C080914E02803288F02091B0
:101890004802309149023A832983BC82AB829091FD
:1018A0004C029D831E828F83CE0101960E94D30835
:1018B00087E0F801A8E4B2E001900D928A95E1F783
:1018C00045CF90914E029031A0F4488559856A85A4
:1018D0007B858C859D850E943B0988E492E00E946F
:1018E000D30887E0F40111928A95E9F70E94E50A8E
:1018F00063CF8823A1F02091490281812813BACFB8
:10190000809148028E11B6CFF110B4CF9683C801F2
:101910000E94D30887E0F40111928A95E9F7FF2429
:10192000F3944BCF483C510508F041C08823B9F3EC
:10193000FF20C9F190914902818198132AC08091BA
:1019400048028E1126C080914E0280FD19C0803160
:10195000B8F08683807F803F39F08681982F907F12
:10196000905F8F70892B8683C8010E94D30887E01F
:10197000F801A8E4B2E001900D928A95E1F7E8CE73
:1019800087E0F801A8E4B2E001900D928A95E1F7B2
:10199000C6CFC8010E942E0981118ACF80914E02C4
:1019A000816080934E02C8010E94D308B8CF488559
:1019B00059856A857B858C859D850E943B0991CFE1
:1019C000AEE0B0E0E6EEFCE00C94D1302887398739
:1019D0004A875B876C877D878E87CE0108960E9439
:1019E000660B8823B1F06C85662341F02885398524
:1019F0004A855B857D858E850E94450917E080912B
:101A00000E0290910F0289133EC02E96E3E00C94D3
:101A1000ED3087E0FE013896DE01119601900D92BF
:101A20008A95E1F720910F0240910E028C85882360
:101A300029F330E0C90101968770992750E0841797
:101A4000950799F097E0929FD001939FB00D1124D4
:101A5000A05FBD4FFE01319601900D929A95E1F77E
:101A600080930F020E94C30AC9CF0E940C091092F2
:101A70000F0210920E0287E0E8E4F2E0DF011D920F
:101A80008A95E9F7BBCF189FC0011124805F9D4F55
:101A90000E94660B882309F4B8CFE0910E021E9FC6
:101AA000F0011124E05FFD4F20813181428153819B
:101AB0006481758186810E94450980910E0290E0C3
:101AC00001968770992780930E0299CF80917702B3
:101AD00086958695869508958091770287700895FA
:101AE00090917702977081E0911101C080E0089594
:101AF0008091A30208959091A302982B9093A30242
:101B00000895982F90958091A30289238093A30232
:101B100008951092A30208959091A202982B909399
:101B2000A2020895982F90958091A2028923809314
:101B3000A20208951092A202089508950E949D0D98
:101B4000089590917802292F2823222331F080953F
:101B50008923809378020E949E0D089508950E9423
:101B6000AE0D089590917902292F2823281729F086
:101B7000982B909379020E94AF0D0895909179026D
:101B8000292F2823222331F08095892380937902FD
:101B90000E94AF0D089580917902882329F0109258
:101BA000790280E00E94AF0D0895CF93DF93C0913A
:101BB000A3028091A202C82BD0917902DD2331F0DB
:101BC0000E94722581110E94CB0DCD2B8C2FDF91AD
:101BD000CF910895CF93DF93C0910601D091070173
:101BE0000E94D50D8883C0910601D091070148E07D
:101BF00050E06FE672E0CE010E94A131892B59F0CE
:101C000088E0FE01AFE6B2E001900D928A95E1F71F
:101C1000CE010E94FD24DF91CF910895CF93DF93F1
:101C2000C0910401D09105010E94D50D8983C09116
:101C30000401D091050140E250E06FE472E0CE0172
:101C40000E94A131892B59F080E2FE01AFE4B2E09D
:101C500001900D928A95E1F7CE010E940825DF914F
:101C6000CF91089580914401882339F080916003D9
:101C700087FF03C00E940E0E08950E94EA0D08958A
:101C800008950E94400E08959091610392FF11C043
:101C900098E0899F90011124622B609377020E9443
:101CA0009409809177028695869586950E94410ECB
:101CB00008950E94940908951092770280E00E948E
:101CC000410E089590917702809589238093770241
:101CD000282F277021110DC0891759F090916103A9
:101CE00092FF07C08695869586950E94A4090E945A
:101CF0005C0E08959091610392FB222720F928172A
:101D000069F080FB92F99093610380916003909158
:101D100061030E94C20E82E00E94620E08958091CB
:101D2000610382FB882780F991E089270E947A0E5F
:101D3000089581E00E947A0E089580E00E947A0E54
:101D400008956FEF7FEF80E090E00E94F9310895F1
:101D500080E090E00E94C5319C0181E0253E3E4F2D
:101D600009F080E0089582E090E00E94B731089584
:101D700083E090E00E94B731089584E090E00E94F3
:101D8000C5310895BC0184E090E00E94F9310895C6
:101D9000AB01BC018FE090E00E94ED310895AB01F2
:101DA000BC0183E190E00E94ED31089560E070E0B5
:101DB000CB010E94CF0E089560E070E0CB010E943D
:101DC000C80E0E94D60E0895A8E0B0E0EAEEFEE04C
:101DD0000C94D23065EE7EEF80E090E00E94F93105
:101DE00060E082E090E00E94DB3181E090E090933F
:101DF0000D0280930C0261E083E090E00E94DB31F1
:101E000060E074E184E090E00E94F93160E086E0F7
:101E100090E00E94DB3160E087E090E00E94DB31DF
:101E200040E050E0BA0188E090E00E94ED3160E0CF
:101E300083E290E00E94DB3160E08CE090E00E9461
:101E4000DB3160E08DE090E00E94DB3119821A8284
:101E50001B821C821D821E821F82188648E050E071
:101E600067E170E0CE0101960E94CB3140E050E086
:101E7000BA018FE190E00E94ED310E94DC0E2896BD
:101E8000E2E00C94EE300E94E40E0895682F8EE09C
:101E900090E00E94DB310895A6E0B0E0E2E5FFE0CB
:101EA0000C94D0300E9437278C018091A40290912D
:101EB000A5028017910779F019821A820E943727AC
:101EC000BC0149815A8180E090E00E94D0051093C6
:101ED000A5020093A4022696E4E00C94EC300E9444
:101EE00095126093B4027093B5028093B6029093FA
:101EF000B7026093B0027093B1028093B2029093E4
:101F0000B3020895089508950E94820F08950E94D3
:101F10002304089581E0089583ED92E10E941C1747
:101F20000E94830F0E94840F08950E9499140895BF
:101F3000089508950E94980F0E94990F08950E9495
:101F4000A80E811102C00E94430F0E94B30E80931D
:101F5000B8020E94BD0E90936103809360030E94BB
:101F60007A200E94B80E90E00E945B0980910A02DC
:101F700090910B020E94790908950E942E270E94D9
:101F80005F120E949F140E94E6130E949F0F0E94FE
:101F9000A4050E947D200E94481E0E94BB140E943E
:101FA000870F0895A6E0B0E0E8EDFFE00C94C9309B
:101FB0000E948A0F81110EC00E944C0F0E9499143A
:101FC0000E94A11F0E9444230E94B7052696EBE0C1
:101FD0000C94E5300E940A1486EAA82E82E0B82EFE
:101FE000750110E0F70101917F01812F0E94DC1241
:101FF0001F5F1A3009F443C00817A1F38091B8029B
:1020000081FD0E94E2120E94950FC82E00E09924E3
:102010009394802F0E94DC12182FF50191915F019B
:10202000891739F1D82ED926F12CEE24E3948E2D80
:102030008D218823B1F0CC20A1F0F9820A830E947F
:1020400037279C838B839D8291E08E2D8123811184
:1020500001C090E049815A816B817C818D810E9411
:10206000D005F394EE0CF6E0FF12E1CFF5013197C5
:1020700010830F5F0A3069F60E946F0F9FCF08131D
:10208000BDCF9ACF1F93CF93DF930E946C11EC01C9
:10209000811522E5920708F053C0811540E59407A9
:1020A00008F0DDC0803E9105F8F48D3C910508F004
:1020B000AEC0883A910580F4853A910508F099C040
:1020C0008130910521F00497813A910550F4CE01B9
:1020D000DF91CF911F910895885A91094B9708F489
:1020E0008BC0C0E0D0E0F3CF811550E49507F8F441
:1020F000C11580E2D80708F0CBC0C83ED10538F33F
:10210000CE019A9581159F4160F78D2F0E94101284
:10211000182FCE0199270E946C11212F30E0322F09
:102120002227E901CC27DF71C82BD92BD0CF9927E3
:102130000E946C11CC27DF70C82BD92BD06AC7CF77
:10214000803842E59407C8F5803652E5950708F0D7
:1021500067C0C03482E5D807B0F08C2F869586958D
:10216000877020E2829FC0011124C37021E030E01B
:10217000A90102C0440F551FCA95E2F7EA01C82B16
:10218000D92BDC68A4CFC03252E5D50708F041C096
:102190008C2F8695869520E2829FC0011124C37002
:1021A00021E030E0A90102C0440F551FCA95E2F7B3
:1021B000EA01C82BD92BDD688ACF803C52E5950710
:1021C00060F48F71C03AD24508F03FC090E0982F7C
:1021D0008827EC01C46FD06A7ACF805C92458097E3
:1021E00008F07FCFDC2FCC27CC27DF71C06FD06AFF
:1021F0006ECFA497D0646BCFC85AD0E0CC0FDD1F50
:10220000C558DE4F0990D881C02DD46460CFD06509
:102210005ECFCF71D0E0DC2FCC27C16FD06A57CF13
:1022200086958695877020E2829FC0011124C37035
:1022300021E030E0A90102C0440F551FCA95E2F722
:10224000EA01C82BD92BDA6842CF0E941012C82F9E
:10225000D0E0DC2FCC27CC27DF71D06238CF8F7154
:102260000E94101265E0D695C7956A95E1F7CF7088
:10227000D0E0DC2FCC27282F30E084FF05C054E0CD
:10228000220F331F5A95E1F7C22BD32BD0691FCFF2
:102290008D2F8F710E941012182FCE0199270E9446
:1022A0006C11212F30E0322F222722273F71282B5B
:1022B000392BE901D2CF462F672F7A3028F44630E8
:1022C00018F40E947904089580E090E008950E9437
:1022D0005B110E9442100895803E9105D1F1C8F42F
:1022E0008133910509F47FC048F48932910509F4DE
:1022F0006FC08A32910509F47DC008958933910534
:10230000E1F082389105C9F08533910509F45BC08D
:102310000895843E9105D1F148F4823E910531F152
:10232000833E910541F181EE90E00895863E91054E
:10233000C1F1873E9105E1F108952091600323707A
:10234000211165C02091610323FF14C089E290E050
:1023500008952091600320FD43C03091610330FF58
:1023600009C024FF4EC080E090E0089520916003F2
:1023700022FDF7CF08952091600322FD45C03091E2
:10238000610330FD44C024FFF5CFEDCF2091610300
:1023900021FFF0CF8091600384FDE5CF87EE90E0D0
:1023A00008952091600323FFE5CF24FDDCCFF6CF15
:1023B0002091600323FD2EC03091610331FFE3CFF4
:1023C00084EE90E008952091600325FFD3CFBECF27
:1023D0002091600325FD21C02091610323FFCACF16
:1023E00089E390E008952091600326FFC3CF8AE23D
:1023F00090E008952091600326FFBCCF81E390E038
:10240000089583EE90E0089582EE90E0089580EEC6
:1024100090E0089586EE90E0089585E390E0AACFDD
:102420009091600392FF10C041E0282F2471243066
:1024300009F040E031E0282F2871283009F030E021
:10244000431711F02CE0822793FF10C041E0282FA2
:102450002471243109F040E031E0282F287128311F
:1024600009F030E0431711F02CE08227309161032E
:1024700030FF10C051E0282F2171213009F050E0C9
:1024800041E0282F2871283009F040E0541711F05E
:1024900029E0822731FF10C041E0282F217121312E
:1024A00009F040E031E0282F2871283109F030E0B0
:1024B000431711F029E0822794FD877E089510923A
:1024C00062031092630310926403109265030895EF
:1024D000CF92DF92EF92FF92CF93DF9300D000D0A4
:1024E000CDB7DEB76B017C010E949914811112C037
:1024F0000E94432769837A838B839C83C61AD70AF9
:10250000E80AF90AC0926203D0926303E09264037E
:10251000F09265030F900F900F900F90DF91CF9185
:10252000FF90EF90DF90CF900895A4E0B0E0EBE94A
:10253000F2E10C94D2300E949914882371F00E9429
:10254000432769837A838B839C8369817A818B811A
:102550009C812496E2E00C94EE300E94432769832C
:102560007A838B839C838091620390916303A09113
:102570006403B091650329813A814B815C81280F06
:10258000391F4A1F5B1F29833A834B835C83DDCF4E
:102590000E949914882319F00E94372708950E94F9
:1025A0009512CB01089580E0089508950E94D512F8
:1025B00008950E94B1030895E82FF0E0EF58FC4F12
:1025C00080810895089580EA8A95F1F7089500C002
:1025D00008950E94E312089508950E94EC12089550
:1025E000A5E0B0E0E6EFF2E10C94CD300E94991442
:1025F000182F60917B03882309F445C01A82198241
:10260000FE01339683E0DF011D928A95E9F7862F5C
:1026100090E032977F01BF018F589C4F0E94C914F0
:10262000DE2C0F2D8823B9F08091660390E045E001
:1026300050E0B7018F589C4F0E94A13121E02093B8
:10264000B902892B99F410E00E94D912812F2596A6
:10265000E7E00C94E9308091B9028823A1F385E08A
:10266000D7011D928A95E9F71092B902A0916603ED
:10267000B0E0AF58BC4F85E0ED2DF02F01900D92EA
:102680008A95E1F7E1CF70E06F587C4F8091660347
:1026900090E08F589C4F0E9452150E94ED12D6CFA9
:1026A000F894E82FE295EF70F0E041A18F7021E0FF
:1026B00030E0B90102C0660F771F8A95E2F7CB01BF
:1026C000962F9095942391A392A1892B82A378941D
:1026D00008950F931F93CF93DF93C7EBD1E08991B8
:1026E0008F3F11F00E94501381E0CC3BD807B9F71F
:1026F000C1EBD1E007EB11E089918F3F11F00E940F
:1027000050130C171D07C1F7DF91CF911F910F9147
:102710000895A0E0B0E0EFE8F3E10C94CC30EC01D8
:10272000D62E062F10E0C80189549E4F7C01FC0173
:1027300080818F3F09F445C0F894E82FE295EF704F
:10274000F0E091A18F7021E030E001C0220F8A9566
:10275000EAF7892F822B81A382A12095282322A327
:1027600078940E94E712E1EBF1E091E0C12C8191B5
:102770008F3F81F0A82FA295AF70A05EB0E02C91A2
:1027800030E08F7002C0359527958A95E2F7217069
:10279000892F211180E0C82A990F81E0E73BF807D3
:1027A00031F7F70180818F3F11F00E94501361E0F3
:1027B000C11001C060E08D2D0E94E912C00FD11F31
:1027C000C882CDB7DEB7E8E00C94E830809108010C
:1027D0008091080190E0811101C095E090937B0306
:1027E00085E0891B809366030E9469138AE0E1E714
:1027F000F3E0DF01982F1D929A95E9F7E7E6F3E001
:10280000DF011D928A95E9F785E00E944B140E9432
:10281000D6120895AAE0B0E0E0E1F4E10C94CF30E4
:102820001A821982FE01339688E0DF011D928A9593
:10283000E9F7F12C8E010F5F1F4F6F2DC8010E9429
:102840008913F394B5E0FB12F8CF4AE050E0B801E9
:1028500087E693E00E94A13121E0892B99F420E0E2
:1028600060917B0370E06F587C4F45E087E693E012
:102870000E944C14182F0E94F012812B2A96E5E03A
:102880000C94EB308AE0F801A7E6B3E001900D92DA
:102890008A95E1F7E5CF0895A0E0B0E0E2E5F4E144
:1028A0000C94CC30D82EE92EF62ED72F042FC22F21
:1028B000222379F081E08093BC020E943727909315
:1028C000BB028093BA0280E0CDB7DEB7E8E00C949B
:1028D000E830C090BC02CC20B1F38091BA02909154
:1028E000BB020E946027059770F310E0A8016D2DD0
:1028F0007E2D8F2D9D2F0E94A131892B41F0A801A3
:102900006D2D7E2D8F2D9D2F0E94AE31CC2D1092DE
:10291000BC028C2FD9CFCF930E941A30C82F8111BF
:1029200002C00E9415308C2FCF9108958091C00273
:1029300008958091BF0208950E94991408950E94FD
:102940008B148093BF020E949C148093C0020E944B
:102950009614809308010E94961466E0882349F03B
:1029600080E00E94BB170E94991481110E94FF14FD
:10297000089586E0F6CF0E949914811102C00E944A
:102980000215089581E09091C1029A3008F080E02C
:1029900008950F931F93CF93DF93EC01162F072F0A
:1029A0008091C1028A3090F4612F702FCE010E9475
:1029B0004F15811121C08091C1028F3FB1F40E9457
:1029C00037279093BE028093BD0209C08091BD025B
:1029D0009091BE020E946027843F914028F780E0DA
:1029E000DF91CF911F910F9108958F5F8093C10266
:1029F0008A3028F781E0F4CF1092C102FBCF0E9409
:102A0000292808950E942C280895A0E0B0E0EBE06A
:102A1000F5E10C94CC30FA0169017801C82F880FD8
:102A2000DD0B3097B1F0DE0193E0AA0FBB1F9A9542
:102A3000E1F7A75FBE4F11968D919C9112978E532F
:102A40009D4F4C9150E0E417F50708F4AF010E9448
:102A5000AE31CE010E941729182F8823D1F0E1143E
:102A6000F104B9F083E0CC0FDD1F8A95E1F7FE0198
:102A7000E75FFE4F438150E0E416F50608F4A70136
:102A8000C75FDE4F6C817D816E537D4FC6010E9412
:102A9000AE31812FCDB7DEB7E8E00C94E8300E946C
:102AA000951608950E94B9160895A8E0B0E0EBE5E8
:102AB000F5E10C94D0308091E5029091E602A0916E
:102AC000E702B091E802BC01CD010E946F2711E03E
:102AD000643671058105910520F10E949512DC0193
:102AE000CB010296A11DB11D89839A83AB83BC8360
:102AF00000E010E020E030E044E050E0BE016F5F15
:102B00007F4F82E00E940515182F882351F00E9404
:102B100043276093E5027093E6028093E702909367
:102B2000E802812F2896E4E00C94EC30A0E1B0E0BC
:102B3000ECE9F5E10C94CF308E010F5F1F4FC80117
:102B40000E945C1DFB848091E9029091EA02A091B1
:102B5000EB02B091EC02BC01CD010E946F276D87A2
:102B60007E878F87988BB8018D859E85AF85B889C4
:102B700084369105A105B10510F4FF20A9F000E00D
:102B800010E020E030E04CE050E083E00E940515CA
:102B9000882369F00E9443276093E9027093EA0258
:102BA0008093EB029093EC020E94591D81E06096A5
:102BB000E5E00C94EB30AAE0B0E0E1EEF5E10C9436
:102BC000CA307B01A090BC01B090BD0101E010E0D3
:102BD0009E012A5F3F4F40E050E060E070E080E0FF
:102BE0000E940515182F882309F44DC065018FEF49
:102BF000C81AD80A8091E1029091E202A091E30202
:102C0000B091E402BC01CD010E946F276F837887E9
:102C100089879A87643671058105910560F105E021
:102C200010E09E012F5F3F4F40E050E060E070E019
:102C300081E00E940515182F65E070E0C6010E9432
:102C40007E209E8198132AC0112341F10E944327C0
:102C50006093E1027093E2028093E3029093E402B6
:102C600085E0FE013196ACEDB2E001900D928A95BF
:102C7000E1F781E014C065E070E0C6010E947E20AB
:102C80009E818913CCCF85E0F5013196DE01119646
:102C900001900D928A95E1F71111E2CF80E095E065
:102CA000ECEDF2E0D70101900D929A95E1F72A96AA
:102CB000EAE00C94E630A0E0B0E0E1E6F6E10C9446
:102CC000CA30F82EE92EB62EA72E8A010E94C21411
:102CD000CC24C394D12C882319F08AE0C82ED12C9F
:102CE000C1E0D0E06B2D7A2D8F2D9E2DF801099536
:102CF000811116C02196CC16DD0694F0CC9FC00140
:102D0000CD9F900D900D112420E030E045E34A95D1
:102D1000F1F700002F5F3F4F28173907B9F7E2CFCF
:102D2000CDB7DEB7EAE00C94E6300F931F93CF9354
:102D3000DF93D82FC92F8B014BED55E10E945B1615
:102D4000811106C080E0DF91CF911F910F9108950E
:102D500045E555E1B8018D2F9C2F0E945B16882315
:102D600089F346E955E1B8018D2F9C2F0E945B162F
:102D7000EACFACE0B0E0EFEBF6E10C94CC30FB0135
:102D80000091BC011091BD01C801019625E0DC0154
:102D900001900D922A95E1F765E070E00E947E2097
:102DA000F80180836681778180859185C090D80203
:102DB000D090D902E090DA02F090DB026C157D052C
:102DC0008E059F0551F06093D8027093D9028093CD
:102DD000DA029093DB020E9468128CE0F8013A96C6
:102DE000DE01119601900D928A95E1F7F801148A9F
:102DF0008B85882329F060E0CE0101960E948E1E0B
:102E00002C96E8E00C94E8300E94D20F08950E94BE
:102E1000D0260E94D52A0E948C0F0E94EF2A0E9481
:102E2000BD0F0E94FC2A0E94012B0E9404170E94E1
:102E30001B2B0E949A0FF7CF9093E3018093E2013E
:102E40000895A0E0B0E0E7E2F7E10C94CA30E82F83
:102E500071110DC0442321F0F0E0E556FB4F849141
:102E6000682F782FCDB7DEB7EAE00C94E630262F36
:102E700030E0C72FD0E0F0E0442321F0E556FB4FCF
:102E8000E491F0E086E0829F7001839FF00C1124B2
:102E90000FEF10E0C701B8010E944130AB01220FD3
:102EA000331F65E5649FC001659F900D1124281BA9
:102EB000390BC22ECC0CC20EC8018C1B9D0B8E9FF1
:102EC00090018F9F300D9E9F300D1124832FCC9E3B
:102ED000B001CD9E700D1124672F77275801A61AD7
:102EE000B70AAE9ED001AF9EB00DBE9EB00D1124AC
:102EF0007B2F5801AC18B1086501CC9E5001CD9EC6
:102F0000B00CDC9EB00C1124AB2CBB240A191B099D
:102F10000E9FE0010F9FD00D1E9FD00D11246E2F2C
:102F200043305105C9F09CEFE91693E0F90650F4DF
:102F30004130510509F496CF4230510589F07E2F7A
:102F40006D2F90CF4430510571F046305105B9F3E3
:102F5000632F8B2F7E2F86CF6B2F732F8E2F82CFD9
:102F6000732F8D2F7FCF7D2F632FF8CF41E00E94ED
:102F7000211708950895ECE2F1E0808361830895BC
:102F80000E94B6170895CF93DF93982F762F842F42
:102F9000E901692F0E94C017798368838A83DF91D2
:102FA000CF91089580917C03843028F483708460ED
:102FB00080937C03089587FFFDCF83708C67F8CFE3
:102FC0004F925F926F927F928F929F92AF92BF9239
:102FD000CF92DF92EF92FF920F9388E090E00E94F1
:102FE000BF312B013C0183E290E00E94B731282FD2
:102FF00030E040E050E060E070E080E090E000E22F
:103000000E94F93053014201C12CD12C76012429B0
:1030100039294A295B296C297D298E299F290F91FD
:10302000FF90EF90DF90CF90BF90AF909F908F90E8
:103030007F906F905F904F900895A0E0B0E0E3E242
:10304000F8E10C94CC308901D42FC52F6B017C01A1
:103050000E94D217A8016D2F7C2F88E090E00E947B
:10306000ED3198014D2F5C2FB601C70100E20E949F
:103070001431622F83E290E00E94DB31CDB7DEB7DE
:10308000E8E00C94E830ECE7F3E085E0808311821F
:103090008FEF828383831482A8E3B3E012968C912E
:1030A0001297836012968C93758125E030E04FEF84
:1030B0005FEF60E0868197810E941D1808958091DE
:1030C0007C0380FF03C086958695089580E008956F
:1030D00090918003933018F49F5F9093800388232E
:1030E00091F020917C0330917D0340917E035091BB
:1030F0007F0360918003709181038091820390919E
:1031000083030E941D18089581E00E9468180895A5
:1031100090918003992319F0915090938003882314
:1031200091F020917C0330917D0340917E0350917A
:103130007F0360918003709181038091820390915D
:1031400083030E941D18089581E00E948818089545
:1031500021E030E001C0220F8A95EAF790913B030D
:10316000922381E0911101C080E00895A4E2B0E0D3
:10317000ECEBF8E10C94C830B0902D0190917C03F9
:1031800090FF3AC080902F039090300381149104F7
:1031900009F048C0EFE8F4E0CE010196BE016B5D96
:1031A0007F4FAC01249130E0D901AA0FBB1FA20FC1
:1031B000B31FAC57BC4FCD90DD90EC90DC01CD92AD
:1031C000DD92ED92CD0131966A177B0759F76B2D91
:1031D00070E020912C0130E0C901880F991F820F07
:1031E000931FE091E001F091E101840F951F099593
:1031F000A496ECE00C94E43080912E0140912F01D4
:10320000282F30E0F901EE0FFF1FE20FF31FEC57FC
:10321000FC4F841708F0B6CF1182108212828F5FA4
:103220003396F7CF90FFB6CFA12C8A2D0E94A81815
:10323000882309F43BC0F401E590F490E114F10413
:1032400009F4A8CF45E050E0B701CE0101960E94F5
:103250008B3189818F3F51F12A8190E0280F392FDE
:10326000311D2D30310514F02CE030E06901CC0C1B
:10327000DD1CC20ED31E96012C573C4F69018C01F8
:10328000000F111F080F191F0C571C4F0C151D059F
:1032900020F035E0E30EF11CD5CF98014D816C8113
:1032A0008B810E94C3170D5F1F4FF0CF82E0880E05
:1032B000911CA394A8E0AA12B8CF6CCF90917C0384
:1032C00090FF11C090912E0150912F01292F30E0D5
:1032D000F901EE0FFF1FE20FF31FEC57FC4F95179C
:1032E00018F00E94B61808958183608342839F5F1F
:1032F0003396F5CFA3E0B0E0E0E8F9E10C94D230EA
:1033000090917C0390FF0AC09E012F5F3F4F0E9467
:10331000C3174B8169818A810E945E192396E2E07E
:103320000C94EE30CF93DF93EC01EC81F0E0E157A9
:10333000FC4F4491ECE7F3E0628181810E947A19AD
:103340008C818F5F8C83DF91CF910895CF93DF9332
:10335000EC01ECE7F3E0438162818C810E947A19F1
:103360008C818F5F8C83DF91CF910895A3E0B0E0D3
:10337000ECEBF9E10C94CE30182FF62E042FE22E50
:1033800080917C0380FF41C020917D03211308C000
:1033900090917E03961304C090917F03941729F0B7
:1033A00090913A03926090933A03E82FE695E69560
:1033B000F0E0E254FE4F9081909338038C7F84308C
:1033C00041F59E012F5F3F4F402F6F2D812F0E94AF
:1033D000C3174B8169818A810E945E1910937D0316
:1033E000F0927E0300937F03EE2079F020917C031E
:1033F0006091800370918103312F4F2D502F809168
:103400008203909183030E941D182396E6E00C949A
:10341000EA30923019F400917F03E0CF963011F03A
:103420009930E1F6122FDACF282FECE7F3E0818113
:1034300043816281865F0E94B619089581E00E94EF
:10344000141A0895282FECE7F3E08181438162810B
:103450008A500E94B619089581E00E94221A0895A8
:10346000282FECE7F3E0628131E1630F08F46FEF9E
:10347000438181810E94B619089581E00E94301A2B
:103480000895282FECE7F3E0628131E1631B08F433
:1034900060E0438181810E94B619089581E00E9415
:1034A000411A0895282FECE7F3E0438131E1430FFF
:1034B00008F44FEF628181810E94B619089581E07E
:1034C0000E94521A0895282FECE7F3E0438131E17E
:1034D000431B08F440E0628181810E94B61908957F
:1034E00081E00E94631A089520E00E94B6190895B1
:1034F000EF92FF921F93CF93DF93EC0110E0EE2445
:10350000EA94F12C60913001161770F00E94B61801
:103510009A818C8190FF25C08F5F8C83DF91CF9142
:103520001F91FF90EF90089580912E01810F9927B0
:10353000991F9C01220F331F280F391F2C573C4F16
:1035400070E0C7010E945530962F8C8140917F0317
:1035500060917E03199F800D11240E94C3171F5F85
:10356000D1CF8150DACFA0E0B0E0E9EBFAE10C94E2
:10357000C930EC018C819A8190FD0EC0BB24B394BC
:1035800081110EC0809130018150BB24B39480938F
:10359000EE0281E08C8304C0BB24BA948823B9F383
:1035A000A12C80913001A816B8F00E94B618909115
:1035B000EE0281E0B81256C080913001815099230B
:1035C00019F08FEF890F91E08093EE029C83CDB7C5
:1035D000DEB7EBE00C94E53080912E01CA2CD12CA3
:1035E0008C0D9D2D911D8C01000F111F080F191FAF
:1035F0000C571C4FF80111821082128234E0E32E26
:10360000F12C912C8091EE02890D8D302CF16CE023
:103610000E943330892F082E000C990BC816D9064A
:1036200091F480917F038E9DA0018F9D500D1124F8
:103630005595479555954795980160917E038091E2
:103640007D030E94C3179B0CF1E0EF1AF108E1140F
:10365000F104C1F6A394A5CF87FFDDCF909130018F
:10366000890FD9CF892F90E001966091300170E0E9
:103670000E945530982FA8CF1F93CF93DF93EC0172
:103680008C81811109C081E08C831092ED0292E05F
:1036900090932B0180932A0180912E0190912F010C
:1036A000282F30E0F901EE0FFF1FE20FF31FEC5758
:1036B000FC4F891748F110E060913001161750F166
:1036C0000E94B61880912A012091ED02280F2093C4
:1036D000ED0290912B01980F90932B01191654F441
:1036E000022E000C330B409130014150550B241732
:1036F000350734F0819580932A01813009F41C82CA
:10370000DF91CF911F9108951182108212828F5FF5
:103710003396CFCF212F30E070E0C9010E945530A1
:1037200090912E01980F892F90E04091ED02042E88
:10373000000C550BFC01EE0FFF1FE80FF91F2417BB
:103740003507ACF040912B01042E000C550B4217AD
:1037500053076CF09F012C573C4F40917F036091C1
:103760007E0380917D030E94C3171F5FA5CFEC5796
:10377000FC4F118210821282F8CFAEE0B0E0E3EC91
:10378000FBE10C94CE308D879E87AD85BE85149667
:103790001C91212F30E0D9010E9499309B01AC018E
:1037A0000E94AF3069837A838B839C83E0E2F0E0F0
:1037B000E11BF109A5E5B0E09B01AC010E94AF302F
:1037C00069877A878B879C879F01DF010E949130F0
:1037D0009B01AC010E94BA306D837E838F839887F2
:1037E0009B01AC0189819A81AB81BC81280F391F73
:1037F0004A1F5B1F69857A858B859C850E9469308D
:10380000022F30E00A3248F5A901440F551F420F3C
:10381000531F55954795142F1095F12C85E5E82EEB
:10382000E01A80913001F81630F10E94B618AD858B
:10383000BE8514969C9181E0992319F0903219F479
:103840008FEF8093290180912901890FED85FE85F5
:1038500084832E96E6E00C94EA3085E590E0821BA6
:10386000930BAC01440F551F480F591F57FFD1CF81
:103870004F5F5F4FCECF8E2DF1FC802F40912E01F8
:103880004F0D5527551F9A01220F331F240F351F47
:103890002C573C4F412F60917E030E94C317F39435
:1038A000C0CF0F931F93CF93DF93EC0100E010E0A4
:1038B00040913001842F90E0081719076CF00E94A6
:1038C000B6188C8190E00196817099278C83DF91E6
:1038D000CF911F910F91089580912E01800F912F0C
:1038E000911D9C01220F331F280F391F2C573C4F6D
:1038F0009C8160917E0380917D03469550E0041782
:1039000015074CF4992349F040917F030E94C31797
:103910000F5F1F4FCDCF9923B9F340E0F7CFA0E061
:10392000B0E0E5E9FCE10C94C430FC016280448025
:1039300081E08483EFE8F3E07490EEE0F4E0E4915A
:10394000C0917F03C695C158D0E0CC0FDD1FCD2FAD
:10395000DD27812C75E0972EAA24AA94B12C55243A
:103960005A94E719EE2EF12C80913001881638F028
:103970000E94B618CDB7DEB7E0E10C94E030C82C59
:10398000D12C82E0861568F09C9CF0019D9CF00D86
:103990001124EE50FD4F80917D03808380917E0342
:1039A0008183411023C09C9CF0019D9CF00D11244B
:1039B000EE50FD4F1382128280912E018C0D9D2DB1
:1039C000911D9C01220F331F280F391F2C573C4F8C
:1039D0009C9CF0019D9CF00D1124EE50FD4F428106
:1039E000618180810E94C3178394BECF9C9C80011B
:1039F0009D9C100D11240E501D4FF80183818823CA
:103A0000F1F081508383589EC0011124648170E0DD
:103A10000E944130FB01FF27E157FC4F8491E82FC2
:103A2000E7195E9EC0011124B7010E9441308091C8
:103A30007F03689FB0011124F8017283BDCF0E94FB
:103A40007B31B5010E9455308C179D070CF0B4CF27
:103A5000F2E0F61598F40E947B31B5010E945530D2
:103A6000F80180830E947B3120917E032695622F8E
:103A700070E00E945530280FF80121839C9CF001D2
:103A80009D9CF00D1124EE50FD4F128280917F031A
:103A9000893C58F088EC9C9CF0019D9CF00D112411
:103AA000EE50FD4F8483838387CF8431A0F784E178
:103AB000F2CF10923A030895CF93DF93EC0188E0A0
:103AC000ECE7F3E0DE0101900D928A95E1F7809139
:103AD000380390913903A0913A03B0913B03888752
:103AE0009987AA87BB87DF91CF910895E8E3F3E038
:103AF00011828281846082830895ECE7F3E0808103
:103B00008E7F80830E94761DE8E3F3E082818160EE
:103B100082830E94B6180895ECE7F3E020812E7F9F
:103B200020833181428153816481758186819781AF
:103B30000E941D180E94761DE8E3F3E082818160F7
:103B400082830E94B618089560917C0366956695FD
:103B500070E041E050E081E391E00E949431892BD4
:103B600019F481E0809339030E94C81290933203C4
:103B70008093310380913A03846080933A030895DF
:103B800090917C0390FF3FC08823F1F18032F0F5E3
:103B90008F73282F220F220F80917C038370282B94
:103BA00020937C0380913A03816080933A036623DB
:103BB00081F030917D0340917E0350917F036091AD
:103BC00080037091810380918203909183030E940E
:103BD0001D1860917C036695669570E041E050E0A9
:103BE00081E391E00E949431892B91F00E94761D2F
:103BF00081E08093340340917F0360917E03809144
:103C00007D030E94741A089581E0C3CF8FE1C1CF74
:103C10000E94A41DEDCF682F80917C038695869528
:103C20008F5F803208F081E00E94C01D089581E01E
:103C30000E940B1E0895682F90917C03969596958F
:103C40008FEF890F913009F48FE10E94C01D089514
:103C500081E00E941B1E089561E00E94C01D08952E
:103C6000ECE7F3E0808181608083869586950E94F1
:103C70002C1E089580917C0380FF03C00E948C1D40
:103C800008950E94301E089560E00E94C01D0895AE
:103C900080913703811141C00E94E01720937C037B
:103CA00030937D0340937E0350937F0360938003A2
:103CB00070938103809382039093830380913A03EE
:103CC000836080933A032430A0F40E9443180E943A
:103CD000E01720937C0330937D0340937E03509341
:103CE0007F0360938003709381038093820390939A
:103CF00083030E94D2170E94761DE091DE01F091AD
:103D0000DF01099580917C0380FF04C0869586952C
:103D10000E94441E81E08093370308951F93CF9340
:103D2000DF93EC01162F8A8584FF03C09B85909357
:103D30003B0380FF0EC0888180FF26C080917C03FA
:103D4000816080937C038881612F869586950E948F
:103D5000C01D8A8581FF06C0212F4B816A81898120
:103D60000E94B6198A8582FF05C08985882379F06B
:103D70000E94A41D8A8583FF03C081E080933403E1
:103D8000DF91CF911F9108950E947D1DE2CF0E9487
:103D9000761DF0CFEF92FF920F931F93CF93DF9397
:103DA00080913903882309F467C090913803E0912A
:103DB0007C03E695E6958E2F891B80933303923022
:103DC00009F06FC0E82FF0E0E557FC4FE491CE2FEB
:103DD000D0E002E919E180913403882361F0109268
:103DE00034030E94C81290933203809331031092DF
:103DF0003603109235030E94C8129C018091310352
:103E000090913203A901481B590B4F3F5F47A0F522
:103E10004091F1024423B1F01092F1024091EF027F
:103E20005091F002241B350B2F3F3F4758F4405D63
:103E30005A485093F0024093EF0220913A032860D1
:103E400020933A03E0903503F09036038C0F9D1FCA
:103E5000909332038093310381E393E0F801099555
:103E60008091350390913603892B31F4E114F104EC
:103E700019F081E08093F10280912E03882361F094
:103E800010922E0380913903811106C080917C032A
:103E9000869586950E94441ECDB7DEB7E6E00C9469
:103EA000EA309650953130F4E92FF0E0EC5BFD4CB0
:103EB0000C948B30C0EDD7E00AEB17E18CCFE82FE4
:103EC000F0E0E857FC4FE491CE2FD0E006EA19E18C
:103ED00082CFE82FE695F0E0EB57FC4FE491CE2F30
:103EE000D0E008E71AE177CFE82FE695F0E0EE574B
:103EF000FC4FE491CE2FD0E003EB1AE16CCFE82F1A
:103F0000F0E0E158FC4FE491CE2FD0E00CE31BE150
:103F100062CFC4EFD1E001E51CE15DCF63E00E9418
:103F20002730E92FF0E0E458FC4FE491CE2FD0E0A9
:103F30000FE81CE150CFC8E2D0E00DEB1BE14BCF06
:103F400008950E94CA1E0895FA01882311F0099568
:103F50000895FB01FCCFCF93DF93C82FD62F0E948B
:103F60005F188C1748F00E945F188D1728F40E9484
:103F7000171EDF91CF9108958C2F0E942C1EF9CF30
:103F80001F93CF93DF93EC01FB011581111163C0E7
:103F90000E94780D8272FE01E052F847E531F1058A
:103FA00008F059C0E75AFD4C0C948B300E943A1E21
:103FB000812FDF91CF911F91089548E25EE167E183
:103FC0007EE10E94A41FF4CF47E15EE168E27EE15A
:103FD000F8CF4CE25AE16EE17AE1F3CF4EE15AE1DB
:103FE0006CE27AE1EECF4EE45AE16DE37AE1E9CF9B
:103FF0004DE35AE16EE47AE1E4CF40E75AE16FE540
:104000007AE1DFCF4FE55AE160E77AE1DACF44EABF
:1040100058E164E878E1D5CF44E858E164EA78E112
:10402000D0CF81E00E942C1EC3CF65E082E00E94C9
:10403000AB1FBECF68E086E0FACF6EE089E0F7CF35
:1040400064E18FE0F4CF67E185E1F1CF88E1EACF69
:104050006FE18AE1ECCF11E0ABCF519A08959C015A
:10406000AB016BB16D7F7BB17260EFB7F894CA01A1
:10407000880F991F840F951F820F931F8217930734
:1040800041F4EFBF8FE594E00197F1F700C0000025
:104090000895D9014D919D0158E07BB9000000C001
:1040A00047FF6BB9440F000000C000C000C06BB9EF
:1040B00000C05A9591F7E2CF0E94A10E089580E0CA
:1040C0000E94DC12817008950E940A142FEF86E787
:1040D00091E0215080409040E1F700C000000E9434
:1040E0000A140E945F20882321F00E945C200E9415
:1040F000B32708950E94642008950895FC01680F75
:10410000791F8FEF91E3E617F70709F408952191DE
:10411000822728E030E087FF08C0880F89272150D8
:10412000310921153105B9F7EECF880FF8CFCF93BC
:10413000DF93EB0186319C4719F50E94780D9D8134
:104140009923A1F08A7A91E0811101C090E09093C7
:104150003C03882349F085E30E9421260E94320E09
:1041600080E0DF91CF91089589E2F6CF80913C0302
:10417000882321F085E30E943826F0CF89E2FBCF27
:1041800081E0EFCFCF93DF93EC01FB0185818823A2
:1041900009F4D2C09E0130572332310508F0B2C075
:1041A0000E94BD0E9093610380936003FE01E15075
:1041B000F047E232F10520F4E259FD4C0C948B30CB
:1041C0008091600381608093600393C0809161035C
:1041D0008860809361038DC0809160038260F3CF1B
:1041E000809160038460EFCF809160038860EBCFA3
:1041F000809161038160EDCF809161038260E9CF9E
:10420000809160038061DFCF809160038062DBCFAB
:10421000809160038064D7CF0E940C098091600375
:104220008068D1CF809160038C60CDCF8091610395
:104230008360CFCF809160038E7FC5CF8091610373
:10424000877FC7CF809160038D7FBDCF8091600352
:104250008B7FB9CF80916003877FB5CF8091610359
:104260008E7FB7CF809161038D7FB3CF8091600344
:104270008F7EA9CF809160038F7DA5CF8091600351
:104280008F7BA1CF0E940C09809160038F779BCF19
:1042900080916003837F97CF809161038C7F99CF5A
:1042A0008091600382FB992790F921E0922790FB8F
:1042B00082F990FB83F987CF80916103982F9095C5
:1042C00091708E7F892B90FB81F983CF9091600351
:1042D000892F8F7B96FF806476CF0E940C09909186
:1042E0006003892F97FB87F980586DCF81E00E948A
:1042F000460F80916003909161030E94C20E0E945C
:104300000C0980E0DF91CF91089580E0F0CF90918B
:104310006003892F8F7E94FF806155CF9091600359
:10432000892F8E7F90FF81604ECF90916103892FFE
:10433000877F93FF88604DCF81E0E4CF282F35EB56
:104340002303C001112497FF04C080589109892FCD
:10435000089580589F4FFBCF8091430380FF0DC08D
:104360006091370170E0660F771F60387105C0F506
:1043700061157105B9F1862F089581FF07C060911D
:10438000370184E0689FB0011124EFCF82FF04C0A1
:104390006091370188E0F6CF809142038823E9F0ED
:1043A000909136016091370170E0891730F093E009
:1043B000660F771F9A95E1F7D8CF869F9001879F68
:1043C000300D112483E0220F331F8A95E1F7692F06
:1043D00070E0C9010E945530C8CF68E070E0CBCFD3
:1043E0008FE7089581E008958091430380FF0CC01A
:1043F0006091330170E075956795759567956115C6
:10440000710561F1862F089581FF06C06091330127
:1044100070E075956795F3CF6091330170E082FD90
:1044200015C0209141032223B1F090913201609197
:10443000330170E0291750F4269FA001279F500DEB
:104440001124692F70E0CA010E945530603871054F
:10445000B0F28FE7089561E070E0D4CF81E0089575
:104460009091460320914703922B20914903922B70
:1044700020914803922B992331F098E090934203C6
:1044800091E0909341038D3C31F40E94AC218195E1
:10449000809347030895E2E3E80FE231B0F5F0E0DE
:1044A000E057FD4C0C948B300E94AC21F1CF0E9460
:1044B000AC2181958093460308950E94AC21FACFE8
:1044C0000E94F4218093480308950E94F42181956D
:1044D000F9CF0E94F42181958093490308950E94A9
:1044E000F421FACF815D990B21E030E001C0220F69
:1044F0008A95EAF780914503822B809345030895BE
:104500008091430381608093430308958091430326
:104510008260F9CF809143038460F5CF40914603D8
:104520008D3C59F48091470387FF0DC010924703DB
:10453000442359F41092420308C08E3C81F48091C8
:10454000470318169CF3442381F08091480390910F
:104550004903892B811159C01092410308958F3C62
:1045600041F447FFF0CF1092460380914703882320
:10457000E0CF803D19F41416B4F3E5CF90914803D1
:10458000893D29F41916FCF610924803DCCF8A3DC8
:1045900019F497FFD8CFF8CF909149038B3D29F4B8
:1045A00097FFD1CF10924903CECF8C3D19F4191645
:1045B000CCF3C9CF9FE2980F983090F4815D990BAE
:1045C00021E030E0B90102C0660F771F8A95E2F75B
:1045D000CB01809590914503892380934503B3CF08
:1045E0008D3D31F4809143038E7F80934303ABCFA5
:1045F0008E3D21F4809143038D7FF7CF8F3D09F0ED
:10460000A2CF809143038B7FF0CF08950E9437277C
:104610002091460330914703232B222321F08093DE
:104620003F03909340032091480330914903232B8B
:10463000222321F080933D0390933E0384E493E092
:104640000E941725089586E0E4E4F3E0DF011D925F
:104650008A95E9F7109242031092410310924303A6
:104660000895FC01828181110DC0838181110AC0EE
:104670008481811107C081E09581911101C080E0A2
:104680008170089581E0FCCFA6E0B0E0EAE4F3E2B7
:104690000C94CF3086E0E4E4F3E09E012F5F3F4FBF
:1046A000D90101900D928A95E1F71092460310927C
:1046B000470310924803109249038B819C81892BF8
:1046C0008901882391F080913F03909140030E94DB
:1046D00060279C01809142038823C9F140913801F1
:1046E00050E04217530708F43FC08D819E81892B0B
:1046F000882399F080913D0390913E030E946027AA
:104700009C0180914103882309F467C040913401E2
:1047100050E04217530708F46EC0B80184E493E0F8
:104720000E946926811105C084E493E00E94312330
:1047300081110E94062386E0F801A4E4B3E0019011
:104740000D928A95E1F72696E5E00C94EB304091C6
:1047500039019AE0499FA00111244217530728F616
:104760008F5F8093420302C08F3FD1F7FB80FF2011
:1047700059F00E94AC2191E01F140CF09FEF899F2B
:10478000802D112480934603FC80FF2059F00E9465
:10479000AC2191E01F140CF09FEF899F802D112414
:1047A0008093470380914603882309F49ECFF090BD
:1047B0004703FF2009F499CF0E949E21811101C077
:1047C00081E0809346038F2D0E949E21882319F05B
:1047D000809347038ACF81E0FBCF409135019AE077
:1047E000499FA00111244217530708F096CF8F5F0D
:1047F0008093410302C08F3FD1F7FD80FF2059F025
:104800000E94F42191E01F140CF09FEF899F802DEE
:10481000112480934803FE80FF2059F00E94F42168
:1048200091E01F140CF09FEF899F802D112480933D
:10483000490380914803882309F46FCFF09049031E
:10484000FF2009F46ACF0E949E21811101C081E0FE
:10485000809348038F2D0E949E21882319F0809316
:1048600049035BCF81E0FBCF0F931F93CF93DF937F
:10487000C42FD22FFC0185818823C9F040934C03BB
:104880000E94372790934B0380934A0380E28C0F5A
:10489000883040F4C77081E001C0880FCA95EAF7FC
:1048A0000E94AF06DF91CF911F910F910895109153
:1048B0004C0314133CC080914A0390914B030E9417
:1048C0006027883C910598F5C0E2CD0F1D1741F196
:1048D00080E2810F883040F4177081E001C0880FBA
:1048E0001A95EAF70E94B606C83020F0802F0E9481
:1048F000A606D8CF91E08D2F877001C0990F8A95B9
:10490000EAF7892F0E94AF06802F0E94A606D77073
:1049100081E001C0880FDA95EAF70E94B606C2CF9F
:10492000802F0E94A606C83008F0BCCFF0CF80E2EE
:104930008C0F883008F0B6CFC77081E001C0880FB7
:10494000CA95EAF7EACF0F93FC01CB01E851FC4787
:10495000E730F10590F5EE55FD4C0C948B3006E2F6
:1049600021EE41EE6AE17CE70E94342480E00F9161
:10497000089507E225EE45EE6BE17CE7F5CF06E210
:1049800021EE40EE68E17CE7EFCF07E225EE44EE52
:1049900069E17CE7E9CF06E221EE42EE6CE17CE7DB
:1049A000E3CF07E225EE46EE6DE17CE7DDCF08E2DE
:1049B00021E045EE6EE17CE7D7CFFB0185818111D7
:1049C00010924C0381E0D3CF909353038093520312
:1049D00008950E949914811103C080914D03089598
:1049E000E0915203F0915303309729F00190F08148
:1049F000E02D0995089580E00895E0915203F0912B
:104A00005303309721F00280F381E02D099508953A
:104A1000DC01E0915203F0915303309739F086E0C6
:104A20008C930480F581E02DCD0109950895DC017A
:104A3000E0915203F0915303309739F082E08C9368
:104A40000680F781E02DCD0109950895A3E0B0E03F
:104A5000ECE2F5E20C94D2309C01809150039091ED
:104A6000510382179307A1F0309351032093500311
:104A7000E0915203F0915303309751F083E0898322
:104A80003B832A830084F185E02DCE0101960995B0
:104A90002396E2E00C94EE30A3E0B0E0E2E5F5E22C
:104AA0000C94D2309C0180914E0390914F03821759
:104AB0009307A1F030934F0320934E03E0915203EC
:104AC000F0915303309751F084E089833B832A832C
:104AD0000084F185E02DCE01019609952396E2E050
:104AE0000C94EE3020910601309107012E5F3F4F6C
:104AF000809144018823A9F08091600387FF11C051
:104B000020910401309105012E5F3F4F9DE180E02F
:104B1000F90140812F5F3F4F41118F5F9150C0F7E6
:104B2000089595E0F4CF882321F1909144019923D1
:104B300011F19091600397FF1EC0982F969596955E
:104B40009695803FB0F4E0910401F0910501E90FE2
:104B5000F11D228130E0877041E050E0BA0102C0CF
:104B6000660F771F8A95E2F72623372381E0232BF0
:104B700091F480E008952091060130910701F90138
:104B80003296285F3F4F9191981721F0E217F30773
:104B9000D1F7EFCF81E008959C01FC0132968FEFB1
:104BA00090E04191461751F08F3F19F4411101C037
:104BB000892F9F5F9630A9F78F3F09F40895280F3A
:104BC000311D87FD3A95F901628308959C01FC012E
:104BD0003296285F3F4F8191861303C0DF01119702
:104BE0001C92E217F307B9F70895FC01862F86950A
:104BF00086958695603F60F4E80FF11D677021E0AF
:104C000030E001C0220F6A95EAF78281822B82830D
:104C10000895FC01862F869586958695603F80F4E1
:104C2000E80FF11D677081E090E09C0102C0220F47
:104C3000331F6A95E2F7B901609582816823628328
:104C40000895682F80914401882359F08091600372
:104C500087FF07C080910401909105010E94F5250E
:104C6000089580910601909107010E94CC25089536
:104C7000682F80914401882359F08091600387FF59
:104C800007C080910401909105010E9409260895B2
:104C900080910601909107010E94E6250895809178
:104CA0004401882379F08091600387FF0BC0E09175
:104CB0000401F091050132968EE1DF011D928A9583
:104CC000E9F70895E0910601F0910701329686E038
:104CD000F4CFDC01FB0111969C911197818198130F
:104CE00022C012968C911297882319F09281891311
:104CF0001AC013968C911397882319F09381891306
:104D000012C015968C911597882319F095818913F7
:104D10000AC014969C91992321F081E024812913E3
:104D200003C080E001C081E08170089508950E9471
:104D3000962608958F5F809354030E9497260895C6
:104D400083E0809354030E94972608950E949A2638
:104D5000089581E0809354030E94972608950E944D
:104D6000A9260895089508950E94B32608950895E8
:104D700008950E94B2260895CF930E94B7260E94FC
:104D80000A140E94B826C0E08C2F0E94DC12811108
:104D900005C0CF5FCA30C1F7CF91089581E0FCCF45
:104DA00085B7806885BF85B7806885BF08951F92E5
:104DB0001FB61F9211248F939F93AF93BF9380913F
:104DC0005503811113C08091A8039091A903A0916C
:104DD000AA03B091AB034196A11DB11D8093A80316
:104DE0009093A903A093AA03B093AB03BF91AF9193
:104DF0009F918F911F901FBE1F9018958091B003B7
:104E0000843031F10E9463051092550388E190E0EF
:104E100020E40FB6F894A895809360000FBE20930D
:104E2000600083B7817F846083BF83B7816083BF65
:104E30007894889583B78E7F83BF0FB6F894A89532
:104E400080916000886180936000109260000FBEC6
:104E500008950E940C090E946805089582E084BDAF
:104E600093E095BD9AEF97BD80936E0008952FB79C
:104E7000F8948091A8039091A903A091AA03B091FE
:104E8000AB032FBF0895A4E0B0E0E9E4F7E20C948F
:104E9000D2308FB7F8942091A8033091A9034091A4
:104EA000AA035091AB0329833A834B835C838FBF62
:104EB00069817A818B819C812496E2E00C94EE30AA
:104EC0009C014FB7F8948091A8039091A903A091F9
:104ED000AA03B091AB034FBF821B930B0895A4E0CC
:104EE000B0E0E5E7F7E20C94D030462F572FBC0135
:104EF0002FB7F8948091A8039091A903A091AA03D9
:104F0000B091AB032FBF8C019D01041B150B260B29
:104F1000370BC901B8012496E4E00C94EC30789486
:104F20001F921FB61F9211248F939F93AF93BF932D
:104F30008091A8039091A903A091AA03B091AB031B
:104F40000196A11DB11D8093A8039093A903A0937E
:104F5000AA03B093AB03BF91AF919F918F911F9024
:104F60001FBE1F90189587E797E7909301088093DD
:104F7000000888E19AE00FB6F894A8958093600045
:104F80000FBE90936000FFCF88E19AE00FB6F894CF
:104F9000A895809360000FBE90936000FFCF8EE1D4
:104FA000489B03C081508111FBCF489BFECF0895E1
:104FB000589880E28A95F1F7589A0895FC012BE001
:104FC0002A95F1F728E090E080E031E040E14A9551
:104FD000F1F7880F489B02C08160932742E04A9511
:104FE000F1F7000040E14A95F1F721502111EECF91
:104FF00020E12A95F1F729B132E03A95F1F7000066
:1050000040E14A95F1F7217092272081920F908319
:105010000895A1E0B0E0EFE0F8E20C94CE30198200
:105020008C017C01E60EF11C0E151F0541F481E098
:105030009981911180E02196E6E00C94EA300E947B
:10504000CF27CE0101960E94DE27F80181938F01C0
:10505000EBCF509A589A08955098589AE89AE9E6F2
:10506000F0E080818C7F808308956150770B91E020
:1050700001C0990F6A95EAF7692F90E021E061116C
:1050800008C0992399F0589A80E28A95F1F75898C8
:105090000895362F3823332339F0589A922730E277
:1050A0003A95F1F76695EBCF5898F9CF5898ECCF31
:1050B000FF920F931F93CF93DF93EC018C01060FA8
:1050C000111DC017D10729F4CDB7DEB7E5E00C9468
:1050D000EB30F9900E94D82768E08F2D0E94352888
:1050E000F0CF1F920F920FB60F9211240F931F93C0
:1050F0002F933F934F935F936F937F938F939F93E0
:10510000AF93BF93EF93FF93CF93DF930F92CDB7FE
:10511000DEB719820E94CF27CE0101960E94DE27BA
:10512000082F069506950695982F92959570202F35
:105130002570920F292F237096959695920F982798
:1051400097708981892B81115CC0053008F059C0A6
:1051500080E18A95F1F7589A509A82E08A95F1F7A2
:1051600000C0589888E0089F80011124D801A75FEB
:10517000BE4F1696ED91FC9117973097A9F060916C
:10518000BC017091BD0114962D913C911597260F8D
:10519000371F11968D919C911297680F791F139666
:1051A0004C9113978C910995F801E75FFE4F63814D
:1051B000662351F02091BC013091BD01848195811D
:1051C000820F931F0E9458280E94D82780E18A9559
:1051D000F1F758985098589A80E18A95F1F7F801BC
:1051E000E75FFE4F6081662351F02091BC01309152
:1051F000BD0181819281820F931F0E9409280E9424
:10520000CF270F90DF91CF91FF91EF91BF91AF9199
:105210009F918F917F916F915F914F913F912F91CE
:105220001F910F910F900FBE0F901F9018950F9325
:105230001F93CF93DF938C0105970CF065C0F89412
:10524000509A589885E08A95F1F70000C02FC695CE
:10525000C570802F8570C80F8C2F8370C695C6953A
:1052600093E0000F111F9A95E1F7C80FC8018C2B2E
:10527000EC010E94D82700C068E08C2F0E943528DE
:1052800090E19A95F1F75098589A489B35C087E07D
:1052900090E0489933C0F801E75FFE4F63816623D1
:1052A00061F02091BC013091BD0184819581820F14
:1052B000931F0E940928882321F10E94CF2780E2B2
:1052C0008A95F1F75898509A90E19A95F1F7F8017C
:1052D000E75FFE4F6081662351F02091BC01309161
:1052E000BD0181819281820F931F0E9458280E94E4
:1052F000D827789481E009C000C0C7CF01970097F4
:1053000049F4509A589A789480E0DF91CF911F9198
:105310000F91089500C0BDCF80915E030895282F9E
:10532000CB01BA013091B0033430E1F42F702093F7
:10533000E9002FEF3091E80035FD07C035ED3A95D3
:10534000F1F7000021502111F5CF2091E80025FF51
:1053500009C040E050E00E94932B8091E8008E77D6
:105360008093E8000895BC0143E050E082E00E9491
:105370008F290895BC0146E050E082E00E948F2909
:105380000895BC0140E250E082E00E948F29089518
:10539000CF93DF93D82FC92F48E050E0682F792FA3
:1053A00081E00E948F2988E0ED2FFC2FA6E5B3E075
:1053B00001900D928A95E1F7DF91CF910895809148
:1053C000AF03811109C00E941B2D0E94782D80918E
:1053D000E20084608093E20008951092AF03089584
:1053E0000E94A92608956091AC0381E0611101C07B
:1053F00080E00E94A02608959091B00381E094304F
:1054000009F080E06091AC030E94A626089542E076
:1054100061EC81E00E94972C42E261EC82E00E9404
:10542000972C9091B00381E0943009F080E0609176
:10543000AC030E949A2608958091B203893089F1C5
:1054400048F4823009F4A0C0833009F45AC0813096
:1054500041F008958A3009F487C08B3009F46CC09C
:1054600008958091B103813A09F04AC08091E80023
:10547000877F8093E8008091B5039091B603892BD4
:1054800061F060E080E090E070E00E94E22B8091AB
:10549000E8008B778093E800089568E086E593E064
:1054A000F3CF8091B103813259F58091B50390918A
:1054B000B603029728F58091E800877F8093E80083
:1054C0008091E80082FF18C09091F3008091F20073
:1054D000029731F48091F100813011F0863021F48F
:1054E0008091F10080935E038091E8008B77809338
:1054F000E8000E94CB2C04C08091B0038111E0CF62
:1055000008958091B103813AD9F78091B5039091C4
:10551000B603892BA9F78091E800877F8093E80084
:105520008091E80080FFFCCF809144018093F100DE
:105530008091E8008E77DBCF8091B103813201F753
:105540008091B5039091B603892BD1F68091E80044
:10555000877F8093E8000E94CB2C8091B3038093D7
:1055600044010E940C0908958091B103813241F6F3
:105570008091E800877F8093E8000E94CB2C809187
:10558000B40380935F0308958091B103813A09F0D9
:10559000B7CF8091E800877F8093E8008091E80092
:1055A00080FFFCCF80915F03C1CF84B7877F84BF2A
:1055B0000FB6F894A8958091600088618093600090
:1055C000109260000FBE80E890E00FB6F8948093D0
:1055D0006100909361000FBE0E94AF2608950E9463
:1055E0001B2D0E94782DE2EEF0E0808184608083A4
:1055F00078940E94FB2F08958AE391E00E94E424AE
:1056000008958091B003853031F48091B0038530E6
:1056100019F00E94292708950E94FE268091AE036A
:10562000882399F30E94BC26882379F30E947D2B5E
:105630000E940C09EACF08959A014091B703509156
:10564000B8030E94242B0895AC01CB01D901252F6A
:10565000332723303105E1F058F421303105C9F109
:1056600022303105D9F180E090E020E030E01EC02A
:105670002132310521F122323105A9F7892BC1F1FF
:105680006130710581F786EB90E02AE236E00EC0CA
:10569000CA019927413069F08230910569F0E9ED3E
:1056A000F5E0892B01F7849190E09F012D933C93C5
:1056B0000895EFEBF5E0F7CFEBE9F5E0F4CF892BB8
:1056C00091F06130710579F689E090E028E036E0EC
:1056D000EDCF82E190E028E136E0E8CF8BE390E087
:1056E0002DED35E0E3CF89E090E02FEE35E0DECF21
:1056F00084E490E020EE36E0D9CF80E189BD82E1FC
:1057000089BD09B400FEFDCF8091D8008F7D8093C4
:10571000D8008091E00082608093E0008091E000FA
:1057200081FDFCCF0895AF92BF92CF92DF92FF929E
:105730000F931F93CF93DF936C01EB018A010E94BB
:10574000EA2CF82E811123C00115110539F0F8015A
:1057500080819181C81BD90BC80ED91EA12CB12CF8
:105760002097A9F08091E80085FD22C08091E80093
:105770008E778093E80001151105A1F0F801808172
:1057800091818A0D9B1D9183808385E0F82E8F2D5A
:10579000DF91CF911F910F91FF90DF90CF90BF903D
:1057A000AF9008950E94EA2C8823E1F2F82EEFCF03
:1057B000F60181916F018093F1002197FFEFAF1AFD
:1057C000BF0ACECFFC019B018091B7039091B80333
:1057D0008617970718F0672B61F0C90140E0009722
:1057E00071F441110CC08091E80082FF35C080E067
:1057F00008958091E8008E778093E800EECF2091A5
:10580000B0032223A9F12530A9F12091E80023FD5E
:105810002DC02091E80022FDE6CF2091E80020FF76
:10582000DECF3091F3002091F200009719F028307C
:10583000310558F041E02830310509F040E0209171
:10584000E8002E772093E800CACF41914093F10001
:1058500001972F5F3F4FE9CF8091B003882341F03C
:10586000853041F08091E80083FFBDCF81E008954D
:1058700082E0089583E00895FC019B018091B703C5
:105880009091B8038617970718F0672B61F0C9014C
:1058900040E0009771F441110CC08091E80082FF54
:1058A00036C080E008958091E8008E778093E8000C
:1058B000EECF2091B0032223B1F12530B1F1209138
:1058C000E80023FD2EC02091E80022FDE6CF2091C4
:1058D000E80020FFDECF3091F3002091F200009726
:1058E00019F02830310558F041E02830310509F031
:1058F00040E02091E8002E772093E800CACF449141
:105900004093F100319601972F5F3F4FE8CF809190
:10591000B003882341F0853041F08091E80083FF97
:10592000BCCF81E0089582E0089583E00895982F28
:10593000973028F08F708093E90081E0089590936C
:10594000E900242F762F50E0981731F07091EC0089
:105950002091ED005091F00021FD02C09F5FE8CF43
:105960003091EB003E7F3093EB003091ED003D7FB6
:105970003093ED003091EB0031603093EB00709389
:10598000EC002093ED005093F0002091EE0027FDF5
:10599000E5CF80E008958091B10387FF13C0809127
:1059A000E80082FF06C08091E8008B778093E800D2
:1059B00004C08091B0038111F2CF08958091B003AB
:1059C0008823D9F38091E80080FFF8CF8091E80028
:1059D0008E77ECCF2091E4003091E50095E6A901A7
:1059E0008091EC008170882331F08091E80080FF85
:1059F00006C080E008952091E80022FD1BC0809140
:105A0000B003882391F0853091F08091EB0085FD03
:105A100010C02091E4003091E5004217530701F3D4
:105A200091509111DCCF84E0089582E0089583E0E5
:105A3000089581E008950E948A2D0E94922DE0EE43
:105A4000F0E0808181608083E8EDF0E080818F77F5
:105A5000808319BCA7EDB0E08C918E7F8C93808100
:105A60008F7E80831092AF0308950F931F93CF937F
:105A7000DF930E948A2D0E94922DC8EDD0E088818C
:105A80008F77888388818068888388818F7D8883E9
:105A900019BC1092B0031092AC031092AE03109296
:105AA000AD0300EE10E0F80180818B7F8083888158
:105AB0008160888342E060E080E00E94972CE1EE04
:105AC000F0E080818E7F8083E2EEF0E08081816073
:105AD0008083808188608083F80180818E7F8083CD
