:100000000C9492030C94A4280C94AF030C94AF03AB
:100010000C94AF030C94AF030C94AF030C94AF0398
:100020000C94AF030C94AF030C94CA2D0C949D2E2A
:100030000C940A270C94AF030C94AF030C94AF03F9
:100040000C94AF030C94AF030C94AF030C94AF0368
:100050000C94AF030C94C2270C94AF030C94AF0321
:100060000C94AF030C94AF030C94AF030C94AF0348
:100070000C94AF030C94AF030C94AF030C94AF0338
:100080000C94AF030C94AF030C94AF030C94AF0328
:100090000C94AF030C94AF030C94AF030C94AF0318
:1000A0000C94AF030C94AF030C94AF0329001E0013
:1000B0001F002000210022002B0014001A0008005D
:1000C00015001700390004001600070009000A0097
:1000D000E1001D001B00060019000500E000E30020
:1000E000E200245222522C00230024002500260086
:1000F00027002A001C0018000C0012001300310019
:100100000B000D000E000F00330034001100100032
:1001100036003700520028002C00215238005000D1
:1001200051004F0001000100010001000100010029
:1001300001000100CD0001000100A9000100CF0075
:10014000CE00D0000100AA00010001000100010062
:100150000100010001000100010001002352010023
:10016000010001000100010001004C00010001003C
:100170000100010001000100010001000100010077
:100180000100010001000100010001000100D10097
:10019000010001000100010001000100007C0100DC
:1001A0000100010001000100010001000100010047
:1001B0000100010001000100010001000100010037
:1001C0000100010001000100010001000100010027
:1001D00001000100010001000100010001002602F0
:1001E00027024C000100010001002F023002010033
:1001F00001002E022D002F003000010001002E0012
:100200002D023602370201000100235201000100D5
:1002100001000100007C297825782778217823784F
:1002200001002A78267828782278247801000100B5
:10023000010001002178010001000100010001001E
:1002400001000100010001000100010001000100A6
:100250000100010001000100010001000100010096
:100260000100010001000100010001000100010086
:100270000100010001000100010001000100010076
:100280000100010001000100010005523A003B009D
:100290003C003D003E003F00010001000100010064
:1002A0000100010001000100010001000100010046
:1002B0000100010001000100010001000100010036
:1002C0000100010001000100400041004200430024
:1002D000440045000100010001000100010001008F
:1002E0000100010001000100010001000100010006
:1002F0000100D200CD00D100010001000100CF00BB
:10030000CE00D00029004A004B00407E417E0052C2
:1003100022024D004E00447E457E01004C0001004B
:100320001600070028000100E1001D011C01060164
:1003300019010100E000427E437E467E477E0100B7
:100340000100010001000100010053000100010053
:100350000100010001000100010001000100010095
:100360000100010001000100010001000100010085
:100370000100010001000100010001001E0F057FC6
:100380003F1F643214643214783C1E1E140A052286
:1003900023252628292A2C2D2F3032333536383A7A
:1003A0003B3D3E4042434547494A4C4E50515355D0
:1003B00057595A5C5E6062646668696B6D6F7173F1
:1003C0007577797B7D7F81838587898A8C8E9092F2
:1003D0009496989A9C9E9FA1A3A5A7A8AAACAEAFFD
:1003E000B1B3B4B6B8B9BBBCBEBFC1C2C3C5C6C742
:1003F000C9CACBCCCDCED0D1D2D2D3D4D5D6D7D7F3
:10040000D8D9D9DADADBDBDBDCDCDCDCDCDDDDDD3A
:10041000DDDCDCDCDCDCDBDBDBDADAD9D9D8D7D736
:10042000D6D5D4D3D2D2D1D0CECDCCCBCAC9C7C6E3
:10043000C5C3C2C1BFBEBCBBB9B8B6B4B3B1AFAE21
:10044000ACAAA8A7A5A3A19F9E9C9A9896949290C7
:100450008E8C8A89878583817F7D7B79777573719F
:100460006F6D6B6968666462605E5C5A595755537C
:1004700051504E4C4A4947454342403E3D3B3A3835
:1004800036353332302F2D2C2A29282625232200D9
:100490000102030405060708090A0B000101010116
:1004A000010101010102020202020202020203032F
:1004B00003030303030304040404040404050505FF
:1004C00005050606060606070707070708080808C1
:1004D000090909090A0A0A0B0B0B0C0C0C0D0D0D6E
:1004E0000E0E0E0F0F0F1010111111121213131404
:1004F00014151516161717181819191A1A1B1B1C7C
:100500001D1D1E1E1F2020212222232424252626D5
:10051000272829292A2B2C2D2D2E2F30313232330A
:100520003435363738393A3B3C3D3E3F4041424313
:100530004445464748494A4C4D4E4F5051535455F7
:100540005658595A5B5D5E5F616264656668696BA7
:100550006C6D6F7072737577787A7B7D7E80828325
:100560008587888A8C8E8F91939596989A9C9EA069
:10057000A2A3A5A7A9ABADAFB1B3B5B7BABCBEC076
:10058000C2C4C6C9CBCDCFD1D4D6D8DBDDDFE2E43F
:10059000E7E9EBEEF0F3F5F8FAFDFF2203680061FE
:1005A000006E006400770069007200650064002F2F
:1005B000006200690062006100360030000000182F
:1005C00003440061006E00690065006C0020004279
:1005D0000069006200610000000403090409023B95
:1005E00000020100A0FA0904000001030101000952
:1005F00021110100012244000705810308000109BF
:10060000040100010300000009211101000122B6CC
:10061000000705820320000112010002000000080B
:100620004442000000010102000105010902A1018C
:1006300085020901A10005091901290815002501F4
:100640009508750181020501093009311581257F61
:1006500095027508810609381581257F9501750871
:100660008106050C0A38021581257F9501750881E0
:1006700006C0C005010980A101850319012AB70040
:10068000150126B700950175108100C0050C090100
:10069000A101850419012AA002150126A0029501D5
:1006A00075108100C005010906A10185060507191D
:1006B000E029E71500250195087501810205071954
:1006C0000029EF1500250195F07501810205081933
:1006D000012905950575019102950175039101C0E8
:1006E00005010906A101050719E029E71500250103
:1006F00095087501810295017508810105071900AA
:1007000029FF150026FF00950675088100050819C8
:1007100001290515002501950575019102950175C1
:10072000039101C011241FBECFEFDAE0DEBFCDBFC1
:1007300011E0A0E0B1E0ECECF5E602C005900D920E
:10074000AE3DB107D9F723E0AEEDB1E001C01D9297
:10075000A83BB207E1F70E9407170C9461320C9492
:1007600000000895DB01FC01E054FE47E830F1058C
:1007700008F067C0ED59FD4C15969C910C94BE3065
:10078000992351F080EE0E94130686EE0E94130614
:100790008FE50E94130609C08FE50E945B0686EE76
:1007A0000E945B0680EE0E945B0680E0089599231C
:1007B00041F080EE0E94130686EE0E94130689E542
:1007C000E8CF89E5EACF992329F080EE0E9413064D
:1007D00087E5DFCF87E5E4CF992329F080EE0E94FB
:1007E000130686E5D6CF86E5DBCF992341F080EE70
:1007F0000E94130686EE0E94130681E6CACF81E6A8
:10080000CCCF992341F080EE0E94130686EE0E9421
:1008100013068BE5BECF8BE5C0CF80EE911108C0EB
:100820008AE0BECF992341F080EE0E94130681EE4C
:100830000E9413068AE0ADCF8AE00E945B0681EE3B
:10084000AFCF81E008950E94301E81E00E942C1EEF
:100850000895CF93DF93D82FC92F0E946D05833061
:1008600031F188F48130D1F08230D1F04FEF6FEF69
:100870008AE60E94741A85E10E942C1E8D2F9C2FFF
:10088000DF91CF9108958430A1F08530A1F040E050
:1008900060E080E00E94741A81E0EECF86E0ECCF49
:1008A0004FEF6FEF8BE20E94741A8FE0E5CF89E083
:1008B000E3CF83E2E1CF89E1DFCF8630B8F46A305D
:1008C000A8F4463098F4E42FF0E096E0699FE00D3C
:1008D000F11D11249CE3899FE00DF11D1124EE0F01
:1008E000FF1FE455FF4F85919491089581E090E0BA
:1008F00008950E945D04089581E008950E947C049B
:10090000089581E008950E94B203089508950E9419
:1009100086040895A6E0B0E0E0E9F4E00C94043128
:1009200049835A839E833091E50189819A813111EF
:100930001AC03E81332399F0222389F00E945B0A7A
:10094000182F682F89819A810E94370A69817A81DC
:10095000812F0E945B112696E3E00C9420310E94C7
:10096000490A182FF3CF0E945B0A69817A81F1CF7F
:10097000FC01262F408151816281738184819581A0
:100980000E948A040895CF93DF93D82FC92F61E086
:100990000E94B8046D2F7C2F0E947E04DF91CF91BE
:1009A0000895CF93DF93D82FC92F60E00E94B80439
:1009B0006D2F7C2F0E948704DF91CF91089581E0F5
:1009C00008950E94DF040895CF93C82F0E940C0958
:1009D0008C2F0E94E1042FEF84E39CE021508040A3
:1009E0009040E1F700C00000CF91089581E00E949F
:1009F000E4040E94E627089580E00E94E4040E9437
:100A0000F72708950F931F93CF93DF938C0161E035
:100A10000E94B804EC01F801858181110E94A01F99
:100A2000B801CE010E9483048823E1F1B801CE0110
:100A30000E94D6248823B1F1B801CE010E94C220C1
:100A4000882381F1B801CE010E949720882351F1BB
:100A5000B801CE010E94C01F882321F1F8018581D1
:100A6000882381F0CA35FCE7DF0739F178F4C1301B
:100A7000ECE7DE07F9F0C330FCE7DF07C9F0C1158A
:100A8000DC4771F0C8010E9481040DC0CB35ECE752
:100A9000DE07B1F0CC35DC47A9F70E948F0EF2CF0C
:100AA0000E94F60480E0DF91CF911F910F9108958D
:100AB0000E94A10E0E94FC04F5CF0E94990EE2CF85
:100AC0000E949D0EDFCF0E94E7260E94AE0508958A
:100AD0000E94B2050E94EC2608959C01892F992757
:100AE0000097E9F09C0188E0A90174E056954795CC
:100AF0007A95E1F74115510511F08C5F9A01A90132
:100B000056954795569547954115510511F08E5FBD
:100B10009A0136952795232B09F08F5F089580E081
:100B2000E3CF089581E008950895CF93DF93D82F00
:100B30000E949205C82F882319F08D2F0E949405DA
:100B40008C2FDF91CF9108950895CF93C82F0E94E5
:100B500091058C2F0E949505CF91089580E00E9409
:100B6000A50508950E941C250E94A5050895CF9310
:100B70000E941C25C82F8091E0018C1779F0C0934A
:100B8000E0010E9476276093E1017093E201809377
:100B9000E3019093E4018C2F0E94A505CF91089565
:100BA000ADE0B0E0E6EDF5E00C94053148875987FB
:100BB0006A877B878C879D8791110E949A0D1F827F
:100BC00086E0FE013896DE01119601900D928A951D
:100BD000E1F78D8181110DC029813A814B815C81C2
:100BE0006D817E818F810E94E00C2D96E2E00C9455
:100BF0002131CE0101960E94C3048111EDCFF5CFC2
:100C0000FC018481813021F4808191810E948D0AD0
:100C10000895662329F00E9446220E9432230895F7
:100C20000E94B622FACFCF93C82F882399F08CEF79
:100C30008C0F813A88F48C2F0E94C625882329F0D6
:100C40008C2F0E946B260E94320E8C2F0E945426FD
:100C50000E94320ECF91089580E28C0F883048F4C4
:100C6000C77081E001C0880FCA95EAF70E947B0D2A
:100C7000EFCF8BE58C0F833038F42C2F2452330BBD
:100C8000C9010E945925E6CFE8E5EC0FEB3150F49D
:100C9000F0E0EE0FFF1FEF5BFE4F808191810E941D
:100CA0007F25D8CF83E38C0F8331A0F661E08C2FB2
:100CB0000E940906CFCF882381F19CEF980F913ACB
:100CC00028F40E946B260E94320E089590E2980F3D
:100CD000983050F4877091E001C0990F8A95EAF737
:100CE000892F0E94810DEFCF9BE5980F933028F458
:100CF00080E090E00E945925089598E5980F9B3177
:100D000028F480E090E00E947F25089593E3980FF7
:100D1000933118F460E00E94090608951F93CF9361
:100D2000DF93182FEB010E941306209739F4812FCF
:100D30000E945B06DF91CF911F9108958FE99FE09C
:100D40000197F1F700C000002197EFCF60E070E05D
:100D5000893311F460E570E00E948E0608958823BF
:100D600021F00E947B0D0E94320E0895882321F00D
:100D70000E94810D0E94320E0895A0E0B0E0E3ECE5
:100D8000F6E00C94FF306C01D62FC72FFC011581C3
:100D9000068102950F700E94700DE82E8823F9F0ED
:100DA000E12E1123E1F08C2F807F803461F080E20E
:100DB0008D0F8830F0F08C2F807E803221F4D2307D
:100DC000C0F00023B1F08091600382FF12C082E086
:100DD0000E94620E0E94700D91E0E82EE926EC2F31
:100DE000E295EF70C03CB0F5F0E0E559FD4C0C9495
:100DF000BE30E12CF4CF0C2F0F70C03110F00295F3
:100E0000007F112399F0002359F080E28D0F883084
:100E100010F0D11107C0802F0E947B0D0E94320E6E
:100E20008D2F51C0802F0E948C0DF8CF8D2F0E94E6
:100E30005B06002379F080E28D0F883010F0D1112D
:100E400004C0802F0E94810D03C0802F0E94920D4C
:100E50000E94320EEE2089F00E946C0D80FD0DC0C4
:100E6000F60115820E94660D0E949409C6010E9437
:100E7000D3080E94660D0E94A409CDB7DEB7E8E052
:100E80000C941B31FC2FFF70FF2EC07FC03219F075
:100E9000F29480EFF822DD2341F0D130D1F111231B
:100EA00009F444C00023F1F0BBCF8091600382FDC0
:100EB00015C0112359F0FF2029F08F2D0E947B0DC2
:100EC0000E94320E80E00E941306C4CF80E00E9490
:100ED0005B06FF2009F4BECF8F2DB4CF112369F03C
:100EE000011104C08F2D0E94AF06B4CF013009F06C
:100EF000B1CF8F2D0E94B20DADCF0111ABCF8F2D91
:100F00000E94B6068F2D0E94BE0D8F2D0E94A10D4E
:100F1000A1CF112321F0063008F09CCFE3CF05309C
:100F200008F098CF8F2D0E94B60694CF0023D1F3FE
:100F3000D93349F42FEF87EE93E021508040904061
:100F4000E1F700C000008D2F0E945B0683CF8C2F3D
:100F5000869586958370882369F0813009F07ACF71
:100F60008D2F9C2F9370111102C080E090E00E94A1
:100F70007F2570CF8D2F9C2F9370111102C080E0C0
:100F800090E00E94592566CF612F8D2F0E9409069F
:100F900061CF8C2F8370811139C0111129C04D2F61
:100FA000429546954770440F440F2D2F2F7030E027
:100FB000042E02C0220F331F0A94E2F780E090E073
:100FC000D4FF09C08FE090E002C0880F991F4A95B6
:100FD000E2F780959095C695C695C370822B932BAA
:100FE000C23071F0C33079F0C13039F00E94670926
:100FF0000E941C250E94A5052DCF0E945E09F8CFF6
:101000000E947009F5CF0E945B09F2CF112361F1B4
:10101000C0FFEECF4D2F429546954770440F440FC9
:101020002D2F2F7030E0042E02C0220F331F0A94A0
:10103000E2F780E090E0D4FF09C08FE090E002C0CA
:10104000880F991F4A95E2F780959095C695C695A9
:10105000C370822B932BC23069F0C33071F0C13062
:1010600031F00E94CF09C4CF823010F2D3CF0E945A
:10107000C609BECF0E94D809BBCF0E947C09B8CF59
:10108000CF70112339F08C2F0E9494098D2F0E946C
:10109000AF06AECF8D2F0E94B6068C2F0E94A409FA
:1010A000A7CFD23F31F170F4D03FB9F0D13FB1F1C9
:1010B000112309F44EC0002309F448C08D2F0E946B
:1010C000130696CFD33FE1F0D43F21F11111F3CFB6
:1010D00001114DC08C2F8F71E1CF112341F00530EC
:1010E00008F086CF8C2F8F710E94B60981CF053012
:1010F000F7CF8C2F8F711111D1CF0E94940978CF27
:10110000112329F08C2F8F710E94880971CF0E94C2
:1011100083096ECF8091600382FD06C08C2F8F7192
:10112000112309F4BBCFE9CF112331F063E08C2FF9
:101130008F710E94440E5CCF81E00E94620E0230EB
:1011400008F456CF82E00E94620E52CF8C2F8F712E
:10115000D4CF002309F4BECFD93349F4EFEFF7EE33
:1011600023E0E150F0402040E1F700C000008D2F67
:101170000E945B063DCF0F931F93CF93DF93EC014B
:10118000688179818D810E949A0A8C010E94E1090F
:101190000E945A09B801CE010E94BD06DF91CF918D
:1011A0001F910F910895CF93DF93EC018C818823D9
:1011B00099F0CE010E940205811111C00E94700DAC
:1011C000882351F08D81882339F08091600382FF5C
:1011D00003C082E00E94620EDF91CF910895CE019C
:1011E0000E94BB08CE010E94D104F6CF80E090E0BF
:1011F0000E94592580E090E00E947F250E949A0D70
:101200000E94320E0E944F230E94322308950E94B2
:1012100082260E94F60808950E94890D0E940709FF
:101220000895282F92959F70963091F060F4925F08
:101230009F70923030F481E0203F79F030F4283E06
:1012400030F080E008959A5FF3CF243FD1F70895FE
:1012500081E0283EE0F3213FF9CF0895FC0184812D
:10126000882339F0808191810E948D0A0E941109A2
:10127000089580E00895A6E0B0E0E1E4F9E00C9480
:1012800005312696E2E00C942131A7E0B0E0EBE4D2
:10129000F9E00C9405312796E2E00C942131089591
:1012A0000E944F0908950E9450099093090280936B
:1012B0000802089508950E94530908952091080294
:1012C00030910902822B932B0E945309089520919B
:1012D000080230910902822393230E945309089542
:1012E0002091080230910902822793270E94530916
:1012F00008950E94290408950E9479099093070295
:1013000080930602089580E090E00E947C09089591
:1013100021E030E0A90102C0440F551F8A95E2F791
:10132000CA010E947C09089521E030E002C0220F2A
:10133000331F8A95E2F78091060290910702822B73
:10134000932B0E947C09089521E030E002C0220F17
:10135000331F8A95E2F7209530958091060290918F
:101360000702822393230E947C09089521E030E044
:1013700002C0220F331F8A95E2F7809106029091F6
:101380000702822793270E947C0908952091060274
:1013900030910702822B932B0E947C0908952091A3
:1013A000060230910702822393230E947C0908954C
:1013B0002091060230910702822793270E947C0920
:1013C000089508959B01677091E001C0990F6A9597
:1013D000EAF763E0369527956A95E1F7220F331F08
:1013E000220F331FFA01E20FF31F40E050E0682F95
:1013F00070E08191DF0111979B01042E02C03695A8
:1014000027950A94E2F72170219528272923282778
:101410002C934F5F5F4F4430510559F708959C015D
:10142000982F977083E0369527958A95E1F7220FDC
:10143000331F220F331FFB01E20FF31F40E050E088
:1014400080E0219130E0092E02C0369527950A945C
:10145000E2F721703327042E01C0220F0A94EAF725
:10146000822B4F5F5F4F4430510559F70895282F65
:10147000862F9A3068F4263058F4622F70E026E008
:10148000929F600D711D112446EE51E00E94E20909
:101490000895292F9A3068F4863058F490E066EE6B
:1014A00071E036E0239F800D911D11240E940F0AE8
:1014B000089580E00895A0E0B0E0E1E6FAE00C9441
:1014C000FE308C01E0900602F09007028091080245
:1014D00090910902E82AF92ACFE0D0E0CC24C39405
:1014E000D12CC6010C2E02C0880F991F0A94E2F776
:1014F0008E219F21892B49F4219798F7B12C8B2DB0
:10150000CDB7DEB7E9E00C941A31BC2EB8018C2FB0
:101510000E946711019781F3F2CFCF93DF93D82F09
:10152000C92F0E945B0A6D2F7C2F0E946711DF91EB
:10153000CF9108951F93CF93DF93162FD72F9091BC
:10154000E501992341F0862F972F0E948D0ADF91A4
:10155000CF911F910895882381F0862F972F0E94A5
:101560005B0AC82F682F812F9D2F0E94370A612F99
:101570007D2F8C2F0E946711EACF862F972F0E9414
:10158000490AC82FF4CF0F931F93CF93E0910A021B
:10159000C7E080910B028E1304C0CF911F910F9171
:1015A00008950E2F10E0CE9FF0011124E45FFD4F4F
:1015B00020813181428153816481758186810E94BD
:1015C0004509F8013196E770E4CF2091440230914B
:1015D0004502409146025091470260914802709145
:1015E000490280914A020E944509089580914A0269
:1015F000803178F480914902882359F0E0910A0201
:1016000020910B02309145024091440257E02E1385
:1016100001C008956E2F70E05E9FF0011124DF017C
:10162000A45FBD4F14968C911497882361F1119695
:101630008C911197831327C08C91841324C0159625
:101640008C91159781111FC012968D919C91A0913C
:101650004602B09147028A1B9B0B883C910598F487
:1016600080914A028F70806180934A02EE5EFD4F46
:1016700080818F708061808384E492E00E94D3082F
:101680000E94C30A0895FB013196E770C0CFE09134
:101690000A0290910B0227E0E91302C080E008954E
:1016A000AE2FB0E02E9FF0011124E45FFD4F318199
:1016B000361306C03081381303C03581341304C09B
:1016C000FD013196E770E8CF81E008958F929F92F7
:1016D000AF92BF92DF92EF92FF920F931F93CF933F
:1016E000DF93CDB7DEB72D970FB6F894DEBF0FBEF0
:1016F000CDBF8C0186E0F801DE01189601900D92B5
:101700008A95E1F7F801E080F580A280B3808481BA
:1017100094E4892E92E0992E9091480291111BC079
:10172000882309F4FCC0FF2009F43DC1C8010E94D0
:101730002E09882309F437C187E0F801D40101900C
:101740000D928A95E1F7C4010E9400060E94F60AF4
:101750000E94E50AE4C0D0904902209146023091EF
:101760004702A501421B530BDD2009F4DBC0483CB6
:10177000510508F0A6C0882309F4D1C09091450214
:10178000918080914A02803108F06BC0991228C084
:10179000909144029E1124C0F1105DC08F70806151
:1017A00080934A020E94E50A84E492E00E94D308F2
:1017B00080914A02F8018683F12C8F2D2D960FB669
:1017C000F894DEBF0FBECDBFDF91CF911F910F9177
:1017D000FF90EF90DF90BF90AF909F908F90089513
:1017E000F11039C040E0692D8E2D0E94470B40E07A
:1017F000692D8E2D0E94470BF82E8111DDCF888533
:1018000099850E948D0A292F22952F70903450F4CB
:101810009F70223080F0992399F0F80196819031E1
:1018200078F4CBCF2A5F2F70223078F0C8010E9465
:10183000D308FD2CC2CF992319F0882309F4BDCF1A
:10184000805E883008F4B9CFF1CF803F08F4B5CF7F
:10185000815F8230F7CF80914A02816080934A0293
:10186000ABCF991207C0909144029E1103C0FF2094
:1018700009F479C0C8010E942E09882309F493C095
:10188000FF2009F490C080914A02803288F02091B4
:101890004402309145023A832983BC82AB82909105
:1018A00048029D831E828F83CE0101960E94D30839
:1018B00087E0F801A4E4B2E001900D928A95E1F787
:1018C00045CF90914A029031A0F4488559856A85A8
:1018D0007B858C859D850E943B0984E492E00E9473
:1018E000D30887E0F40111928A95E9F70E94E50A8E
:1018F00063CF8823A1F02091450281812813BACFBC
:10190000809144028E11B6CFF110B4CF9683C801F6
:101910000E94D30887E0F40111928A95E9F7FF2429
:10192000F3944BCF483C510508F041C08823B9F3EC
:10193000FF20C9F190914502818198132AC08091BE
:1019400044028E1126C080914A0280FD19C0803168
:10195000B8F08683807F803F39F08681982F907F12
:10196000905F8F70892B8683C8010E94D30887E01F
:10197000F801A4E4B2E001900D928A95E1F7E8CE77
:1019800087E0F801A4E4B2E001900D928A95E1F7B6
:10199000C6CFC8010E942E0981118ACF80914A02C8
:1019A000816080934A02C8010E94D308B8CF48855D
:1019B00059856A857B858C859D850E943B0991CFE1
:1019C000AEE0B0E0E6EEFCE00C9404312887398705
:1019D0004A875B876C877D878E87CE0108960E9439
:1019E000660B8823B1F06C85662341F02885398524
:1019F0004A855B857D858E850E94450917E080912B
:101A00000A0290910B0289133EC02E96E3E00C94DB
:101A1000203187E0FE013896DE01119601900D928B
:101A20008A95E1F720910B0240910A028C85882368
:101A300029F330E0C90101968770992750E0841797
:101A4000950799F097E0929FD001939FB00D1124D4
:101A5000A45FBD4FFE01319601900D929A95E1F77A
:101A600080930B020E94C30AC9CF0E940C091092F6
:101A70000B0210920A0287E0E4E4F2E0DF011D921B
:101A80008A95E9F7BBCF189FC0011124845F9D4F51
:101A90000E94660B882309F4B8CFE0910A021E9FCA
:101AA000F0011124E45FFD4F208131814281538197
:101AB0006481758186810E94450980910A0290E0C7
:101AC00001968770992780930A0299CF80917302BB
:101AD00086958695869508958091730287700895FE
:101AE00090917302977081E0911101C080E0089598
:101AF00080919F02089590919F02982B90939F024E
:101B00000895982F909580919F02892380939F023A
:101B1000089510929F02089590919E02982B9093A1
:101B20009E020895982F909580919E02892380931C
:101B30009E02089510929E02089508950E949D0DA0
:101B4000089590917402292F2823222331F0809543
:101B50008923809374020E949E0D089508950E9427
:101B6000AE0D089590917502292F2823281729F08A
:101B7000982B909375020E94AF0D08959091750275
:101B8000292F2823222331F0809589238093750201
:101B90000E94AF0D089580917502882329F010925C
:101BA000750280E00E94AF0D0895CF93DF93C0913E
:101BB0009F0280919E02C82BD0917502DD2331F0E7
:101BC0000E94A52581110E94CB0DCD2B8C2FDF917A
:101BD000CF910895CF93DF93C0910601D091070173
:101BE0000E94D50D8883C0910601D091070148E07D
:101BF00050E06BE672E0CE010E94D431892B59F09F
:101C000088E0FE01ABE6B2E001900D928A95E1F723
:101C1000CE010E943025DF91CF910895CF93DF93BD
:101C2000C0910401D09105010E94D50D8983C09116
:101C30000401D091050140E250E06BE472E0CE0176
:101C40000E94D431892B59F080E2FE01ABE4B2E06E
:101C500001900D928A95E1F7CE010E943B25DF911C
:101C6000CF91089580914001882339F080915F03DE
:101C700087FF03C00E940E0E08950E94EA0D08958A
:101C800008950E94400E08959091600392FF11C044
:101C900098E0899F90011124622B609373020E9447
:101CA0009409809173028695869586950E94410ECF
:101CB00008950E94940908951092730280E00E9492
:101CC000410E089590917302809589238093730249
:101CD000282F277021110DC0891759F090916003AA
:101CE00092FF07C08695869586950E94A4090E945A
:101CF0005C0E08959091600392FB222720F928172B
:101D000069F080FB92F99093600380915F0390915A
:101D100060030E94C20E82E00E94620E08958091CC
:101D2000600382FB882780F991E089270E947A0E60
:101D3000089581E00E947A0E089580E00E947A0E54
:101D400008956FEF7FEF80E090E00E942C320895BD
:101D500080E090E00E94F8319C0181E0253E3E4FFA
:101D600009F080E0089582E090E00E94EA31089551
:101D700083E090E00E94EA31089584E090E00E94C0
:101D8000F8310895BC0184E090E00E942C3208955F
:101D9000AB01BC018FE090E00E9420320895AB01BE
:101DA000BC0183E190E00E942032089560E070E081
:101DB000CB010E94CF0E089560E070E0CB010E943D
:101DC000C80E0E94D60E0895A8E0B0E0EAEEFEE04C
:101DD0000C94053165EE7EEF80E090E00E942C329D
:101DE00060E082E090E00E940E3281E090E090930B
:101DF00009028093080261E083E090E00E940E32C5
:101E000060E074E184E090E00E942C3260E086E0C3
:101E100090E00E940E3260E087E090E00E940E3277
:101E200040E050E0BA0188E090E00E94203260E09B
:101E300083E290E00E940E3260E08CE090E00E942D
:101E40000E3260E08DE090E00E940E3219821A821C
:101E50001B821C821D821E821F82188648E050E071
:101E600067E170E0CE0101960E94FE3140E050E053
:101E7000BA018FE190E00E9420320E94DC0E289689
:101E8000E2E00C9421310E94E40E0895682F8EE068
:101E900090E00E940E320895A6E0B0E0E2E5FFE097
:101EA0000C9403310E946A278C018091A0029091CA
:101EB000A1028017910779F019821A820E946A277D
:101EC000BC0149815A8180E090E00E94D0051093C6
:101ED000A1020093A0022696E4E00C941F310E9418
:101EE00095126093B0027093B1028093B202909306
:101EF000B3026093AC027093AD028093AE029093F4
:101F0000AF020895089508950E94820F08950E94D7
:101F10002304089581E0089583ED92E10E941C1747
:101F20000E94830F0E94840F08950E9499140895BF
:101F3000089508950E94980F0E94990F08950E9495
:101F4000A80E811102C00E94430F0E94B30E80931D
:101F5000B4020E94BD0E9093600380935F030E94C1
:101F60007A200E94B80E90E00E945B0980910602E0
:101F7000909107020E94790908950E9461270E94AA
:101F80005F120E949F140E94E6130E949F0F0E94FE
:101F9000A4050E947D200E94481E0E94BB140E943E
:101FA000870F0895A6E0B0E0E8EDFFE00C94FC3068
:101FB0000E948A0F81110EC00E944C0F0E9499143A
:101FC0000E94A11F0E9470230E94B7052696EBE095
:101FD0000C9418310E940A1482EAA82E82E0B82ECE
:101FE000750110E0F70101917F01812F0E94DC1241
:101FF0001F5F1A3009F443C00817A1F38091B4029F
:1020000081FD0E94E2120E94950FC82E00E09924E3
:102010009394802F0E94DC12182FF50191915F019B
:10202000891739F1D82ED926F12CEE24E3948E2D80
:102030008D218823B1F0CC20A1F0F9820A830E947F
:102040006A279C838B839D8291E08E2D8123811151
:1020500001C090E049815A816B817C818D810E9411
:10206000D005F394EE0CF6E0FF12E1CFF5013197C5
:1020700010830F5F0A3069F60E946F0F9FCF08131D
:10208000BDCF9ACF1F93CF93DF930E946C11EC01C9
:10209000811522E5920708F053C0811540E59407A9
:1020A00008F0DDC0803E9105F8F48D3C910508F004
:1020B000AEC0883A910580F4853A910508F099C040
:1020C0008130910521F00497813A910550F4CE01B9
:1020D000DF91CF911F910895885A91094B9708F489
:1020E0008BC0C0E0D0E0F3CF811550E49507F8F441
:1020F000C11580E2D80708F0CBC0C83ED10538F33F
:10210000CE019A9581159F4160F78D2F0E94101284
:10211000182FCE0199270E946C11212F30E0322F09
:102120002227E901CC27DF71C82BD92BD0CF9927E3
:102130000E946C11CC27DF70C82BD92BD06AC7CF77
:10214000803842E59407C8F5803652E5950708F0D7
:1021500067C0C03482E5D807B0F08C2F869586958D
:10216000877020E2829FC0011124C37021E030E01B
:10217000A90102C0440F551FCA95E2F7EA01C82B16
:10218000D92BDC68A4CFC03252E5D50708F041C096
:102190008C2F8695869520E2829FC0011124C37002
:1021A00021E030E0A90102C0440F551FCA95E2F7B3
:1021B000EA01C82BD92BDD688ACF803C52E5950710
:1021C00060F48F71C03AD24508F03FC090E0982F7C
:1021D0008827EC01C46FD06A7ACF805C92458097E3
:1021E00008F07FCFDC2FCC27CC27DF71C06FD06AFF
:1021F0006ECFA497D0646BCFC85AD0E0CC0FDD1F50
:10220000C958DE4F0990D881C02DD46460CFD06505
:102210005ECFCF71D0E0DC2FCC27C16FD06A57CF13
:1022200086958695877020E2829FC0011124C37035
:1022300021E030E0A90102C0440F551FCA95E2F722
:10224000EA01C82BD92BDA6842CF0E941012C82F9E
:10225000D0E0DC2FCC27CC27DF71D06238CF8F7154
:102260000E94101265E0D695C7956A95E1F7CF7088
:10227000D0E0DC2FCC27282F30E084FF05C054E0CD
:10228000220F331F5A95E1F7C22BD32BD0691FCFF2
:102290008D2F8F710E941012182FCE0199270E9446
:1022A0006C11212F30E0322F222722273F71282B5B
:1022B000392BE901D2CF462F672F7A3028F44630E8
:1022C00018F40E947904089580E090E008950E9437
:1022D0005B110E9442100895803E9105D1F1C8F42F
:1022E0008133910509F47FC048F48932910509F4DE
:1022F0006FC08A32910509F47DC008958933910534
:10230000E1F082389105C9F08533910509F45BC08D
:102310000895843E9105D1F148F4823E910531F152
:10232000833E910541F181EE90E00895863E91054E
:10233000C1F1873E9105E1F1089520915F0323707B
:10234000211165C02091600323FF14C089E290E051
:10235000089520915F0320FD43C03091600330FF5A
:1023600009C024FF4EC080E090E0089520915F03F3
:1023700022FDF7CF089520915F0322FD45C03091E3
:10238000600330FD44C024FFF5CFEDCF2091600302
:1023900021FFF0CF80915F0384FDE5CF87EE90E0D1
:1023A000089520915F0323FFE5CF24FDDCCFF6CF16
:1023B00020915F0323FD2EC03091600331FFE3CFF6
:1023C00084EE90E0089520915F0325FFD3CFBECF28
:1023D00020915F0325FD21C02091600323FFCACF18
:1023E00089E390E0089520915F0326FFC3CF8AE23E
:1023F00090E0089520915F0326FFBCCF81E390E039
:10240000089583EE90E0089582EE90E0089580EEC6
:1024100090E0089586EE90E0089585E390E0AACFDD
:1024200090915F0392FF10C041E0282F2471243067
:1024300009F040E031E0282F2871283009F030E021
:10244000431711F02CE0822793FF10C041E0282FA2
:102450002471243109F040E031E0282F287128311F
:1024600009F030E0431711F02CE08227309160032F
:1024700030FF10C051E0282F2171213009F050E0C9
:1024800041E0282F2871283009F040E0541711F05E
:1024900029E0822731FF10C041E0282F217121312E
:1024A00009F040E031E0282F2871283109F030E0B0
:1024B000431711F029E0822794FD877E089510923A
:1024C00061031092620310926303109264030895F3
:1024D000CF92DF92EF92FF92CF93DF9300D000D0A4
:1024E000CDB7DEB76B017C010E949914811112C037
:1024F0000E94762769837A838B839C83C61AD70AC6
:10250000E80AF90AC0926103D0926203E092630381
:10251000F09264030F900F900F900F90DF91CF9186
:10252000FF90EF90DF90CF900895A4E0B0E0EBE94A
:10253000F2E10C9405310E949914882371F00E94F5
:10254000762769837A838B839C8369817A818B81E7
:102550009C812496E2E00C9421310E9476276983C5
:102560007A838B839C838091610390916203A09115
:102570006303B091640329813A814B815C81280F08
:10258000391F4A1F5B1F29833A834B835C83DDCF4E
:102590000E949914882319F00E946A2708950E94C6
:1025A0009512CB01089580E0089508950E94D512F8
:1025B00008950E94B1030895E82FF0E0E059FC4F20
:1025C00080810895089580EA8A95F1F7089500C002
:1025D00008950E94E312089508950E94EC12089550
:1025E000A5E0B0E0E6EFF2E10C9400310E9499140E
:1025F000182F60917A03882309F445C01A82198242
:10260000FE01339683E0DF011D928A95E9F7862F5C
:1026100090E032977F01BF0180599C4F0E94C914FE
:10262000DE2C0F2D8823B9F08091650390E045E002
:1026300050E0B70180599C4F0E94D43121E0209393
:10264000B502892B99F410E00E94D912812F2596AA
:10265000E7E00C941C318091B5028823A1F385E05A
:10266000D7011D928A95E9F71092B502A0916503F2
:10267000B0E0A059BC4F85E0ED2DF02F01900D92F8
:102680008A95E1F7E1CF70E060597C4F8091650356
:1026900090E080599C4F0E9452150E94ED12D6CFB7
:1026A000F894E82FE295EF70F0E041A18F7021E0FF
:1026B00030E0B90102C0660F771F8A95E2F7CB01BF
:1026C000962F9095942391A392A1892B82A378941D
:1026D00008950F931F93CF93DF93C3EBD1E08991BC
:1026E0008F3F11F00E94501381E0C83BD807B9F723
:1026F000CDEAD1E003EB11E089918F3F11F00E9408
:1027000050130C171D07C1F7DF91CF911F910F9147
:102710000895A0E0B0E0EFE8F3E10C94FF30EC01A5
:10272000D62E062F10E0C8018D549E4F7C01FC016F
:1027300080818F3F09F445C0F894E82FE295EF704F
:10274000F0E091A18F7021E030E001C0220F8A9566
:10275000EAF7892F822B81A382A12095282322A327
:1027600078940E94E712EDEAF1E091E0C12C8191AA
:102770008F3F81F0A82FA295AF70A05EB0E02C91A2
:1027800030E08F7002C0359527958A95E2F7217069
:10279000892F211180E0C82A990F81E0E33BF807D7
:1027A00031F7F70180818F3F11F00E94501361E0F3
:1027B000C11001C060E08D2D0E94E912C00FD11F31
:1027C000C882CDB7DEB7E8E00C941B3180910801D8
:1027D0008091080190E0811101C095E090937A0307
:1027E00085E0891B809365030E9469138AE0E0E716
:1027F000F3E0DF01982F1D929A95E9F7E6E6F3E002
:10280000DF011D928A95E9F785E00E944B140E9432
:10281000D6120895AAE0B0E0E0E1F4E10C940231B0
:102820001A821982FE01339688E0DF011D928A9593
:10283000E9F7F12C8E010F5F1F4F6F2DC8010E9429
:102840008913F394B5E0FB12F8CF4AE050E0B801E9
:1028500086E693E00E94D43121E0892B99F420E0B0
:1028600060917A0370E060597C4F45E086E693E022
:102870000E944C14182F0E94F012812B2A96E5E03A
:102880000C941E318AE0F801A6E6B3E001900D92A7
:102890008A95E1F7E5CF0895A0E0B0E0E2E5F4E144
:1028A0000C94FF30D82EE92EF62ED72F042FC22FEE
:1028B000222379F081E08093B8020E946A279093E6
:1028C000B7028093B60280E0CDB7DEB7E8E00C94A3
:1028D0001B31C090B802CC20B1F38091B602909128
:1028E000B7020E949327059770F310E0A8016D2DA1
:1028F0007E2D8F2D9D2F0E94D431892B41F0A80170
:102900006D2D7E2D8F2D9D2F0E94E131CC2D1092AB
:10291000B8028C2FD9CFCF930E944D30C82F811190
:1029200002C00E9448308C2FCF9108958091BC0244
:1029300008958091BB0208950E94991408950E9401
:102940008B148093BB020E949C148093BC020E9453
:102950009614809308010E94961466E0882349F03B
:1029600080E00E94BB170E94991481110E94FF14FD
:10297000089586E0F6CF0E949914811102C00E944A
:102980000215089581E09091BD029A3008F080E030
:1029900008950F931F93CF93DF93EC01162F072F0A
:1029A0008091BD028A3090F4612F702FCE010E9479
:1029B0004F15811121C08091BD028F3FB1F40E945B
:1029C0006A279093BA028093B90209C08091B90234
:1029D0009091BA020E949327843F914028F780E0AB
:1029E000DF91CF911F910F9108958F5F8093BD026A
:1029F0008A3028F781E0F4CF1092BD02FBCF0E940D
:102A00005C2808950E945F280895A0E0B0E0EBE004
:102A1000F5E10C94FF30FA0169017801C82F880FA5
:102A2000DD0B3097B1F0DE0193E0AA0FBB1F9A9542
:102A3000E1F7A75FBE4F11968D919C91129782543A
:102A40009D4F4C9150E0E417F50708F4AF010E9448
:102A5000E131CE010E944A29182F8823D1F0E114D8
:102A6000F104B9F083E0CC0FDD1F8A95E1F7FE0198
:102A7000E75FFE4F438150E0E416F50608F4A70136
:102A8000C75FDE4F6C817D8162547D4FC6010E941D
:102A9000E131812FCDB7DEB7E8E00C941B310E9405
:102AA000951608950E94B9160895A8E0B0E0EBE5E8
:102AB000F5E10C9403318091E1029091E202A09142
:102AC000E302B091E402BC01CD010E94A22711E013
:102AD000643671058105910520F10E949512DC0193
:102AE000CB010296A11DB11D89839A83AB83BC8360
:102AF00000E010E020E030E044E050E0BE016F5F15
:102B00007F4F82E00E940515182F882351F00E9404
:102B100076276093E1027093E2028093E302909340
:102B2000E402812F2896E4E00C941F31A0E1B0E08C
:102B3000ECE9F5E10C9402318E010F5F1F4FC801E3
:102B40000E945C1DFB848091E5029091E602A091B9
:102B5000E702B091E802BC01CD010E94A2276D8777
:102B60007E878F87988BB8018D859E85AF85B889C4
:102B700084369105A105B10510F4FF20A9F000E00D
:102B800010E020E030E04CE050E083E00E940515CA
:102B9000882369F00E9476276093E5027093E6022D
:102BA0008093E7029093E8020E94591D81E06096AD
:102BB000E5E00C941E31AAE0B0E0E1EEF5E10C9402
:102BC000FD307B01A090B801B090B90101E010E0A8
:102BD0009E012A5F3F4F40E050E060E070E080E0FF
:102BE0000E940515182F882309F44DC065018FEF49
:102BF000C81AD80A8091DD029091DE02A091DF020E
:102C0000B091E002BC01CD010E94A2276F837887BA
:102C100089879A87643671058105910560F105E021
:102C200010E09E012F5F3F4F40E050E060E070E019
:102C300081E00E940515182F65E070E0C6010E9432
:102C40007E209E8198132AC0112341F10E9476278D
:102C50006093DD027093DE028093DF029093E002C6
:102C600085E0FE013196A8EDB2E001900D928A95C3
:102C7000E1F781E014C065E070E0C6010E947E20AB
:102C80009E818913CCCF85E0F5013196DE01119646
:102C900001900D928A95E1F71111E2CF80E095E065
:102CA000E8EDF2E0D70101900D929A95E1F72A96AE
:102CB000EAE00C941931A0E0B0E0E1E6F6E10C9412
:102CC000FD30F82EE92EB62EA72E8A010E94C214DE
:102CD000CC24C394D12C882319F08AE0C82ED12C9F
:102CE000C1E0D0E06B2D7A2D8F2D9E2DF801099536
:102CF000811116C02196CC16DD0694F0CC9FC00140
:102D0000CD9F900D900D112420E030E045E34A95D1
:102D1000F1F700002F5F3F4F28173907B9F7E2CFCF
:102D2000CDB7DEB7EAE00C9419310F931F93CF9320
:102D3000DF93D82FC92F8B014BED55E10E945B1615
:102D4000811106C080E0DF91CF911F910F9108950E
:102D500045E555E1B8018D2F9C2F0E945B16882315
:102D600089F346E955E1B8018D2F9C2F0E945B162F
:102D7000EACFACE0B0E0EFEBF6E10C94FF30FB0102
:102D80000091B8011091B901C801019625E0DC015C
:102D900001900D922A95E1F765E070E00E947E2097
:102DA000F80180836681778180859185C090D40207
:102DB000D090D502E090D602F090D7026C157D0538
:102DC0008E059F0551F06093D4027093D5028093D5
:102DD000D6029093D7020E9468128CE0F8013A96CE
:102DE000DE01119601900D928A95E1F7F801148A9F
:102DF0008B85882329F060E0CE0101960E948E1E0B
:102E00002C96E8E00C941B310E94D20F08950E948A
:102E100003270E94082B0E948C0F0E94222B0E94E5
:102E2000BD0F0E942F2B0E94342B0E9404170E947A
:102E30004E2B0E949A0FF7CF9093DF018093DE0113
:102E40000895A0E0B0E0E7E2F7E10C94FD30E82F50
:102E500071110DC0442321F0F0E0E556FB4F849141
:102E6000682F782FCDB7DEB7EAE00C941931262F02
:102E700030E0C72FD0E0F0E0442321F0E556FB4FCF
:102E8000E491F0E086E0829F7001839FF00C1124B2
:102E90000FEF10E0C701B8010E947430AB01220FA0
:102EA000331F65E5649FC001659F900D1124281BA9
:102EB000390BC22ECC0CC20EC8018C1B9D0B8E9FF1
:102EC00090018F9F300D9E9F300D1124832FCC9E3B
:102ED000B001CD9E700D1124672F77275801A61AD7
:102EE000B70AAE9ED001AF9EB00DBE9EB00D1124AC
:102EF0007B2F5801AC18B1086501CC9E5001CD9EC6
:102F0000B00CDC9EB00C1124AB2CBB240A191B099D
:102F10000E9FE0010F9FD00D1E9FD00D11246E2F2C
:102F200043305105C9F09CEFE91693E0F90650F4DF
:102F30004130510509F496CF4230510589F07E2F7A
:102F40006D2F90CF4430510571F046305105B9F3E3
:102F5000632F8B2F7E2F86CF6B2F732F8E2F82CFD9
:102F6000732F8D2F7FCF7D2F632FF8CF41E00E94ED
:102F7000211708950895ECE2F1E0808361830895BC
:102F80000E94B6170895CF93DF93982F762F842F42
:102F9000E901692F0E94C017798368838A83DF91D2
:102FA000CF91089580917B03843028F483708460EE
:102FB00080937B03089587FFFDCF83708C67F8CFE4
:102FC0004F925F926F927F928F929F92AF92BF9239
:102FD000CF92DF92EF92FF920F9388E090E00E94F1
:102FE000F2312B013C0183E290E00E94EA31282F6C
:102FF00030E040E050E060E070E080E090E000E22F
:103000000E942C3153014201C12CD12C760124297C
:1030100039294A295B296C297D298E299F290F91FD
:10302000FF90EF90DF90CF90BF90AF909F908F90E8
:103030007F906F905F904F900895A0E0B0E0E3E242
:10304000F8E10C94FF308901D42FC52F6B017C016E
:103050000E94D217A8016D2F7C2F88E090E00E947B
:10306000203298014D2F5C2FB601C70100E20E946B
:103070004731622F83E290E00E940E32CDB7DEB777
:10308000E8E00C941B31EBE7F3E085E080831182EC
:103090008FEF828383831482A4E3B3E012968C9132
:1030A0001297836012968C93758125E030E04FEF84
:1030B0005FEF60E0868197810E941D1808958091DE
:1030C0007B0380FF03C086958695089580E0089570
:1030D00090917F03933018F49F5F90937F03882330
:1030E00091F020917B0330917C0340917D035091BE
:1030F0007E0360917F0370918003809181039091A2
:1031000082030E941D18089581E00E9468180895A6
:1031100090917F03992319F0915090937F03882316
:1031200091F020917B0330917C0340917D0350917D
:103130007E0360917F037091800380918103909161
:1031400082030E941D18089581E00E948818089546
:1031500021E030E001C0220F8A95EAF79091370311
:10316000922381E0911101C080E00895A4E2B0E0D3
:10317000ECEBF8E10C94FB30B0902D0190917B03C7
:1031800090FF3AC080902B0390902C0381149104FF
:1031900009F048C0EFE8F4E0CE010196BE016B5D96
:1031A0007F4FAC01249130E0D901AA0FBB1FA20FC1
:1031B000B31FAD57BC4FCD90DD90EC90DC01CD92AC
:1031C000DD92ED92CD0131966A177B0759F76B2D91
:1031D00070E020912C0130E0C901880F991F820F07
:1031E000931FE091DC01F091DD01840F951F09959B
:1031F000A496ECE00C94173180912E0140912F01A0
:10320000282F30E0F901EE0FFF1FE20FF31FED57FB
:10321000FC4F841708F0B6CF1182108212828F5FA4
:103220003396F7CF90FFB6CFA12C8A2D0E94A81815
:10323000882309F43BC0F401E590F490E114F10413
:1032400009F4A8CF45E050E0B701CE0101960E94F5
:10325000BE3189818F3F51F12A8190E0280F392FAB
:10326000311D2D30310514F02CE030E06901CC0C1B
:10327000DD1CC20ED31E96012D573C4F69018C01F7
:10328000000F111F080F191F0D571C4F0C151D059E
:1032900020F035E0E30EF11CD5CF98014D816C8113
:1032A0008B810E94C3170D5F1F4FF0CF82E0880E05
:1032B000911CA394A8E0AA12B8CF6CCF90917B0385
:1032C00090FF11C090912E0150912F01292F30E0D5
:1032D000F901EE0FFF1FE20FF31FED57FC4F95179B
:1032E00018F00E94B61808958183608342839F5F1F
:1032F0003396F5CFA3E0B0E0E0E8F9E10C940531B6
:1033000090917B0390FF0AC09E012F5F3F4F0E9468
:10331000C3174B8169818A810E945E192396E2E07E
:103320000C942131CF93DF93EC01EC81F0E0E15775
:10333000FC4F4491EBE7F3E0628181810E947A19AE
:103340008C818F5F8C83DF91CF910895CF93DF9332
:10335000EC01EBE7F3E0438162818C810E947A19F2
:103360008C818F5F8C83DF91CF910895A3E0B0E0D3
:10337000ECEBF9E10C940131182FF62E042FE22E1C
:1033800080917B0380FF41C020917C03211308C002
:1033900090917D03961304C090917E03941729F0B9
:1033A00090913603926090933603E82FE695E69568
:1033B000F0E0E654FE4F9081909334038C7F84308C
:1033C00041F59E012F5F3F4F402F6F2D812F0E94AF
:1033D000C3174B8169818A810E945E1910937C0317
:1033E000F0927D0300937E03EE2079F020917B0321
:1033F00060917F0370918003312F4F2D502F80916A
:103400008103909182030E941D182396E6E00C949C
:103410001D31923019F400917E03E0CF963011F007
:103420009930E1F6122FDACF282FEBE7F3E0818114
:1034300043816281865F0E94B619089581E00E94EF
:10344000141A0895282FEBE7F3E08181438162810C
:103450008A500E94B619089581E00E94221A0895A8
:10346000282FEBE7F3E0628131E1630F08F46FEF9F
:10347000438181810E94B619089581E00E94301A2B
:103480000895282FEBE7F3E0628131E1631B08F434
:1034900060E0438181810E94B619089581E00E9415
:1034A000411A0895282FEBE7F3E0438131E1430F00
:1034B00008F44FEF628181810E94B619089581E07E
:1034C0000E94521A0895282FEBE7F3E0438131E17F
:1034D000431B08F440E0628181810E94B61908957F
:1034E00081E00E94631A089520E00E94B6190895B1
:1034F000EF92FF921F93CF93DF93EC0110E0EE2445
:10350000EA94F12C60913001161770F00E94B61801
:103510009A818C8190FF25C08F5F8C83DF91CF9142
:103520001F91FF90EF90089580912E01810F9927B0
:10353000991F9C01220F331F280F391F2D573C4F15
:1035400070E0C7010E948830962F8C8140917E03E5
:1035500060917D03199F800D11240E94C3171F5F86
:10356000D1CF8150DACFA0E0B0E0E9EBFAE10C94E2
:10357000FC30EC018C819A8190FD0EC0BB24B39489
:1035800081110EC0809130018150BB24B39480938F
:10359000EA0281E08C8304C0BB24BA948823B9F387
:1035A000A12C80913001A816B8F00E94B618909115
:1035B000EA0281E0B81256C080913001815099230F
:1035C00019F08FEF890F91E08093EA029C83CDB7C9
:1035D000DEB7EBE00C94183180912E01CA2CD12C6F
:1035E0008C0D9D2D911D8C01000F111F080F191FAF
:1035F0000D571C4FF80111821082128234E0E32E25
:10360000F12C912C8091EA02890D8D302CF16CE027
:103610000E946630892F082E000C990BC816D90617
:1036200091F480917E038E9DA0018F9D500D1124F9
:103630005595479555954795980160917D038091E3
:103640007C030E94C3179B0CF1E0EF1AF108E11410
:10365000F104C1F6A394A5CF87FFDDCF909130018F
:10366000890FD9CF892F90E001966091300170E0E9
:103670000E948830982FA8CF1F93CF93DF93EC013F
:103680008C81811109C081E08C831092E90292E063
:1036900090932B0180932A0180912E0190912F010C
:1036A000282F30E0F901EE0FFF1FE20FF31FED5757
:1036B000FC4F891748F110E060913001161750F166
:1036C0000E94B61880912A012091E902280F2093C8
:1036D000E90290912B01980F90932B01191654F445
:1036E000022E000C330B409130014150550B241732
:1036F000350734F0819580932A01813009F41C82CA
:10370000DF91CF911F9108951182108212828F5FF5
:103710003396CFCF212F30E070E0C9010E9488306E
:1037200090912E01980F892F90E04091E902042E8C
:10373000000C550BFC01EE0FFF1FE80FF91F2417BB
:103740003507ACF040912B01042E000C550B4217AD
:1037500053076CF09F012D573C4F40917E036091C1
:103760007D0380917C030E94C3171F5FA5CFED5797
:10377000FC4F118210821282F8CFAEE0B0E0E3EC91
:10378000FBE10C9401318D879E87AD85BE85149633
:103790001C91212F30E0D9010E94CC309B01AC015B
:1037A0000E94E23069837A838B839C83E0E2F0E0BD
:1037B000E11BF109A5E5B0E09B01AC010E94E230FC
:1037C00069877A878B879C879F01DF010E94C430BD
:1037D0009B01AC010E94ED306D837E838F839887BF
:1037E0009B01AC0189819A81AB81BC81280F391F73
:1037F0004A1F5B1F69857A858B859C850E949C305A
:10380000022F30E00A3248F5A901440F551F420F3C
:10381000531F55954795142F1095F12C85E5E82EEB
:10382000E01A80913001F81630F10E94B618AD858B
:10383000BE8514969C9181E0992319F0903219F479
:103840008FEF8093290180912901890FED85FE85F5
:1038500084832E96E6E00C941D3185E590E0821B72
:10386000930BAC01440F551F480F591F57FFD1CF81
:103870004F5F5F4FCECF8E2DF1FC802F40912E01F8
:103880004F0D5527551F9A01220F331F240F351F47
:103890002D573C4F412F60917D030E94C317F39435
:1038A000C0CF0F931F93CF93DF93EC0100E010E0A4
:1038B00040913001842F90E0081719076CF00E94A6
:1038C000B6188C8190E00196817099278C83DF91E6
:1038D000CF911F910F91089580912E01800F912F0C
:1038E000911D9C01220F331F280F391F2D573C4F6C
:1038F0009C8160917D0380917C03469550E0041784
:1039000015074CF4992349F040917E030E94C31798
:103910000F5F1F4FCDCF9923B9F340E0F7CFA0E061
:10392000B0E0E5E9FCE10C94F730FC0162804480F2
:1039300081E08483EFE8F3E07490EEE0F4E0E4915A
:10394000C0917E03C695C158D0E0CC0FDD1FCD2FAE
:10395000DD27812C75E0972EAA24AA94B12C55243A
:103960005A94E719EE2EF12C80913001881638F028
:103970000E94B618CDB7DEB7E0E10C941331C82C25
:10398000D12C82E0861568F09C9CF0019D9CF00D86
:103990001124E251FD4F80917C03808380917D034F
:1039A0008183411023C09C9CF0019D9CF00D11244B
:1039B000E251FD4F1382128280912E018C0D9D2DBC
:1039C000911D9C01220F331F280F391F2D573C4F8B
:1039D0009C9CF0019D9CF00D1124E251FD4F428111
:1039E000618180810E94C3178394BECF9C9C80011B
:1039F0009D9C100D112402511D4FF80183818823D5
:103A0000F1F081508383589EC0011124648170E0DD
:103A10000E947430FB01FF27E157FC4F8491E82F8F
:103A2000E7195E9EC0011124B7010E947430809195
:103A30007E03689FB0011124F8017283BDCF0E94FC
:103A4000AE31B5010E9488308C179D070CF0B4CFC1
:103A5000F2E0F61598F40E94AE31B5010E9488306C
:103A6000F80180830E94AE3120917D032695622F5C
:103A700070E00E948830280FF80121839C9CF0019F
:103A80009D9CF00D1124E251FD4F128280917E0326
:103A9000893C58F088EC9C9CF0019D9CF00D112411
:103AA000E251FD4F8483838387CF8431A0F784E183
:103AB000F2CF109236030895CF93DF93EC0188E0A4
:103AC000EBE7F3E0DE0101900D928A95E1F780913A
:103AD000340390913503A0913603B0913703888762
:103AE0009987AA87BB87DF91CF910895E4E3F3E03C
:103AF00011828281846082830895EBE7F3E0808104
:103B00008E7F80830E94761DE4E3F3E082818160F2
:103B100082830E94B6180895EBE7F3E020812E7FA0
:103B200020833181428153816481758186819781AF
:103B30000E941D180E94761DE4E3F3E082818160FB
:103B400082830E94B618089560917B0366956695FE
:103B500070E041E050E081E391E00E94C731892BA1
:103B600019F481E0809335030E94C81290932E03CC
:103B700080932D03809136038460809336030895EB
:103B800090917B0390FF3FC08823F1F18032F0F5E4
:103B90008F73282F220F220F80917B038370282B95
:103BA00020937B03809136038160809336036623E4
:103BB00081F030917C0340917D0350917E036091B0
:103BC0007F037091800380918103909182030E9412
:103BD0001D1860917B036695669570E041E050E0AA
:103BE00081E391E00E94C731892B91F00E94761DFC
:103BF00081E08093300340917E0360917D0380914A
:103C00007C030E94741A089581E0C3CF8FE1C1CF75
:103C10000E94A41DEDCF682F80917B038695869529
:103C20008F5F803208F081E00E94C01D089581E01E
:103C30000E940B1E0895682F90917B039695969590
:103C40008FEF890F913009F48FE10E94C01D089514
:103C500081E00E941B1E089561E00E94C01D08952E
:103C6000EBE7F3E0808181608083869586950E94F2
:103C70002C1E089580917B0380FF03C00E948C1D41
:103C800008950E94301E089560E00E94C01D0895AE
:103C900080913303811141C00E94E01720937B0380
:103CA00030937C0340937D0350937E0360937F03A6
:103CB00070938003809381039093820380913603F5
:103CC0008360809336032430A0F40E9443180E943E
:103CD000E01720937B0330937C0340937D03509344
:103CE0007E0360937F03709380038093810390939E
:103CF00082030E94D2170E94761DE091DA01F091B2
:103D0000DB01099580917B0380FF04C08695869531
:103D10000E94441E81E08093330308951F93CF9344
:103D2000DF93EC01162F8A8584FF03C09B85909357
:103D3000370380FF0EC0888180FF26C080917B03FF
:103D4000816080937B038881612F869586950E9490
:103D5000C01D8A8581FF06C0212F4B816A81898120
:103D60000E94B6198A8582FF05C08985882379F06B
:103D70000E94A41D8A8583FF03C081E080933003E5
:103D8000DF91CF911F9108950E947D1DE2CF0E9487
:103D9000761DF0CFEF92FF920F931F93CF93DF9397
:103DA00080913503882309F467C090913403E09132
:103DB0007B03E695E6958E2F891B80932F03923027
:103DC00009F06FC0E82FF0E0E557FC4FE491CE2FEB
:103DD000D0E002E919E180913003882361F010926C
:103DE00030030E94C81290932E0380932D031092EB
:103DF0003203109231030E94C8129C0180912D035E
:103E000090912E03A901481B590B4F3F5F47A0F526
:103E10004091ED024423B1F01092ED024091EB028B
:103E20005091EC02241B350B2F3F3F4758F4405D67
:103E30005A485093EC024093EB02209136032860DD
:103E400020933603E0903103F09032038C0F9D1FD6
:103E500090932E0380932D038DE293E0F801099552
:103E60008091310390913203892B31F4E114F104F4
:103E700019F081E08093ED0280912A03882361F09C
:103E800010922A0380913503811106C080917B0333
:103E9000869586950E94441ECDB7DEB7E6E00C9469
:103EA0001D319650953130F4E92FF0E0E958FD4C82
:103EB0000C94BE30C0EDD7E00AEB17E18CCFE82FB1
:103EC000F0E0E857FC4FE491CE2FD0E006EA19E18C
:103ED00082CFE82FE695F0E0EB57FC4FE491CE2F30
:103EE000D0E008E71AE177CFE82FE695F0E0EE574B
:103EF000FC4FE491CE2FD0E003EB1AE16CCFE82F1A
:103F0000F0E0E158FC4FE491CE2FD0E00CE31BE150
:103F100062CFC4EFD1E001E51CE15DCF63E00E9418
:103F20005A30E92FF0E0E458FC4FE491CE2FD0E076
:103F30000FE81CE150CFC8E2D0E00DEB1BE14BCF06
:103F400008950E94CA1E0895FA01882311F0099568
:103F50000895FB01FCCFCF93DF93C82FD62F0E948B
:103F60005F188C1748F00E945F188D1728F40E9484
:103F7000171EDF91CF9108958C2F0E942C1EF9CF30
:103F80001F93CF93DF93EC01FB011581111163C0E7
:103F90000E94780D8272FE01E052F847E531F1058A
:103FA00008F059C0E457FD4C0C94BE300E943A1EF4
:103FB000812FDF91CF911F91089548E25EE167E183
:103FC0007EE10E94A41FF4CF47E15EE168E27EE15A
:103FD000F8CF4CE25AE16EE17AE1F3CF4EE15AE1DB
:103FE0006CE27AE1EECF4EE45AE16DE37AE1E9CF9B
:103FF0004DE35AE16EE47AE1E4CF40E75AE16FE540
:104000007AE1DFCF4FE55AE160E77AE1DACF44EABF
:1040100058E164E878E1D5CF44E858E164EA78E112
:10402000D0CF81E00E942C1EC3CF65E082E00E94C9
:10403000AB1FBECF68E086E0FACF6EE089E0F7CF35
:1040400064E18FE0F4CF67E185E1F1CF88E1EACF69
:104050006FE18AE1ECCF11E0ABCF519A08959C015A
:10406000AB016BB16D7F7BB17260EFB7F894CA01A1
:10407000880F991F840F951F820F931F8217930734
:1040800041F4EFBF8FE594E00197F1F700C0000025
:104090000895D9014D919D0158E07BB9000000C001
:1040A00047FF6BB9440F000000C000C000C06BB9EF
:1040B00000C05A9591F7E2CF0E94A10E089580E0CA
:1040C0000E94DC12817008950E940A142FEF86E787
:1040D00091E0215080409040E1F700C000000E9434
:1040E0000A140E945F20882321F00E945C200E9415
:1040F000E62708950E94642008950895FC01680F42
:10410000791F8FEF91E3E617F70709F408952191DE
:10411000822728E030E087FF08C0880F89272150D8
:10412000310921153105B9F7EECF880FF8CFCF93BC
:10413000DF93EB0186319C4719F50E94780D9D8134
:104140009923A1F08A7A91E0811101C090E09093C7
:104150003803882349F085E30E9454260E94320EDA
:1041600080E0DF91CF91089589E2F6CF8091380306
:10417000882321F085E30E946B26F0CF89E2FBCFF4
:1041800081E0EFCFCF93DF93EC01FB0185818823A2
:1041900009F4D2C09E0130572332310508F0B2C075
:1041A0000E94BD0E9093600380935F03FE01E15077
:1041B000F047E232F10520F4EF55FD4C0C94BE308F
:1041C00080915F03816080935F0393C0809160035F
:1041D0008860809360038DC080915F038260F3CF1D
:1041E00080915F038460EFCF80915F038860EBCFA5
:1041F000809160038160EDCF809160038260E9CFA0
:1042000080915F038061DFCF80915F038062DBCFAD
:1042100080915F038064D7CF0E940C0980915F0377
:104220008068D1CF80915F038C60CDCF8091600397
:104230008360CFCF80915F038E7FC5CF8091600375
:10424000877FC7CF80915F038D7FBDCF80915F0354
:104250008B7FB9CF80915F03877FB5CF809160035B
:104260008E7FB7CF809160038D7FB3CF80915F0346
:104270008F7EA9CF80915F038F7DA5CF80915F0353
:104280008F7BA1CF0E940C0980915F038F779BCF1A
:1042900080915F03837F97CF809160038C7F99CF5C
:1042A00080915F0382FB992790F921E0922790FB90
:1042B00082F990FB83F987CF80916003982F9095C6
:1042C00091708E7F892B90FB81F983CF90915F0352
:1042D000892F8F7B96FF806476CF0E940C09909186
:1042E0005F03892F97FB87F980586DCF81E00E948B
:1042F000460F80915F03909160030E94C20E0E945E
:104300000C0980E0DF91CF91089580E0F0CF90918B
:104310005F03892F8F7E94FF806155CF90915F035B
:10432000892F8E7F90FF81604ECF90916003892FFF
:10433000877F93FF88604DCF81E0E4CF282F35EB56
:104340002303C001112497FF04C080589109892FCD
:10435000089580589F4FFBCF8091420380FD50C04D
:1043600082FD51C080914103811112C060913501DD
:1043700070E088EE93E00E9474308CE291E00E943D
:104380007430CB01009709F041C081E090E00895BE
:1043900080913E0390913F03009741F30E94932741
:1043A00062E370E00E947430669F9001679F300D59
:1043B000300D112484E0220F331F8A95E1F73695E2
:1043C000279544E0660F771F4A95E1F7645D7E4FBD
:1043D000260F371F293883E1380710F028E833E12A
:1043E0006091350170E088EE93E00E947430C9015D
:1043F0000E9474308FE790E067FD08C07727C1CF37
:1044000020E931E0EDCF28EB3BE0EACF0895809141
:10441000420368E070E080FD2CC060E370E082FD44
:1044200028C080914003882371F180913E039091D0
:104430003F03009741F12091320130913301203246
:10444000310509F10E94932762E370E00E94743005
:10445000669FC001679F900D900D112496958795DA
:10446000605F7F4F680F791F6132710510F060E265
:1044700070E088EE93E00E94743070933301609393
:10448000320181E0089560E170E0F3CFCF93DF93D4
:10449000C82F80913E0390913F03892B31F40E94F5
:1044A0006A2790933F0380933E0390914503809148
:1044B0004603982B80914803982B80914703982BB3
:1044C000992339F00E946A27889790933F0380933D
:1044D0003E03CD3C41F40E94AC218195809346037C
:1044E000DF91CF910895E2E3EC0FE231C8F7F0E0FD
:1044F000ED53FD4C0C94BE300E94AC21EFCF0E94D6
:10450000AC21819580934503EBCF0E94AC21FACF7B
:104510000E94072280934703E3CF0E9407228195E0
:10452000F9CF0E940722819580934803D9CF0E943A
:104530000722FACFC15DDD0B21E030E001C0220F80
:10454000CA95EAF780914403822B80934403C8CF35
:1045500080914203816080934203C2CF80914203E5
:104560008260F9CF809142038460F5CF409145038A
:104570008D3C79F48091460387FF11C01092460369
:10458000442379F41092410310923F0310923E03AA
:1045900008C08E3C81F48091460318167CF34423B6
:1045A00081F08091470390914803892B811159C074
:1045B0001092400308958F3C41F447FFF0CF1092D2
:1045C0004503809146038823DCCF803D19F41416FF
:1045D000B4F3E5CF90914703893D29F41916FCF611
:1045E00010924703DCCF8A3D19F497FFD8CFF8CF5C
:1045F000909148038B3D29F497FFD1CF1092480347
:10460000CECF8C3D19F41916CCF3C9CF9FE2980F89
:10461000983090F4815D990B21E030E0B90102C03F
:10462000660F771F8A95E2F7CB018095909144033E
:10463000892380934403B3CF8D3D31F480914203AD
:104640008E7F80934203ABCF8E3D21F48091420355
:104650008D7FF7CF8F3D09F0A2CF809142038B7FF2
:10466000F0CF08950E946A272091450330914603B8
:10467000232B222321F080933C0390933D03209130
:10468000470330914803232B222321F080933A03E0
:1046900090933B0383E493E00E944A25089586E0CB
:1046A000E3E4F3E0DF011D928A95E9F710924103FC
:1046B00010924003109242030895FC0182818111FF
:1046C0000DC0838181110AC08481811107C081E0FE
:1046D0009581911101C080E08170089581E0FCCF47
:1046E000A6E0B0E0E6E7F3E20C94023186E0E3E412
:1046F000F3E09E012F5F3F4FD90101900D928A9503
:10470000E1F710924503109246031092470310926E
:1047100048038B819C81892B8901882391F08091AA
:104720003C0390913D030E9493279C01809141039B
:104730008823D9F14091350150E04217530708F41E
:1047400041C08D819E81892B8823A9F080913A03F5
:1047500090913B030E9493279C018091400381111B
:104760006EC0409134019AE0499FA0011124421784
:10477000530708F46EC0B80183E493E00E949C26BE
:10478000811105C083E493E00E945D2381110E94A2
:10479000322386E0F801A3E4B3E001900D928A95FC
:1047A000E1F72696E5E00C941E31409139039AE03A
:1047B000499FA00111244217530718F68F5F809379
:1047C000410302C08F3FD1F78B81882359F00E94AB
:1047D000AC219B8119166CF591E0899F802D1124E5
:1047E000809345038C81882359F00E94AC219C81E1
:1047F00019160CF591E0899F802D112480934603B2
:1048000080914503882309F49CCFF0904603FF2054
:1048100009F497CF0E949E21811101C081E080930D
:1048200045038F2D0E949E21882339F080934603F3
:1048300088CF9FEFD2CF9FEFDECF81E0F7CF4091BF
:104840003201509133014217530708F094CF8F3F44
:1048500019F08F5F809340038D81882359F00E9467
:1048600007229D8119166CF591E0899F802D1124F6
:10487000809347038E81882359F00E9407229E81EE
:1048800019160CF591E0899F802D1124809348031F
:1048900080914703882309F46ECFF0904803FF20EE
:1048A00009F469CF0E949E21811101C081E08093AB
:1048B00047038F2D0E949E21882339F0809348035F
:1048C0005ACF9FEFD2CF9FEFDECF81E0F7CF0F938C
:1048D0001F93CF93DF93C42FD22FFC0185818823B0
:1048E000C9F040934B030E946A2790934A03809338
:1048F000490380E28C0F883040F4C77081E001C02A
:10490000880FCA95EAF70E94AF06DF91CF911F91F9
:104910000F91089510914B0314133CC080914903EB
:1049200090914A030E949327883C910598F5C0E234
:10493000CD0F1D1741F180E2810F883040F41770D0
:1049400081E001C0880F1A95EAF70E94B606C830C8
:1049500020F0802F0E94A606D8CF91E08D2F87707F
:1049600001C0990F8A95EAF7892F0E94AF06802F20
:104970000E94A606D77081E001C0880FDA95EAF799
:104980000E94B606C2CF802F0E94A606C83008F04B
:10499000BCCFF0CF80E28C0F883008F0B6CFC77064
:1049A00081E001C0880FCA95EAF7EACF0F93FC01B6
:1049B000CB01E851FC47E730F10590F5EB52FD4C97
:1049C0000C94BE3006E221EE41EE6AE17CE70E94E3
:1049D000672480E00F91089507E225EE45EE6BE134
:1049E0007CE7F5CF06E221EE40EE68E17CE7EFCF11
:1049F00007E225EE44EE69E17CE7E9CF06E221EE2D
:104A000042EE6CE17CE7E3CF07E225EE46EE6DE196
:104A10007CE7DDCF08E221E045EE6EE17CE7D7CF11
:104A2000FB018581811110924B0381E0D3CF9093DC
:104A300052038093510308950E949914811103C079
:104A400080914C030895E0915103F0915203309707
:104A500029F00190F081E02D0995089580E00895F6
:104A6000E0915103F0915203309721F00280F381DD
:104A7000E02D09950895DC01E0915103F091520376
:104A8000309739F086E08C930480F581E02DCD01DC
:104A900009950895DC01E0915103F091520330979C
:104AA00039F082E08C930680F781E02DCD010995E5
:104AB0000895A3E0B0E0EFE5F5E20C9405319C0128
:104AC00080914F039091500382179307A1F0309388
:104AD000500320934F03E0915103F091520330971C
:104AE00051F083E089833B832A830084F185E02DA4
:104AF000CE01019609952396E2E00C942131A3E0C2
:104B0000B0E0E5E8F5E20C9405319C0180914D039D
:104B100090914E0382179307A1F030934E03209398
:104B20004D03E0915103F0915203309751F084E02E
:104B300089833B832A830084F185E02DCE01019691
:104B400009952396E2E00C942131209106013091E1
:104B500007012E5F3F4F809140018823A9F080918B
:104B60005F0387FF11C020910401309105012E5F82
:104B70003F4F9DE180E0F90140812F5F3F4F4111A0
:104B80008F5F9150C0F7089595E0F4CF882321F10D
:104B900090914001992311F190915F0397FF1EC0FE
:104BA000982F969596959695803FB0F4E0910401E4
:104BB000F0910501E90FF11D228130E0877041E09D
:104BC00050E0BA0102C0660F771F8A95E2F72623EC
:104BD000372381E0232B91F480E008952091060192
:104BE00030910701F9013296285F3F4F9191981754
:104BF00021F0E217F307D1F7EFCF81E008959C0190
:104C0000FC0132968FEF90E04191461751F08F3FB3
:104C100019F4411101C0892F9F5F9630A9F78F3F8A
:104C200009F40895280F311D87FD3A95F901628333
:104C300008959C01FC013296285F3F4F81918613B5
:104C400003C0DF0111971C92E217F307B9F708952B
:104C5000FC01862F869586958695603F60F4E80F67
:104C6000F11D677021E030E001C0220F6A95EAF77C
:104C70008281822B82830895FC01862F86958695FA
:104C80008695603F80F4E80FF11D677081E090E049
:104C90009C0102C0220F331F6A95E2F7B9016095AB
:104CA0008281682362830895682F80914001882360
:104CB00059F080915F0387FF07C0809104019091B4
:104CC00005010E9428260895809106019091070110
:104CD0000E94FF250895682F80914001882359F094
:104CE00080915F0387FF07C08091040190910501C7
:104CF0000E943C26089580910601909107010E9430
:104D00001926089580914001882379F080915F03EE
:104D100087FF0BC0E0910401F091050132968EE10E
:104D2000DF011D928A95E9F70895E0910601F0915F
:104D30000701329686E0F4CFDC01FB0111969C91CD
:104D400011978181981322C012968C911297882313
:104D500019F0928189131AC013968C9113978823A6
:104D600019F09381891312C015968C911597882399
:104D700019F0958189130AC014969C91992321F00A
:104D800081E02481291303C080E001C081E08170AB
:104D9000089508950E94C92608958F5F8093530354
:104DA0000E94CA26089583E0809353030E94CA2676
:104DB00008950E94CD26089581E0809353030E94B8
:104DC000CA2608950E94DC260895089508950E9439
:104DD000E6260895089508950E94E5260895CF9344
:104DE0000E94EA260E940A140E94EB26C0E08C2F43
:104DF0000E94DC12811105C0CF5FCA30C1F7CF918C
:104E0000089581E0FCCF85B7806885BF85B780684D
:104E100085BF08951F921FB61F9211248F939F93F1
:104E2000AF93BF9380915403811113C08091A70366
:104E30009091A803A091A903B091AA034196A11D46
:104E4000B11D8093A7039093A803A093A903B093E7
:104E5000AA03BF91AF919F918F911F901FBE1F908A
:104E600018958091AF03843031F10E946305109250
:104E7000540388E190E020E40FB6F894A89580935D
:104E800060000FBE2093600083B7817F846083BF82
:104E900083B7816083BF7894889583B78E7F83BF03
:104EA0000FB6F894A89580916000886180936000A7
:104EB000109260000FBE08950E940C090E946805C0
:104EC000089582E084BD93E095BD9AEF97BD8093ED
:104ED0006E0008952FB7F8948091A7039091A803CE
:104EE000A091A903B091AA032FBF0895A4E0B0E058
:104EF000ECE7F7E20C9405318FB7F8942091A70303
:104F00003091A8034091A9035091AA0329833A83C1
:104F10004B835C838FBF69817A818B819C812496CE
:104F2000E2E00C9421319C014FB7F8948091A703E3
:104F30009091A803A091A903B091AA034FBF821B2F
:104F4000930B0895A4E0B0E0E8EAF7E20C94033193
:104F5000462F572FBC012FB7F8948091A70390914B
:104F6000A803A091A903B091AA032FBF8C019D01B2
:104F7000041B150B260B370BC901B8012496E4E07E
:104F80000C941F3178941F921FB61F9211248F9397
:104F90009F93AF93BF938091A7039091A803A09193
:104FA000A903B091AA030196A11DB11D8093A70387
:104FB0009093A803A093A903B093AA03BF91AF91C4
:104FC0009F918F911F901FBE1F90189587E797E7BD
:104FD000909301088093000888E19AE00FB6F89456
:104FE000A895809360000FBE90936000FFCF88E18A
:104FF0009AE00FB6F894A895809360000FBE909346
:105000006000FFCF8EE1489B03C081508111FBCF30
:10501000489BFECF0895589880E28A95F1F7589AF8
:105020000895FC012BE02A95F1F728E090E080E05C
:1050300031E040E14A95F1F7880F489B02C081605A
:10504000932742E04A95F1F7000040E14A95F1F7D5
:1050500021502111EECF20E12A95F1F729B132E05C
:105060003A95F1F7000040E14A95F1F72170922757
:105070002081920F90830895A1E0B0E0E2E4F8E28D
:105080000C94013119828C017C01E60EF11C0E1585
:105090001F0541F481E09981911180E02196E6E0BD
:1050A0000C941D310E940228CE0101960E94112805
:1050B000F80181938F01EBCF509A589A0895509838
:1050C000589AE89AE9E6F0E080818C7F8083089521
:1050D0006150770B91E001C0990F6A95EAF7692F4B
:1050E00090E021E0611108C0992399F0589A80E27C
:1050F0008A95F1F758980895362F3823332339F0DD
:10510000589A922730E23A95F1F76695EBCF589886
:10511000F9CF5898ECCFFF920F931F93CF93DF9363
:10512000EC018C01060F111DC017D10729F4CDB772
:10513000DEB7E5E00C941E31F9900E940B2868E080
:105140008F2D0E946828F0CF1F920F920FB60F92FA
:1051500011240F931F932F933F934F935F936F935C
:105160007F938F939F93AF93BF93EF93FF93CF93CF
:10517000DF930F92CDB7DEB719820E940228CE01CD
:1051800001960E941128082F069506950695982FDE
:1051900092959570202F2570920F292F2370969548
:1051A0009695920F982797708981892B81115CC001
:1051B000053008F059C080E18A95F1F7589A509A65
:1051C00082E08A95F1F700C0589888E0089F800136
:1051D0001124D801A75FBE4F1696ED91FC91179749
:1051E0003097A9F06091B8017091B90114962D9192
:1051F0003C911597260F371F11968D919C91129710
:10520000680F791F13964C9113978C910995F801AB
:10521000E75FFE4F6381662351F02091B801309122
:10522000B90184819581820F931F0E948B280E946F
:105230000B2880E18A95F1F758985098589A80E1A8
:105240008A95F1F7F801E75FFE4F6081662351F020
:105250002091B8013091B90181819281820F931F11
:105260000E943C280E9402280F90DF91CF91FF916D
:10527000EF91BF91AF919F918F917F916F915F91CE
:105280004F913F912F911F910F910F900FBE0F9053
:105290001F9018950F931F93CF93DF938C01059761
:1052A0000CF065C0F894509A589885E08A95F1F70B
:1052B0000000C02FC695C570802F8570C80F8C2F39
:1052C0008370C695C69593E0000F111F9A95E1F77C
:1052D000C80FC8018C2BEC010E940B2800C068E0AD
:1052E0008C2F0E94682890E19A95F1F75098589A6F
:1052F000489B35C087E090E0489933C0F801E75FEC
:10530000FE4F6381662361F02091B8013091B901AD
:1053100084819581820F931F0E943C28882321F16C
:105320000E94022880E28A95F1F75898509A90E1FD
:105330009A95F1F7F801E75FFE4F6081662351F01F
:105340002091B8013091B90181819281820F931F20
:105350000E948B280E940B28789481E009C000C02D
:10536000C7CF0197009749F4509A589A789480E0F3
:10537000DF91CF911F910F91089500C0BDCF809113
:105380005D030895282FCB01BA013091AF0334306B
:10539000E1F42F702093E9002FEF3091E80035FD04
:1053A00007C035ED3A95F1F7000021502111F5CFF6
:1053B0002091E80025FF09C040E050E00E94C62B84
:1053C0008091E8008E778093E8000895BC0143E067
:1053D00050E082E00E94C2290895BC0146E050E0FE
:1053E00082E00E94C2290895BC0140E250E082E0C0
:1053F0000E94C2290895CF93DF93D82FC92F48E088
:1054000050E0682F792F81E00E94C22988E0ED2FBB
:10541000FC2FA5E5B3E001900D928A95E1F7DF91AD
:10542000CF9108958091AE03811109C00E944E2D45
:105430000E94AB2D8091E20084608093E200089589
:105440001092AE0308950E94DC2608956091AB038C
:1054500081E0611101C080E00E94D32608959091FF
:10546000AF0381E0943009F080E06091AB030E94CB
:10547000D926089542E061EC81E00E94CA2C42E204
:1054800061EC82E00E94CA2C9091AF0381E09430DD
:1054900009F080E06091AB030E94CD2608958091D1
:1054A000B103893089F148F4823009F4A0C0833017
:1054B00009F45AC0813041F008958A3009F487C058
:1054C0008B3009F46CC008958091B003813A09F0E3
:1054D0004AC08091E800877F8093E8008091B40300
:1054E0009091B503892B61F060E080E090E070E07E
:1054F0000E94152C8091E8008B778093E800089536
:1055000068E085E593E0F3CF8091B003813259F5EF
:105510008091B4039091B503029728F58091E8003B
:10552000877F8093E8008091E80082FF18C0909107
:10553000F3008091F200029731F48091F100813004
:1055400011F0863021F48091F10080935D03809109
:10555000E8008B778093E8000E94FE2C04C08091C5
:10556000AF038111E0CF08958091B003813AD9F75C
:105570008091B4039091B503892BA9F78091E8003D
:10558000877F8093E8008091E80080FFFCCF8091C6
:1055900040018093F1008091E8008E77DBCF80910D
:1055A000B003813201F78091B4039091B503892B48
:1055B000D1F68091E800877F8093E8000E94FE2C5E
:1055C0008091B203809340010E940C09089580915C
:1055D000B003813241F68091E800877F8093E80034
:1055E0000E94FE2C8091B30380935E030895809106
:1055F000B003813A09F0B7CF8091E800877F8093AC
:10560000E8008091E80080FFFCCF80915E03C1CF6D
:1056100084B7877F84BF0FB6F894A8958091600007
:10562000886180936000109260000FBE80E890E077
:105630000FB6F89480936100909361000FBE0E94B2
:10564000E22608950E944E2D0E94AB2DE2EEF0E07E
:1056500080818460808378940E942E30089586E350
:1056600091E00E94172508958091AF03853031F4B1
:105670008091AF03853019F00E945C2708950E9445
:1056800031278091AD03882399F30E94EF26882368
:1056900079F30E94B02B0E940C09EACF08959A0179
:1056A0004091B6035091B7030E94572B0895AC0167
:1056B000CB01D901252F332723303105E1F058F4F0
:1056C00021303105C9F122303105D9F180E090E077
:1056D00020E030E01EC02132310521F122323105B7
:1056E000A9F7892BC1F16130710581F786EB90E054
:1056F0002AE236E00EC0CA019927413069F08230B3
:10570000910569F0E9EDF5E0892B01F7849190E0CE
:105710009F012D933C930895EFEBF5E0F7CFEBE974
:10572000F5E0F4CF892B91F06130710579F689E0CD
:1057300090E028E036E0EDCF82E190E028E136E02D
:10574000E8CF8BE390E02DED35E0E3CF89E090E00A
:105750002FEE35E0DECF84E490E020EE36E0D9CFC6
:1057600080E189BD82E189BD09B400FEFDCF809151
:10577000D8008F7D8093D8008091E0008260809374
:10578000E0008091E00081FDFCCF0895AF92BF92D0
:10579000CF92DF92FF920F931F93CF93DF936C0111
:1057A000EB018A010E941D2DF82E811123C00115E5
:1057B000110539F0F80180819181C81BD90BC80E01
:1057C000D91EA12CB12C2097A9F08091E80085FD6D
:1057D00022C08091E8008E778093E80001151105C2
:1057E000A1F0F801808191818A0D9B1D91838083B6
:1057F00085E0F82E8F2DDF91CF911F910F91FF90B3
:10580000DF90CF90BF90AF9008950E941D2D882308
:10581000E1F2F82EEFCFF60181916F018093F10054
:105820002197FFEFAF1ABF0ACECFFC019B018091F9
:10583000B6039091B7038617970718F0672B61F0AE
:10584000C90140E0009771F441110CC08091E8005B
:1058500082FF35C080E008958091E8008E778093C4
:10586000E800EECF2091AF032223A9F12530A9F162
:105870002091E80023FD2DC02091E80022FDE6CF15
:105880002091E80020FFDECF3091F3002091F2005C
:10589000009719F02830310558F041E028303105E3
:1058A00009F040E02091E8002E772093E800CACF6D
:1058B00041914093F10001972F5F3F4FE9CF8091D5
:1058C000AF03882341F0853041F08091E80083FFE9
:1058D000BDCF81E0089582E0089583E00895FC0142
:1058E0009B018091B6039091B7038617970718F034
:1058F000672B61F0C90140E0009771F441110CC0C1
:105900008091E80082FF36C080E008958091E80031
:105910008E778093E800EECF2091AF032223B1F180
:105920002530B1F12091E80023FD2EC02091E80040
:1059300022FDE6CF2091E80020FFDECF3091F3007A
:105940002091F200009719F02830310558F041E01D
:105950002830310509F040E02091E8002E772093AF
:10596000E800CACF44914093F100319601972F5F30
:105970003F4FE8CF8091AF03882341F0853041F05D
:105980008091E80083FFBCCF81E0089582E0089514
:1059900083E00895982F973028F08F708093E90066
:1059A00081E008959093E900242F762F50E0981716
:1059B00031F07091EC002091ED005091F00021FD4C
:1059C00002C09F5FE8CF3091EB003E7F3093EB0049
:1059D0003091ED003D7F3093ED003091EB00316070
:1059E0003093EB007093EC002093ED005093F000A7
:1059F0002091EE0027FDE5CF80E008958091B0036F
:105A000087FF13C08091E80082FF06C08091E80004
:105A10008B778093E80004C08091AF038111F2CFAF
:105A200008958091AF038823D9F38091E80080FF27
:105A3000F8CF8091E8008E77ECCF2091E400309190
:105A4000E50095E6A9018091EC008170882331F092
:105A50008091E80080FF06C080E008952091E80072
:105A600022FD1BC08091AF03882391F0853091F017
:105A70008091EB0085FD10C02091E4003091E5009D
:105A80004217530701F391509111DCCF84E0089540
:105A900082E0089583E0089581E008950E94BD2D7D
:105AA0000E94C52DE0EEF0E0808181608083E8ED0A
:105AB000F0E080818F77808319BCA7EDB0E08C91F6
:105AC0008E7F8C9380818F7E80831092AE030895A9
:105AD0000F931F93CF93DF930E94BD2D0E94C52D7E
